{
  "contractName": "AccessControlWithOwner",
  "abi": [
    {
      "anonymous": false,
      "inputs": [
        {
          "indexed": false,
          "internalType": "uint8",
          "name": "version",
          "type": "uint8"
        }
      ],
      "name": "Initialized",
      "type": "event"
    },
    {
      "anonymous": false,
      "inputs": [
        {
          "indexed": true,
          "internalType": "address",
          "name": "previousOwner",
          "type": "address"
        },
        {
          "indexed": true,
          "internalType": "address",
          "name": "newOwner",
          "type": "address"
        }
      ],
      "name": "OwnershipTransferred",
      "type": "event"
    },
    {
      "anonymous": false,
      "inputs": [
        {
          "indexed": true,
          "internalType": "bytes32",
          "name": "role",
          "type": "bytes32"
        },
        {
          "indexed": true,
          "internalType": "bytes32",
          "name": "previousAdminRole",
          "type": "bytes32"
        },
        {
          "indexed": true,
          "internalType": "bytes32",
          "name": "newAdminRole",
          "type": "bytes32"
        }
      ],
      "name": "RoleAdminChanged",
      "type": "event"
    },
    {
      "anonymous": false,
      "inputs": [
        {
          "indexed": true,
          "internalType": "bytes32",
          "name": "role",
          "type": "bytes32"
        },
        {
          "indexed": true,
          "internalType": "address",
          "name": "account",
          "type": "address"
        },
        {
          "indexed": true,
          "internalType": "address",
          "name": "sender",
          "type": "address"
        }
      ],
      "name": "RoleGranted",
      "type": "event"
    },
    {
      "anonymous": false,
      "inputs": [
        {
          "indexed": true,
          "internalType": "bytes32",
          "name": "role",
          "type": "bytes32"
        },
        {
          "indexed": true,
          "internalType": "address",
          "name": "account",
          "type": "address"
        },
        {
          "indexed": true,
          "internalType": "address",
          "name": "sender",
          "type": "address"
        }
      ],
      "name": "RoleRevoked",
      "type": "event"
    },
    {
      "inputs": [],
      "name": "ADMIN_ROLE",
      "outputs": [
        {
          "internalType": "bytes32",
          "name": "",
          "type": "bytes32"
        }
      ],
      "stateMutability": "view",
      "type": "function"
    },
    {
      "inputs": [],
      "name": "CUSTOMER_ROLE",
      "outputs": [
        {
          "internalType": "bytes32",
          "name": "",
          "type": "bytes32"
        }
      ],
      "stateMutability": "view",
      "type": "function"
    },
    {
      "inputs": [],
      "name": "DISTRIBUTOR_ROLE",
      "outputs": [
        {
          "internalType": "bytes32",
          "name": "",
          "type": "bytes32"
        }
      ],
      "stateMutability": "view",
      "type": "function"
    },
    {
      "inputs": [],
      "name": "MANUFACTURER_ROLE",
      "outputs": [
        {
          "internalType": "bytes32",
          "name": "",
          "type": "bytes32"
        }
      ],
      "stateMutability": "view",
      "type": "function"
    },
    {
      "inputs": [],
      "name": "SUPPLIER_ROLE",
      "outputs": [
        {
          "internalType": "bytes32",
          "name": "",
          "type": "bytes32"
        }
      ],
      "stateMutability": "view",
      "type": "function"
    },
    {
      "inputs": [],
      "name": "TRANSPORTER_ROLE",
      "outputs": [
        {
          "internalType": "bytes32",
          "name": "",
          "type": "bytes32"
        }
      ],
      "stateMutability": "view",
      "type": "function"
    },
    {
      "inputs": [],
      "name": "WHOLESALER_ROLE",
      "outputs": [
        {
          "internalType": "bytes32",
          "name": "",
          "type": "bytes32"
        }
      ],
      "stateMutability": "view",
      "type": "function"
    },
    {
      "inputs": [],
      "name": "owner",
      "outputs": [
        {
          "internalType": "address",
          "name": "",
          "type": "address"
        }
      ],
      "stateMutability": "view",
      "type": "function"
    }
  ],
  "bytecode": "0x608080604052346100165761026d908161001b8239f35b5f80fdfe608060408181526004361015610013575f80fd5b5f91823560e01c908163204d7923146101fd575080634eabbe77146101c357806375b238fc146101895780638da5cb5b14610162578063965288b014610128578063a29508fc146100ee578063d7cb8d34146100b45763f0bd87cc14610077575f80fd5b346100b057816003193601126100b057602090517ffbd454f36a7e1a388bd6fc3ab10d434aa4578f811acbbcf33afb1c697486313c8152f35b5080fd5b50346100b057816003193601126100b057602090517fe34aaecbfe1f40867dcba8678fbed9f4ffa5782221fa3bb500b71b2a804303188152f35b50346100b057816003193601126100b057602090517fd1ae8bbdabd60d63e418b84f5ad6f9cba90092c9816d7724d85f0d4e4bea2c608152f35b50346100b057816003193601126100b057602090517feefb95e842a3287179d933b4460be539a1d5af11aa8b325bb45c5c8dc92de4ed8152f35b50346100b057816003193601126100b057905490516001600160a01b039091168152602090f35b50346100b057816003193601126100b057602090517fa49807205ce4d355092ef5a8a18f56e8913cf4a201fbe287825b095693c217758152f35b50346100b057816003193601126100b057602090517fddaa901e2fe3bda354fe0ede2785152d5c109282a613fe024a056a3e66c41bb38152f35b8390346100b057816003193601126100b057807f288a15c4a15d470e4cd9cad2f113b91206b520c26dbd3dd74627f0c057baa19c60209252f3fea2646970667358221220a3f5440140f8fc561d813b4a265c425a647a602f1f0120e010bae051486db42364736f6c63430008140033",
  "immutableReferences": {},
  "source": "// access/AccessControlWithOwner.sol (V5 - Strict Implicit Owner Admin)\r\n// SPDX-License-Identifier: MIT\r\npragma solidity ^0.8.20;\r\n\r\n// Assuming Errors.sol is in ../libraries/\r\nimport {Errors} from \"../libraries/Errors.sol\";\r\n\r\n/**\r\n * @title AccessControlWithOwner (V5 - Strict Implicit Owner Admin)\r\n * @dev Provides role-based access control where the contract owner ALWAYS implicitly holds ADMIN_ROLE.\r\n *      ADMIN_ROLE is not stored in the roles mapping and cannot be granted or revoked.\r\n *      Other roles are explicitly managed via the _roles mapping and admin hierarchy.\r\n * @notice Owner's ADMIN_ROLE status is inherent and immutable.\r\n *         Storage layout (owner, _roles, _roleAdmin) MUST be respected by proxies.\r\n */\r\ncontract AccessControlWithOwner {\r\n\r\n    // --- State Variables ---\r\n    address public owner; // Slot 0: Holds ADMIN_ROLE implicitly.\r\n    mapping(bytes32 => mapping(address => bool)) internal _roles; // Slot 1+: Explicit roles (non-ADMIN)\r\n    mapping(bytes32 => bytes32) internal _roleAdmin; // Slot 2+: Admin roles (non-ADMIN)\r\n    uint8 private _initializing; // Initialization guard\r\n\r\n    // --- Role Constants ---\r\n    bytes32 public constant ADMIN_ROLE        = keccak256(\"ADMIN_ROLE\"); // Implicitly held by owner\r\n    bytes32 public constant SUPPLIER_ROLE     = keccak256(\"SUPPLIER_ROLE\");\r\n    bytes32 public constant TRANSPORTER_ROLE  = keccak256(\"TRANSPORTER_ROLE\");\r\n    bytes32 public constant MANUFACTURER_ROLE = keccak256(\"MANUFACTURER_ROLE\");\r\n    bytes32 public constant WHOLESALER_ROLE   = keccak256(\"WHOLESALER_ROLE\");\r\n    bytes32 public constant DISTRIBUTOR_ROLE  = keccak256(\"DISTRIBUTOR_ROLE\");\r\n    bytes32 public constant CUSTOMER_ROLE     = keccak256(\"CUSTOMER_ROLE\");\r\n\r\n    // --- Events ---\r\n    event Initialized(uint8 version);\r\n    event OwnershipTransferred(address indexed previousOwner, address indexed newOwner);\r\n    event RoleAdminChanged(bytes32 indexed role, bytes32 indexed previousAdminRole, bytes32 indexed newAdminRole);\r\n    event RoleGranted(bytes32 indexed role, address indexed account, address indexed sender);\r\n    event RoleRevoked(bytes32 indexed role, address indexed account, address indexed sender);\r\n\r\n    // --- Modifier ---\r\n    modifier initializer() {\r\n        require(_initializing == 0, \"Initializer: contract is already initialized\");\r\n        _initializing = 1;\r\n        _;\r\n        _initializing = 2;\r\n    }\r\n\r\n    // --- Initialization ---\r\n    /** @dev Sets the initial owner and default admin roles for manageable roles. */\r\n    function _initializeOwner(address initialOwner) internal virtual initializer {\r\n        require(initialOwner != address(0), \"Init: Initial owner cannot be zero address\");\r\n        owner = initialOwner; // Implicitly grants ADMIN_ROLE\r\n        _initializeRoleAdminsInternal();\r\n        emit OwnershipTransferred(address(0), initialOwner);\r\n        emit Initialized(2); // V5 logic pattern\r\n    }\r\n\r\n    // --- Role Management Core Logic ---\r\n    /** @dev Grants a *manageable* `role` (NOT ADMIN_ROLE). Reverts if role is ADMIN_ROLE. */\r\n    function _grantRole(bytes32 role, address account, address sender) internal virtual {\r\n        if (role == ADMIN_ROLE) revert Errors.AccessControlCannotManageAdminRole();\r\n        _checkGrantRevokePreconditions(role, account);\r\n        _checkAdminAuthorization(role, sender);\r\n        _setupRoleInternal(role, account, sender);\r\n    }\r\n\r\n    /** @dev Revokes a *manageable* `role` (NOT ADMIN_ROLE). Reverts if role is ADMIN_ROLE. */\r\n    function _revokeRole(bytes32 role, address account, address sender) internal virtual {\r\n        if (role == ADMIN_ROLE) revert Errors.AccessControlCannotManageAdminRole();\r\n        _checkGrantRevokePreconditions(role, account);\r\n        _checkAdminAuthorization(role, sender);\r\n        _revokeRoleInternal(role, account, sender);\r\n    }\r\n\r\n    /** @dev Sets the admin role for a *manageable* `role` (NOT ADMIN_ROLE). Requires owner. */\r\n    function _setRoleAdmin(bytes32 role, bytes32 newAdminRole, address sender) internal virtual {\r\n        if (role == ADMIN_ROLE) revert Errors.AccessControlCannotManageAdminRole();\r\n        if (sender != owner) revert Errors.AccessControlOwnerOnly();\r\n        _setRoleAdminInternal(role, newAdminRole);\r\n    }\r\n\r\n    /** @dev Transfers ownership. ADMIN_ROLE transfers implicitly. */\r\n    function _transferOwnership(address newOwner, address sender) internal virtual {\r\n        address currentOwner = owner;\r\n        if (sender != currentOwner) revert Errors.AccessControlOwnerOnly();\r\n        if (newOwner == address(0)) revert Errors.AccessControlZeroAddress();\r\n        owner = newOwner;\r\n        emit OwnershipTransferred(currentOwner, newOwner);\r\n    }\r\n\r\n    // --- Internal Helpers ---\r\n    /** @dev Sets default admin roles (owner manages others). */\r\n    function _initializeRoleAdminsInternal() internal {\r\n        _roleAdmin[SUPPLIER_ROLE] = ADMIN_ROLE;\r\n        _roleAdmin[TRANSPORTER_ROLE] = ADMIN_ROLE;\r\n        _roleAdmin[MANUFACTURER_ROLE] = ADMIN_ROLE;\r\n        _roleAdmin[WHOLESALER_ROLE] = ADMIN_ROLE;\r\n        _roleAdmin[DISTRIBUTOR_ROLE] = ADMIN_ROLE;\r\n        _roleAdmin[CUSTOMER_ROLE] = ADMIN_ROLE;\r\n    }\r\n\r\n    /** @dev Grants role in state map. Assumes role != ADMIN_ROLE. */\r\n    function _setupRoleInternal(bytes32 role, address account, address eventSender) internal {\r\n        if (!_roles[role][account]) {\r\n            _roles[role][account] = true;\r\n            emit RoleGranted(role, account, eventSender);\r\n        }\r\n    }\r\n\r\n    /** @dev Revokes role from state map. Assumes role != ADMIN_ROLE. */\r\n    function _revokeRoleInternal(bytes32 role, address account, address eventSender) internal {\r\n        if (_roles[role][account]) {\r\n            _roles[role][account] = false;\r\n            emit RoleRevoked(role, account, eventSender);\r\n        }\r\n    }\r\n\r\n    /** @dev Sets role admin in state map. Assumes role != ADMIN_ROLE. */\r\n    function _setRoleAdminInternal(bytes32 role, bytes32 newAdminRole) internal {\r\n        bytes32 previousAdminRole = _roleAdmin[role];\r\n        if (previousAdminRole != newAdminRole) {\r\n            _roleAdmin[role] = newAdminRole;\r\n            emit RoleAdminChanged(role, previousAdminRole, newAdminRole);\r\n        }\r\n    }\r\n\r\n    // --- Internal Precondition and Authorization Checks ---\r\n    /** @dev Checks account is not zero. */\r\n    function _checkGrantRevokePreconditions(bytes32 /* role */, address account) internal pure {\r\n        if (account == address(0)) revert Errors.AccessControlZeroAddress();\r\n    }\r\n\r\n    /** @dev Checks if sender can manage 'role'. Only called for non-ADMIN_ROLE. */\r\n    function _checkAdminAuthorization(bytes32 role, address sender) internal view {\r\n        bytes32 adminRoleRequired = _getRoleAdmin(role);\r\n        if (adminRoleRequired == ADMIN_ROLE) {\r\n            // If owner (ADMIN_ROLE) manages this role, sender must be owner.\r\n            if (sender != owner) {\r\n                revert Errors.AccessControlInvalidAdminRole(sender, ADMIN_ROLE);\r\n            }\r\n        } else {\r\n            // Otherwise, check if sender has the specific required admin role.\r\n             if (!_internalHasRole(adminRoleRequired, sender)) {\r\n                 revert Errors.AccessControlInvalidAdminRole(sender, adminRoleRequired);\r\n            }\r\n        }\r\n    }\r\n\r\n    // --- Internal View Functions ---\r\n    /** @dev Checks role possession (implicit ADMIN_ROLE for owner, explicit for others). */\r\n    function _internalHasRole(bytes32 role, address account) internal view returns (bool) {\r\n        if (role == ADMIN_ROLE) return account == owner;\r\n        return _roles[role][account];\r\n    }\r\n\r\n    /** @dev Gets the admin role for 'role'. */\r\n    function _getRoleAdmin(bytes32 role) internal view returns (bytes32) {\r\n        if (role == ADMIN_ROLE) return ADMIN_ROLE; // Implicitly managed by owner\r\n        bytes32 admin = _roleAdmin[role];\r\n        return admin == bytes32(0) ? ADMIN_ROLE : admin; // Default to ADMIN_ROLE if unset\r\n    }\r\n\r\n    // --- Internal Require-Style Check Functions ---\r\n    /** @dev Reverts if account lacks role. */\r\n    function _checkRole(bytes32 role, address account) internal view virtual {\r\n        if (!_internalHasRole(role, account)) {\r\n            revert Errors.AccessControlMissingRole(account, role);\r\n        }\r\n    }\r\n\r\n    /** @dev Reverts if msg.sender lacks role. */\r\n    function _checkSenderRole(bytes32 role) internal view virtual {\r\n        if (!_internalHasRole(role, msg.sender)) {\r\n            revert Errors.AccessControlMissingRole(msg.sender, role);\r\n        }\r\n    }\r\n}",
  "sourcePath": "C:\\Users\\rabra\\OneDrive\\Desktop\\new drug auth\\contracts\\access\\AccessControlWithOwner.sol",
  "compiler": {
    "name": "solc",
    "version": "0.8.20+commit.a1b79de6.Emscripten.clang"
  },
  "schemaVersion": "3.4.16",
  "updatedAt": "2025-04-30T05:18:42.137Z",
  "devdoc": {
    "details": "Provides role-based access control where the contract owner ALWAYS implicitly holds ADMIN_ROLE.      ADMIN_ROLE is not stored in the roles mapping and cannot be granted or revoked.      Other roles are explicitly managed via the _roles mapping and admin hierarchy.",
    "kind": "dev",
    "methods": {},
    "title": "AccessControlWithOwner (V5 - Strict Implicit Owner Admin)",
    "version": 1
  },
  "userdoc": {
    "kind": "user",
    "methods": {},
    "notice": "Owner's ADMIN_ROLE status is inherent and immutable.         Storage layout (owner, _roles, _roleAdmin) MUST be respected by proxies.",
    "version": 1
  }
}