{
  "contractName": "Medicine",
  "abi": [
    {
      "inputs": [
        {
          "internalType": "address",
          "name": "_supplyChainContract",
          "type": "address"
        },
        {
          "internalType": "bytes32",
          "name": "_description",
          "type": "bytes32"
        },
        {
          "internalType": "uint256",
          "name": "_quantity",
          "type": "uint256"
        },
        {
          "internalType": "address[]",
          "name": "_rawMaterialBatchIds",
          "type": "address[]"
        },
        {
          "internalType": "address",
          "name": "_manufacturer",
          "type": "address"
        },
        {
          "internalType": "uint256",
          "name": "_expiryDate",
          "type": "uint256"
        }
      ],
      "stateMutability": "nonpayable",
      "type": "constructor"
    },
    {
      "inputs": [],
      "name": "AccessControlZeroAddress",
      "type": "error"
    },
    {
      "inputs": [
        {
          "internalType": "uint8",
          "name": "current",
          "type": "uint8"
        },
        {
          "internalType": "uint8",
          "name": "required",
          "type": "uint8"
        }
      ],
      "name": "Batch_InvalidStateForAction",
      "type": "error"
    },
    {
      "inputs": [
        {
          "internalType": "address",
          "name": "caller",
          "type": "address"
        },
        {
          "internalType": "address",
          "name": "expected",
          "type": "address"
        }
      ],
      "name": "Batch_UnauthorizedCaller",
      "type": "error"
    },
    {
      "inputs": [],
      "name": "Med_AlreadyDestroyedOrFinalized",
      "type": "error"
    },
    {
      "inputs": [
        {
          "internalType": "uint8",
          "name": "current",
          "type": "uint8"
        },
        {
          "internalType": "uint8",
          "name": "target",
          "type": "uint8"
        }
      ],
      "name": "Med_InvalidStateTransition",
      "type": "error"
    },
    {
      "anonymous": false,
      "inputs": [
        {
          "indexed": false,
          "internalType": "bytes32",
          "name": "reasonCode",
          "type": "bytes32"
        },
        {
          "indexed": false,
          "internalType": "uint256",
          "name": "timestamp",
          "type": "uint256"
        }
      ],
      "name": "BatchDestroyed",
      "type": "event"
    },
    {
      "anonymous": false,
      "inputs": [
        {
          "indexed": false,
          "internalType": "uint256",
          "name": "timestamp",
          "type": "uint256"
        }
      ],
      "name": "BatchFinalized",
      "type": "event"
    },
    {
      "anonymous": false,
      "inputs": [
        {
          "indexed": true,
          "internalType": "address",
          "name": "from",
          "type": "address"
        },
        {
          "indexed": true,
          "internalType": "address",
          "name": "to",
          "type": "address"
        },
        {
          "indexed": false,
          "internalType": "uint256",
          "name": "timestamp",
          "type": "uint256"
        }
      ],
      "name": "OwnershipTransferred",
      "type": "event"
    },
    {
      "anonymous": false,
      "inputs": [
        {
          "indexed": false,
          "internalType": "enum Medicine.Status",
          "name": "newStatus",
          "type": "uint8"
        },
        {
          "indexed": false,
          "internalType": "uint256",
          "name": "timestamp",
          "type": "uint256"
        }
      ],
      "name": "StatusChanged",
      "type": "event"
    },
    {
      "anonymous": false,
      "inputs": [
        {
          "indexed": true,
          "internalType": "address",
          "name": "transporter",
          "type": "address"
        },
        {
          "indexed": true,
          "internalType": "address",
          "name": "destination",
          "type": "address"
        },
        {
          "indexed": false,
          "internalType": "uint256",
          "name": "timestamp",
          "type": "uint256"
        }
      ],
      "name": "TransporterAssigned",
      "type": "event"
    },
    {
      "inputs": [],
      "name": "batchId",
      "outputs": [
        {
          "internalType": "address",
          "name": "",
          "type": "address"
        }
      ],
      "stateMutability": "view",
      "type": "function"
    },
    {
      "inputs": [],
      "name": "creationTime",
      "outputs": [
        {
          "internalType": "uint256",
          "name": "",
          "type": "uint256"
        }
      ],
      "stateMutability": "view",
      "type": "function"
    },
    {
      "inputs": [],
      "name": "currentDestination",
      "outputs": [
        {
          "internalType": "address",
          "name": "",
          "type": "address"
        }
      ],
      "stateMutability": "view",
      "type": "function"
    },
    {
      "inputs": [],
      "name": "currentOwner",
      "outputs": [
        {
          "internalType": "address",
          "name": "",
          "type": "address"
        }
      ],
      "stateMutability": "view",
      "type": "function"
    },
    {
      "inputs": [],
      "name": "currentTransporter",
      "outputs": [
        {
          "internalType": "address",
          "name": "",
          "type": "address"
        }
      ],
      "stateMutability": "view",
      "type": "function"
    },
    {
      "inputs": [],
      "name": "description",
      "outputs": [
        {
          "internalType": "bytes32",
          "name": "",
          "type": "bytes32"
        }
      ],
      "stateMutability": "view",
      "type": "function"
    },
    {
      "inputs": [],
      "name": "expiryDate",
      "outputs": [
        {
          "internalType": "uint256",
          "name": "",
          "type": "uint256"
        }
      ],
      "stateMutability": "view",
      "type": "function"
    },
    {
      "inputs": [],
      "name": "lastUpdateTime",
      "outputs": [
        {
          "internalType": "uint256",
          "name": "",
          "type": "uint256"
        }
      ],
      "stateMutability": "view",
      "type": "function"
    },
    {
      "inputs": [],
      "name": "manufacturer",
      "outputs": [
        {
          "internalType": "address",
          "name": "",
          "type": "address"
        }
      ],
      "stateMutability": "view",
      "type": "function"
    },
    {
      "inputs": [],
      "name": "quantity",
      "outputs": [
        {
          "internalType": "uint256",
          "name": "",
          "type": "uint256"
        }
      ],
      "stateMutability": "view",
      "type": "function"
    },
    {
      "inputs": [
        {
          "internalType": "uint256",
          "name": "",
          "type": "uint256"
        }
      ],
      "name": "rawMaterialBatchIds",
      "outputs": [
        {
          "internalType": "address",
          "name": "",
          "type": "address"
        }
      ],
      "stateMutability": "view",
      "type": "function"
    },
    {
      "inputs": [],
      "name": "status",
      "outputs": [
        {
          "internalType": "enum Medicine.Status",
          "name": "",
          "type": "uint8"
        }
      ],
      "stateMutability": "view",
      "type": "function"
    },
    {
      "inputs": [],
      "name": "supplyChainContract",
      "outputs": [
        {
          "internalType": "address",
          "name": "",
          "type": "address"
        }
      ],
      "stateMutability": "view",
      "type": "function"
    },
    {
      "inputs": [
        {
          "internalType": "enum Medicine.Status",
          "name": "_nextStatus",
          "type": "uint8"
        },
        {
          "internalType": "address",
          "name": "_transporter",
          "type": "address"
        },
        {
          "internalType": "address",
          "name": "_destination",
          "type": "address"
        }
      ],
      "name": "setInTransit",
      "outputs": [],
      "stateMutability": "nonpayable",
      "type": "function"
    },
    {
      "inputs": [
        {
          "internalType": "enum Medicine.Status",
          "name": "_nextStatus",
          "type": "uint8"
        },
        {
          "internalType": "address",
          "name": "_receiver",
          "type": "address"
        }
      ],
      "name": "setReceived",
      "outputs": [],
      "stateMutability": "nonpayable",
      "type": "function"
    },
    {
      "inputs": [],
      "name": "setConsumedOrSold",
      "outputs": [],
      "stateMutability": "nonpayable",
      "type": "function"
    },
    {
      "inputs": [
        {
          "internalType": "bytes32",
          "name": "_reasonCode",
          "type": "bytes32"
        }
      ],
      "name": "setDestroyed",
      "outputs": [],
      "stateMutability": "nonpayable",
      "type": "function"
    },
    {
      "inputs": [],
      "name": "getDetails",
      "outputs": [
        {
          "internalType": "bytes32",
          "name": "_description",
          "type": "bytes32"
        },
        {
          "internalType": "uint256",
          "name": "_quantity",
          "type": "uint256"
        },
        {
          "internalType": "address[]",
          "name": "_rawMaterialBatchIds",
          "type": "address[]"
        },
        {
          "internalType": "address",
          "name": "_manufacturer",
          "type": "address"
        },
        {
          "internalType": "uint256",
          "name": "_creationTime",
          "type": "uint256"
        },
        {
          "internalType": "uint256",
          "name": "_expiryDate",
          "type": "uint256"
        },
        {
          "internalType": "enum Medicine.Status",
          "name": "_status",
          "type": "uint8"
        },
        {
          "internalType": "address",
          "name": "_currentOwner",
          "type": "address"
        },
        {
          "internalType": "address",
          "name": "_currentTransporter",
          "type": "address"
        },
        {
          "internalType": "address",
          "name": "_currentDestination",
          "type": "address"
        },
        {
          "internalType": "uint256",
          "name": "_lastUpdateTime",
          "type": "uint256"
        }
      ],
      "stateMutability": "view",
      "type": "function"
    }
  ],
  "bytecode": "0x6040610160815234620002b95762001054803803806200001f81620002bd565b928339810160c082820312620002b9576200003a82620002e3565b926020938484015192828501519060608601519060018060401b0391828111620002b95787019281601f85011215620002b9578351918383116200027a578260051b948a6200008b818801620002bd565b80958152018b8197830101928311620002b9578b809201905b8382106200029f575050505060a0620000c060808a01620002e3565b980151966001600160a01b0395808716156200028e573060805260a05260c05260e052519081116200027a576801000000000000000081116200027a575f91825482845580831062000252575b50828052878320835b8381106200023d57505050507fc13a1166d81cd3b0b352a367aebab95f3a6f6bc695fdab8e9a9d335239c3861b610100968688526101409586526101209642885260015490610100600160a81b039060081b169060018060a81b031916179384600155426004557f40a180796b90921dd8508eb434c78206ca5c737a0d584582edf399bc9711d9e98680518681524285820152a185519442865260081c1693a35191610d5b9384620002f9853960805184610807015260a0518481816103490152818161048501528181610591015281816108550152610ae9015260c05184818161018a0152610539015260e0518481816101af0152610a020152518381816101f101526104f201525182818161021801526102eb01525181818161023e01526107cf0152f35b82518616828201559189019160010162000116565b8380528289852091820191015b8181106200026e57506200010d565b8481556001016200025f565b634e487b7160e01b5f52604160045260245ffd5b87516332cdae1b60e01b8152600490fd5b828091620002ad84620002e3565b815201910190620000a4565b5f80fd5b6040519190601f01601f191682016001600160401b038111838210176200027a57604052565b51906001600160a01b0382168203620002b95756fe608060409080825260049081361015610016575f80fd5b5f90813560e01c9081630634f1ce14610aa45750806306c81cc414610a7b5780630c16971914610a2557806317fc45e2146109ea578063200d2ed2146109c15780633ff08b05146108365780634972134a146107f2578063516dde43146107b75780635b37dc721461055c5780637284e4161461052157806374754282146104dd57806375422d45146104b4578063a269cc7a14610470578063b387ef9214610443578063b6bc7a0414610335578063c8f33c9114610312578063d8270dce146102d35763fbbf93a0146100e8575f80fd5b346102d057806003193601126102d057600192835460018060a01b03806002541690806003541692865494805180978054988983526020808094018d819c8580527f290decd9548b62a8d60345a988386fc84ba6bc95484008f6362f93160ef3e56391865b8281106102b95750505050829003601f01601f191682019b905067ffffffffffffffff8c11828d10176102a657508a8493929452610160808c01937f00000000000000000000000000000000000000000000000000000000000000008d528c847f00000000000000000000000000000000000000000000000000000000000000009101528c0152518092526101808a0198925b8281106102915750505050869750817f00000000000000000000000000000000000000000000000000000000000000001660608801527f000000000000000000000000000000000000000000000000000000000000000060808801527f000000000000000000000000000000000000000000000000000000000000000060a088015261027260c0880160ff8316610ccb565b60081c1660e08601526101008501526101208401526101408301520390f35b835186168a5298810198928101928b016101e0565b634e487b7160e01b835260419052602482fd5b83548c16855288959094019392810192810161014d565b80fd5b50823461030e578160031936011261030e57602090517f00000000000000000000000000000000000000000000000000000000000000008152f35b5080fd5b5091903461033157826003193601126103315760209250549051908152f35b8280fd5b50823461030e578160031936011261030e577f00000000000000000000000000000000000000000000000000000000000000006001600160a01b038116330361041657506001549260ff8416600981101561040357600681036103e9575060075f80516020610d06833981519152939460ff1916176001554290557f5cff112f1cb588779b4e6aae6baf0d738747fcf132f0ff202adcec605f9cabdf60208251428152a1805160078152426020820152a180f35b604492519162f4e13b60e71b835282015260066024820152fd5b634e487b7160e01b845260218252602484fd5b81516377afbad160e11b8152338186019081526001600160a01b0390921660208301529081906040010390fd5b50823461030e578160031936011261030e57600154905160089190911c6001600160a01b03168152602090f35b50823461030e578160031936011261030e57517f00000000000000000000000000000000000000000000000000000000000000006001600160a01b03168152602090f35b50823461030e578160031936011261030e5760025490516001600160a01b039091168152602090f35b50823461030e578160031936011261030e57517f00000000000000000000000000000000000000000000000000000000000000006001600160a01b03168152602090f35b50823461030e578160031936011261030e57602090517f00000000000000000000000000000000000000000000000000000000000000008152f35b50919034610331578160031936011261033157803590600982101590816107b357610585610cb1565b926001600160a01b03907f0000000000000000000000000000000000000000000000000000000000000000828116330361078657506001549360ff85169060098210158061071757600183141580610779575b8181610768575b506107375760028414158061072a575b8281610706575b506106ab57895f80516020610d068339815191528a60ff6106a18c8c8c7fc13a1166d81cd3b0b352a367aebab95f3a6f6bc695fdab8e9a9d335239c3861b60208e6106408f610cec565b60018054610100600160a81b03198116600898891b610100600160a81b03161791829055600280546001600160a01b031990811690915560038054909116905542958690558a519586529690811c821695901c1692a3835192839116610ccb565b426020820152a180f35b888a879386936106f3576106e05750516368c187fb60e11b815260ff9384169281019283529216602082015281906040010390fd5b634e487b7160e01b815260218452602490fd5b634e487b7160e01b825260218552602482fd5b9050610717576006841415826105f6565b634e487b7160e01b8a526021865260248afd5b50899150838614156105ef565b85848a8c86946106e05750516368c187fb60e11b815260ff9384169281019283529216602082015281906040010390fd5b9050610717576005831415816105df565b50508860038314156105d8565b86516377afbad160e11b8152338186019081526001600160a01b0390921660208301529081906040010390fd5b8480fd5b50823461030e578160031936011261030e57602090517f00000000000000000000000000000000000000000000000000000000000000008152f35b50823461030e578160031936011261030e57517f00000000000000000000000000000000000000000000000000000000000000006001600160a01b03168152602090f35b50919034610331576020366003190112610331576001600160a01b03907f0000000000000000000000000000000000000000000000000000000000000000828116330361099457506001549160ff831660098110156109815760088114908115610976575b5061096757917f3e6f997c58cb1412e97320e1a9863980eb67e8223fab083f2e77b8afb8c8c46084869360085f80516020610d06833981519152979685821c16946affffffffffffffffffffff60a81b16176001556bffffffffffffffffffffffff60a01b806002541660025560035416600355428155815190358152426020820152a180610937575b5050805160088152426020820152a180f35b7fc13a1166d81cd3b0b352a367aebab95f3a6f6bc695fdab8e9a9d335239c3861b60208451428152a3825f610925565b5082516357028d4d60e11b8152fd5b60079150145f61089b565b634e487b7160e01b865260218352602486fd5b83516377afbad160e11b8152339281019283526001600160a01b0390911660208301529081906040010390fd5b50823461030e578160031936011261030e576020906109e860ff6001541691518092610ccb565bf35b50823461030e578160031936011261030e57602090517f00000000000000000000000000000000000000000000000000000000000000008152f35b509190346103315760203660031901126103315735825481101561033157826020935260018060a01b03907f290decd9548b62a8d60345a988386fc84ba6bc95484008f6362f93160ef3e5630154169051908152f35b50823461030e578160031936011261030e5760035490516001600160a01b039091168152602090f35b8491503461033157606036600319011261033157833593600985101591826107b357610ace610cb1565b6001600160a01b0360443581811695919390869003610cad577f00000000000000000000000000000000000000000000000000000000000000008481163303610c8357505060ff6001541690600982101580610c145782151580610c76575b8181610c66575b50610c355760018a141580610c27575b8281610c03575b50610bce57505050610b6b5f80516020610d068339815191529697610cec565b1690826bffffffffffffffffffffffff60a01b8381600254161760025560035416176003554290557fbe373ec085c6b0c7d8170b85a932cee817c77c259c2fe969f9867170ef1c403160208451428152a360ff600154166106a182518092610ccb565b878987938c936106f3576106e05750516368c187fb60e11b815260ff9384169281019283529216602082015281906040010390fd5b9050610c145760058a141582610b4b565b634e487b7160e01b895260218652602489fd5b5088915060038a1415610b44565b858a898b86946106e05750516368c187fb60e11b815260ff9384169281019283529216602082015281906040010390fd5b9050610c14578583141581610b34565b5050876002831415610b2d565b6377afbad160e11b8252338683019081526001600160a01b03909116602082015281906040010390fd5b8780fd5b602435906001600160a01b0382168203610cc757565b5f80fd5b906009821015610cd85752565b634e487b7160e01b5f52602160045260245ffd5b6009811015610cd85760ff80196001541691161760015556fe40a180796b90921dd8508eb434c78206ca5c737a0d584582edf399bc9711d9e9a2646970667358221220b2503b4f0b35703d2489cb53e8e86c093848c3559a719462ef59ce9de6d4060164736f6c63430008140033",
  "immutableReferences": {
    "1828": [
      {
        "length": 32,
        "start": 2055
      }
    ],
    "1830": [
      {
        "length": 32,
        "start": 841
      },
      {
        "length": 32,
        "start": 1157
      },
      {
        "length": 32,
        "start": 1425
      },
      {
        "length": 32,
        "start": 2133
      },
      {
        "length": 32,
        "start": 2793
      }
    ],
    "1832": [
      {
        "length": 32,
        "start": 394
      },
      {
        "length": 32,
        "start": 1337
      }
    ],
    "1834": [
      {
        "length": 32,
        "start": 431
      },
      {
        "length": 32,
        "start": 2562
      }
    ],
    "1839": [
      {
        "length": 32,
        "start": 497
      },
      {
        "length": 32,
        "start": 1266
      }
    ],
    "1841": [
      {
        "length": 32,
        "start": 536
      },
      {
        "length": 32,
        "start": 747
      }
    ],
    "1843": [
      {
        "length": 32,
        "start": 574
      },
      {
        "length": 32,
        "start": 1999
      }
    ]
  },
  "source": "// SPDX-License-Identifier: MIT\r\npragma solidity ^0.8.20;\r\n\r\nimport { Errors } from \"../libraries/Errors.sol\";\r\n\r\n/**\r\n * @title Medicine (Simplified Batch Contract)\r\n * @dev Data container for medicine batches. State managed strictly by SupplyChainLogic via delegatecall.\r\n */\r\ncontract Medicine {\r\n    // --- Types ---\r\n    // Public enum accessible via Medicine.Status\r\n    enum Status { Created, InTransitToW, AtWholesaler, InTransitToD, AtDistributor, InTransitToC, AtCustomer, ConsumedOrSold, Destroyed } // uint8\r\n\r\n    // --- State ---\r\n    address public immutable batchId;\r\n    address public immutable supplyChainContract; // Authorized state modifier (SupplyChainProxy address)\r\n    bytes32 public immutable description;\r\n    uint public immutable quantity;\r\n    address[] public rawMaterialBatchIds;\r\n    address public immutable manufacturer;\r\n    uint public immutable creationTime;\r\n    uint public immutable expiryDate;\r\n\r\n    Status public status; // public getter\r\n    address public currentOwner;\r\n    address public currentTransporter;\r\n    address public currentDestination;\r\n    uint public lastUpdateTime;\r\n\r\n    // --- Events ---\r\n    event StatusChanged(Status newStatus, uint timestamp);\r\n    event OwnershipTransferred(address indexed from, address indexed to, uint timestamp);\r\n    event TransporterAssigned(address indexed transporter, address indexed destination, uint timestamp);\r\n    event BatchDestroyed(bytes32 reasonCode, uint timestamp); // Use bytes32 for reason\r\n    event BatchFinalized(uint timestamp);\r\n\r\n    // --- Modifiers ---\r\n    modifier onlySupplyChain() {\r\n        if (msg.sender != supplyChainContract) {\r\n            revert Errors.Batch_UnauthorizedCaller(msg.sender, supplyChainContract);\r\n        }\r\n        _;\r\n    }\r\n\r\n    // --- Constructor ---\r\n    constructor(\r\n        address _supplyChainContract, // Address of the SupplyChainProxy\r\n        bytes32 _description,\r\n        uint _quantity,\r\n        address[] memory _rawMaterialBatchIds, // SC validates non-empty\r\n        address _manufacturer, // SC validates non-zero\r\n        uint _expiryDate // SC validates future date\r\n    ) {\r\n        if (_supplyChainContract == address(0)) revert Errors.AccessControlZeroAddress();\r\n        // quantity > 0 check done by SC\r\n\r\n        batchId = address(this);\r\n        supplyChainContract = _supplyChainContract;\r\n        description = _description;\r\n        quantity = _quantity;\r\n        rawMaterialBatchIds = _rawMaterialBatchIds;\r\n        manufacturer = _manufacturer;\r\n        expiryDate = _expiryDate;\r\n        creationTime = block.timestamp;\r\n\r\n        status = Status.Created;\r\n        currentOwner = _manufacturer; // Initial owner\r\n        lastUpdateTime = block.timestamp;\r\n\r\n        emit StatusChanged(status, lastUpdateTime);\r\n        emit OwnershipTransferred(address(0), currentOwner, lastUpdateTime);\r\n    }\r\n\r\n    // --- State Transitions (ONLY callable by SupplyChain contract proxy) ---\r\n\r\n    /**\r\n     * @dev Sets the batch status to an InTransit state.\r\n     * @notice Relies on SC to provide valid next status, transporter, destination and ensure valid start state.\r\n     */\r\n    function setInTransit(Status _nextStatus, address _transporter, address _destination) external onlySupplyChain {\r\n        // Basic state check (must be in a 'resting' state like Created, AtWholesaler, AtDistributor)\r\n        if (status != Status.Created && status != Status.AtWholesaler && status != Status.AtDistributor) {\r\n            // Use a more specific error indicating an invalid starting state for transit\r\n            revert Errors.Med_InvalidStateTransition(uint8(status), uint8(_nextStatus));\r\n        }\r\n        // Minimal check: ensure _nextStatus is actually an InTransit status for safety. Could be removed if SC guarantees it.\r\n        if (_nextStatus != Status.InTransitToW && _nextStatus != Status.InTransitToD && _nextStatus != Status.InTransitToC) {\r\n            revert Errors.Med_InvalidStateTransition(uint8(status), uint8(_nextStatus)); // Invalid target state for this function\r\n        }\r\n        // Assume SC validated the specific transition logic (e.g., Created -> InTransitToW is valid)\r\n\r\n        status = _nextStatus;\r\n        currentTransporter = _transporter;\r\n        currentDestination = _destination;\r\n        lastUpdateTime = block.timestamp;\r\n        emit TransporterAssigned(_transporter, _destination, lastUpdateTime);\r\n        emit StatusChanged(status, lastUpdateTime);\r\n    }\r\n\r\n    /**\r\n     * @dev Sets the batch status upon confirmed receipt.\r\n     * @notice Relies on SC to provide valid next status, ensure receiver matches destination, and ensure valid start state.\r\n     */\r\n    function setReceived(Status _nextStatus, address _receiver) external onlySupplyChain {\r\n        // Basic state check (must be in a 'transit' state)\r\n        if (status != Status.InTransitToW && status != Status.InTransitToD && status != Status.InTransitToC) {\r\n             revert Errors.Med_InvalidStateTransition(uint8(status), uint8(_nextStatus)); // Invalid start state for receiving\r\n        }\r\n         // Minimal check: ensure _nextStatus is actually an \"At\" status. Could be removed if SC guarantees it.\r\n        if (_nextStatus != Status.AtWholesaler && _nextStatus != Status.AtDistributor && _nextStatus != Status.AtCustomer) {\r\n            revert Errors.Med_InvalidStateTransition(uint8(status), uint8(_nextStatus)); // Invalid target state for this function\r\n        }\r\n        // Assume SC validated the specific transition logic (e.g., InTransitToW -> AtWholesaler is valid)\r\n        // Assume SC validated receiver == currentDestination\r\n\r\n        address previousOwner = currentOwner;\r\n        status = _nextStatus;\r\n        currentOwner = _receiver; // Ownership transfers\r\n        currentTransporter = address(0);\r\n        currentDestination = address(0);\r\n        lastUpdateTime = block.timestamp;\r\n\r\n        emit OwnershipTransferred(previousOwner, currentOwner, lastUpdateTime);\r\n        emit StatusChanged(status, lastUpdateTime);\r\n    }\r\n\r\n    /**\r\n     * @dev Sets the final ConsumedOrSold status. Requires AtCustomer state.\r\n     */\r\n    function setConsumedOrSold() external onlySupplyChain {\r\n        if (status != Status.AtCustomer) {\r\n            // Use Batch_InvalidStateForAction as it's a general requirement check\r\n            revert Errors.Batch_InvalidStateForAction(uint8(status), uint8(Status.AtCustomer));\r\n        }\r\n        status = Status.ConsumedOrSold;\r\n        lastUpdateTime = block.timestamp;\r\n        emit BatchFinalized(lastUpdateTime);\r\n        emit StatusChanged(status, lastUpdateTime);\r\n    }\r\n\r\n    /**\r\n     * @dev Sets the Destroyed status. Cannot be called if already destroyed or consumed/sold.\r\n     */\r\n    function setDestroyed(bytes32 _reasonCode) external onlySupplyChain {\r\n        if (status == Status.Destroyed || status == Status.ConsumedOrSold) {\r\n            revert Errors.Med_AlreadyDestroyedOrFinalized();\r\n        }\r\n\r\n        address previousOwner = currentOwner;\r\n        status = Status.Destroyed;\r\n        currentOwner = address(0); // No owner\r\n        currentTransporter = address(0);\r\n        currentDestination = address(0);\r\n        lastUpdateTime = block.timestamp;\r\n\r\n        emit BatchDestroyed(_reasonCode, lastUpdateTime);\r\n        if (previousOwner != address(0)) {\r\n            emit OwnershipTransferred(previousOwner, address(0), lastUpdateTime);\r\n        }\r\n        emit StatusChanged(status, lastUpdateTime);\r\n    }\r\n\r\n    // --- View Function ---\r\n    // Called by SupplyChainLogic's internal view function\r\n    function getDetails() external view returns (\r\n        bytes32 _description, uint _quantity, address[] memory _rawMaterialBatchIds,\r\n        address _manufacturer, uint _creationTime, uint _expiryDate, Status _status,\r\n        address _currentOwner, address _currentTransporter, address _currentDestination,\r\n        uint _lastUpdateTime\r\n    ) {\r\n        return (\r\n            description, quantity, rawMaterialBatchIds, manufacturer, creationTime,\r\n            expiryDate, status, currentOwner, currentTransporter, currentDestination,\r\n            lastUpdateTime\r\n        );\r\n    }\r\n}",
  "sourcePath": "C:\\Users\\rabra\\OneDrive\\Desktop\\new drug auth\\contracts\\batches\\Medicine.sol",
  "compiler": {
    "name": "solc",
    "version": "0.8.20+commit.a1b79de6.Emscripten.clang"
  },
  "schemaVersion": "3.4.16",
  "updatedAt": "2025-04-30T05:18:42.145Z",
  "devdoc": {
    "details": "Data container for medicine batches. State managed strictly by SupplyChainLogic via delegatecall.",
    "kind": "dev",
    "methods": {
      "setConsumedOrSold()": {
        "details": "Sets the final ConsumedOrSold status. Requires AtCustomer state."
      },
      "setDestroyed(bytes32)": {
        "details": "Sets the Destroyed status. Cannot be called if already destroyed or consumed/sold."
      },
      "setInTransit(uint8,address,address)": {
        "details": "Sets the batch status to an InTransit state."
      },
      "setReceived(uint8,address)": {
        "details": "Sets the batch status upon confirmed receipt."
      }
    },
    "title": "Medicine (Simplified Batch Contract)",
    "version": 1
  },
  "userdoc": {
    "kind": "user",
    "methods": {
      "setInTransit(uint8,address,address)": {
        "notice": "Relies on SC to provide valid next status, transporter, destination and ensure valid start state."
      },
      "setReceived(uint8,address)": {
        "notice": "Relies on SC to provide valid next status, ensure receiver matches destination, and ensure valid start state."
      }
    },
    "version": 1
  }
}