{
  "contractName": "RawMaterial",
  "abi": [
    {
      "inputs": [
        {
          "internalType": "address",
          "name": "_supplyChainContract",
          "type": "address"
        },
        {
          "internalType": "bytes32",
          "name": "_description",
          "type": "bytes32"
        },
        {
          "internalType": "uint256",
          "name": "_quantity",
          "type": "uint256"
        },
        {
          "internalType": "address",
          "name": "_supplier",
          "type": "address"
        },
        {
          "internalType": "address",
          "name": "_intendedManufacturer",
          "type": "address"
        }
      ],
      "stateMutability": "nonpayable",
      "type": "constructor"
    },
    {
      "inputs": [],
      "name": "AccessControlZeroAddress",
      "type": "error"
    },
    {
      "inputs": [],
      "name": "Batch_AlreadyDestroyed",
      "type": "error"
    },
    {
      "inputs": [
        {
          "internalType": "uint8",
          "name": "current",
          "type": "uint8"
        },
        {
          "internalType": "uint8",
          "name": "required",
          "type": "uint8"
        }
      ],
      "name": "Batch_InvalidStateForAction",
      "type": "error"
    },
    {
      "inputs": [
        {
          "internalType": "address",
          "name": "caller",
          "type": "address"
        },
        {
          "internalType": "address",
          "name": "expected",
          "type": "address"
        }
      ],
      "name": "Batch_UnauthorizedCaller",
      "type": "error"
    },
    {
      "anonymous": false,
      "inputs": [
        {
          "indexed": false,
          "internalType": "bytes32",
          "name": "reasonCode",
          "type": "bytes32"
        },
        {
          "indexed": false,
          "internalType": "uint256",
          "name": "timestamp",
          "type": "uint256"
        }
      ],
      "name": "BatchDestroyed",
      "type": "event"
    },
    {
      "anonymous": false,
      "inputs": [
        {
          "indexed": false,
          "internalType": "enum RawMaterial.Status",
          "name": "newStatus",
          "type": "uint8"
        },
        {
          "indexed": false,
          "internalType": "uint256",
          "name": "timestamp",
          "type": "uint256"
        }
      ],
      "name": "StatusChanged",
      "type": "event"
    },
    {
      "anonymous": false,
      "inputs": [
        {
          "indexed": true,
          "internalType": "address",
          "name": "transporter",
          "type": "address"
        },
        {
          "indexed": false,
          "internalType": "uint256",
          "name": "timestamp",
          "type": "uint256"
        }
      ],
      "name": "TransporterAssigned",
      "type": "event"
    },
    {
      "inputs": [],
      "name": "batchId",
      "outputs": [
        {
          "internalType": "address",
          "name": "",
          "type": "address"
        }
      ],
      "stateMutability": "view",
      "type": "function"
    },
    {
      "inputs": [],
      "name": "creationTime",
      "outputs": [
        {
          "internalType": "uint256",
          "name": "",
          "type": "uint256"
        }
      ],
      "stateMutability": "view",
      "type": "function"
    },
    {
      "inputs": [],
      "name": "currentTransporter",
      "outputs": [
        {
          "internalType": "address",
          "name": "",
          "type": "address"
        }
      ],
      "stateMutability": "view",
      "type": "function"
    },
    {
      "inputs": [],
      "name": "description",
      "outputs": [
        {
          "internalType": "bytes32",
          "name": "",
          "type": "bytes32"
        }
      ],
      "stateMutability": "view",
      "type": "function"
    },
    {
      "inputs": [],
      "name": "intendedManufacturer",
      "outputs": [
        {
          "internalType": "address",
          "name": "",
          "type": "address"
        }
      ],
      "stateMutability": "view",
      "type": "function"
    },
    {
      "inputs": [],
      "name": "lastUpdateTime",
      "outputs": [
        {
          "internalType": "uint256",
          "name": "",
          "type": "uint256"
        }
      ],
      "stateMutability": "view",
      "type": "function"
    },
    {
      "inputs": [],
      "name": "quantity",
      "outputs": [
        {
          "internalType": "uint256",
          "name": "",
          "type": "uint256"
        }
      ],
      "stateMutability": "view",
      "type": "function"
    },
    {
      "inputs": [],
      "name": "status",
      "outputs": [
        {
          "internalType": "enum RawMaterial.Status",
          "name": "",
          "type": "uint8"
        }
      ],
      "stateMutability": "view",
      "type": "function"
    },
    {
      "inputs": [],
      "name": "supplier",
      "outputs": [
        {
          "internalType": "address",
          "name": "",
          "type": "address"
        }
      ],
      "stateMutability": "view",
      "type": "function"
    },
    {
      "inputs": [],
      "name": "supplyChainContract",
      "outputs": [
        {
          "internalType": "address",
          "name": "",
          "type": "address"
        }
      ],
      "stateMutability": "view",
      "type": "function"
    },
    {
      "inputs": [
        {
          "internalType": "address",
          "name": "_transporter",
          "type": "address"
        }
      ],
      "name": "setInTransit",
      "outputs": [],
      "stateMutability": "nonpayable",
      "type": "function"
    },
    {
      "inputs": [],
      "name": "setReceived",
      "outputs": [],
      "stateMutability": "nonpayable",
      "type": "function"
    },
    {
      "inputs": [
        {
          "internalType": "bytes32",
          "name": "_reasonCode",
          "type": "bytes32"
        }
      ],
      "name": "setDestroyed",
      "outputs": [],
      "stateMutability": "nonpayable",
      "type": "function"
    },
    {
      "inputs": [],
      "name": "getDetails",
      "outputs": [
        {
          "internalType": "bytes32",
          "name": "_description",
          "type": "bytes32"
        },
        {
          "internalType": "uint256",
          "name": "_quantity",
          "type": "uint256"
        },
        {
          "internalType": "address",
          "name": "_supplier",
          "type": "address"
        },
        {
          "internalType": "address",
          "name": "_intendedManufacturer",
          "type": "address"
        },
        {
          "internalType": "uint256",
          "name": "_creationTime",
          "type": "uint256"
        },
        {
          "internalType": "enum RawMaterial.Status",
          "name": "_status",
          "type": "uint8"
        },
        {
          "internalType": "address",
          "name": "_currentTransporter",
          "type": "address"
        },
        {
          "internalType": "uint256",
          "name": "_lastUpdateTime",
          "type": "uint256"
        }
      ],
      "stateMutability": "view",
      "type": "function"
    }
  ],
  "bytecode": "0x6101603461018757601f61094f38819003918201601f1916830191906001600160401b0383118484101761018b578160a092859260409586528339810103126101875761004b8261019f565b906020830151818401519061006e60806100676060880161019f565b960161019f565b936001600160a01b0380821615610176578087161561017657851615610165573060805260a05260c05260e0526101009283526101209182526101409042825260ff195f54165f55426001557f40a180796b90921dd8508eb434c78206ca5c737a0d584582edf399bc9711d9e98180515f8152426020820152a1519161079b93846101b4853960805184610534015260a0518481816101f001528181610382015281816103f10152610578015260c05184818160d501526104fc015260e05184818160f8015261072101525183818161012601526106b40152518281816101500152610670015251818181610178015261032b0152f35b83516332cdae1b60e01b8152600490fd5b84516332cdae1b60e01b8152600490fd5b5f80fd5b634e487b7160e01b5f52604160045260245ffd5b51906001600160a01b03821682036101875756fe6080604081815260049182361015610015575f80fd5b5f92833560e01c91826317fc45e21461070a57508163200d2ed2146106e357816336da44681461069f5781633cec47861461065b5781633ff08b05146105635781634972134a1461051f5781637284e416146104e457816372b30cc0146103dd57816375422d45146103b1578163a269cc7a1461036d578163c8f33c911461034e578163d8270dce14610313578163f356e93f146101c6575063fbbf93a0146100bc575f80fd5b346101c257816003193601126101c257905460015482517f000000000000000000000000000000000000000000000000000000000000000081527f000000000000000000000000000000000000000000000000000000000000000060208201526001600160a01b037f00000000000000000000000000000000000000000000000000000000000000008116948201949094527f0000000000000000000000000000000000000000000000000000000000000000841660608201527f000000000000000000000000000000000000000000000000000000000000000060808201526101009390926101b260a0850160ff8316610744565b60081c1660c083015260e0820152f35b5080fd5b8383346101c25760203660031901126101c2576001600160a01b0383358181169182820361030f577f000000000000000000000000000000000000000000000000000000000000000090811633036102e2575083549460ff8616818110156102cf57806102b45750507f40a180796b90921dd8508eb434c78206ca5c737a0d584582edf399bc9711d9e993946001916101008360a81b039060081b16906affffffffffffffffffffff60a81b1617178455426001557f49072639b22410ad80b7e5968b8b4fc20b3aefc410e681b79a1db7cb0b7ce33660208351428152a2805160018152426020820152a180f35b845162f4e13b60e71b81529182015260248101859052604490fd5b634e487b7160e01b865260218252602486fd5b83516377afbad160e11b8152338188019081526001600160a01b0390921660208301529081906040010390fd5b8480fd5b5050346101c257816003193601126101c257602090517f00000000000000000000000000000000000000000000000000000000000000008152f35b5050346101c257816003193601126101c2576020906001549051908152f35b5050346101c257816003193601126101c257517f00000000000000000000000000000000000000000000000000000000000000006001600160a01b03168152602090f35b5050346101c257816003193601126101c2579054905160089190911c6001600160a01b03168152602090f35b9050346104e057826003193601126104e0577f00000000000000000000000000000000000000000000000000000000000000006001600160a01b03811633036104b4575082549060ff8216818110156104a1576001810361048557847f40a180796b90921dd8508eb434c78206ca5c737a0d584582edf399bc9711d9e9856002866affffffffffffffffffffff60a81b1617835542600155805160028152426020820152a180f35b835162f4e13b60e71b8152918201526001602482015260449150fd5b634e487b7160e01b855260218252602485fd5b91516377afbad160e11b8152339181019182526001600160a01b03909216602082015281906040010390fd5b8280fd5b5050346101c257816003193601126101c257602090517f00000000000000000000000000000000000000000000000000000000000000008152f35b5050346101c257816003193601126101c257517f00000000000000000000000000000000000000000000000000000000000000006001600160a01b03168152602090f35b9050346104e05760203660031901126104e0577f00000000000000000000000000000000000000000000000000000000000000006001600160a01b03811633036104b45750825460ff8116828110156106485760031461063957827f40a180796b90921dd8508eb434c78206ca5c737a0d584582edf399bc9711d9e9939260037f3e6f997c58cb1412e97320e1a9863980eb67e8223fab083f2e77b8afb8c8c460936affffffffffffffffffffff60a81b1617865542600155815190358152426020820152a1805160038152426020820152a180f35b50905163af0622c560e01b8152fd5b634e487b7160e01b855260218352602485fd5b5050346101c257816003193601126101c257517f00000000000000000000000000000000000000000000000000000000000000006001600160a01b03168152602090f35b5050346101c257816003193601126101c257517f00000000000000000000000000000000000000000000000000000000000000006001600160a01b03168152602090f35b5050346101c257816003193601126101c25761070860ff602093541691518092610744565bf35b8490346101c257816003193601126101c2576020907f00000000000000000000000000000000000000000000000000000000000000008152f35b9060048210156107515752565b634e487b7160e01b5f52602160045260245ffdfea264697066735822122006f78bf11fb8e3c80c809a1e75e8756d685f16dff70feb2d545ac0eed497853764736f6c63430008140033",
  "immutableReferences": {
    "2397": [
      {
        "length": 32,
        "start": 1332
      }
    ],
    "2399": [
      {
        "length": 32,
        "start": 496
      },
      {
        "length": 32,
        "start": 898
      },
      {
        "length": 32,
        "start": 1009
      },
      {
        "length": 32,
        "start": 1400
      }
    ],
    "2401": [
      {
        "length": 32,
        "start": 213
      },
      {
        "length": 32,
        "start": 1276
      }
    ],
    "2403": [
      {
        "length": 32,
        "start": 248
      },
      {
        "length": 32,
        "start": 1825
      }
    ],
    "2405": [
      {
        "length": 32,
        "start": 294
      },
      {
        "length": 32,
        "start": 1716
      }
    ],
    "2407": [
      {
        "length": 32,
        "start": 336
      },
      {
        "length": 32,
        "start": 1648
      }
    ],
    "2409": [
      {
        "length": 32,
        "start": 376
      },
      {
        "length": 32,
        "start": 811
      }
    ]
  },
  "source": "// SPDX-License-Identifier: MIT\r\npragma solidity ^0.8.20;\r\n\r\nimport { Errors } from \"../libraries/Errors.sol\";\r\n\r\n/**\r\n * @title RawMaterial (Simplified Batch Contract)\r\n * @dev Data container for raw materials. State managed strictly by SupplyChainLogic via delegatecall.\r\n */\r\ncontract RawMaterial {\r\n    // --- Types ---\r\n    // Public enum accessible via RawMaterial.Status\r\n    enum Status { Created, InTransit, Received, Destroyed } // uint8 underlying\r\n\r\n    // --- State ---\r\n    // Immutable state set at creation by SupplyChainLogic\r\n    address public immutable batchId; // address(this)\r\n    address public immutable supplyChainContract; // Authorized state modifier (SupplyChainProxy address)\r\n    bytes32 public immutable description;\r\n    uint public immutable quantity;\r\n    address public immutable supplier;\r\n    address public immutable intendedManufacturer;\r\n    uint public immutable creationTime;\r\n\r\n    // Dynamic State - Modified only via onlySupplyChain functions\r\n    Status public status; // public getter created automatically\r\n    address public currentTransporter;\r\n    uint public lastUpdateTime;\r\n\r\n    // --- Events ---\r\n    event StatusChanged(Status newStatus, uint timestamp);\r\n    event TransporterAssigned(address indexed transporter, uint timestamp);\r\n    event BatchDestroyed(bytes32 reasonCode, uint timestamp); // Use bytes32 for reason\r\n\r\n    // --- Modifiers ---\r\n    modifier onlySupplyChain() {\r\n        // Ensures only the designated SupplyChain contract (proxy) can call state-changing functions\r\n        if (msg.sender != supplyChainContract) {\r\n            revert Errors.Batch_UnauthorizedCaller(msg.sender, supplyChainContract);\r\n        }\r\n        _;\r\n    }\r\n\r\n    // --- Constructor ---\r\n    // Called by SupplyChainLogic during its createRawMaterial function\r\n    constructor(\r\n        address _supplyChainContract, // Address of the SupplyChainProxy\r\n        bytes32 _description,\r\n        uint _quantity,\r\n        address _supplier,\r\n        address _intendedManufacturer\r\n    ) {\r\n        // Basic non-zero checks (SupplyChainLogic performs role/business logic checks)\r\n        if (_supplyChainContract == address(0)) revert Errors.AccessControlZeroAddress(); // Use generic error\r\n        if (_supplier == address(0)) revert Errors.AccessControlZeroAddress();\r\n        if (_intendedManufacturer == address(0)) revert Errors.AccessControlZeroAddress();\r\n        // quantity > 0 check done by SupplyChainLogic\r\n\r\n        batchId = address(this);\r\n        supplyChainContract = _supplyChainContract;\r\n        description = _description;\r\n        quantity = _quantity;\r\n        supplier = _supplier;\r\n        intendedManufacturer = _intendedManufacturer;\r\n        creationTime = block.timestamp;\r\n\r\n        status = Status.Created;\r\n        lastUpdateTime = block.timestamp;\r\n        emit StatusChanged(status, lastUpdateTime);\r\n    }\r\n\r\n    // --- State Transitions (ONLY callable by SupplyChain contract proxy) ---\r\n\r\n    /**\r\n     * @dev Sets status to InTransit. Requires Created state.\r\n     * @notice Relies on SupplyChainLogic to provide a valid, non-zero transporter.\r\n     */\r\n    function setInTransit(address _transporter) external onlySupplyChain {\r\n        if (status != Status.Created) {\r\n            revert Errors.Batch_InvalidStateForAction(uint8(status), uint8(Status.Created));\r\n        }\r\n        // Assume SC validated _transporter is not zero address\r\n        status = Status.InTransit;\r\n        currentTransporter = _transporter;\r\n        lastUpdateTime = block.timestamp;\r\n        emit TransporterAssigned(_transporter, lastUpdateTime);\r\n        emit StatusChanged(status, lastUpdateTime);\r\n    }\r\n\r\n    /**\r\n     * @dev Sets status to Received. Requires InTransit state.\r\n     * @notice Relies on SupplyChainLogic to ensure the caller (_receiver) matches intendedManufacturer.\r\n     */\r\n    function setReceived() external onlySupplyChain {\r\n        if (status != Status.InTransit) {\r\n            revert Errors.Batch_InvalidStateForAction(uint8(status), uint8(Status.InTransit));\r\n        }\r\n        // Assume SC validated receiver == intendedManufacturer\r\n        status = Status.Received;\r\n        currentTransporter = address(0);\r\n        lastUpdateTime = block.timestamp;\r\n        emit StatusChanged(status, lastUpdateTime);\r\n    }\r\n\r\n    /**\r\n     * @dev Sets status to Destroyed. Can be called unless already destroyed.\r\n     */\r\n    function setDestroyed(bytes32 _reasonCode) external onlySupplyChain {\r\n        if (status == Status.Destroyed) {\r\n            revert Errors.Batch_AlreadyDestroyed();\r\n        }\r\n        status = Status.Destroyed;\r\n        currentTransporter = address(0);\r\n        lastUpdateTime = block.timestamp;\r\n        emit BatchDestroyed(_reasonCode, lastUpdateTime);\r\n        emit StatusChanged(status, lastUpdateTime);\r\n    }\r\n\r\n    // --- View Function ---\r\n    // Called by SupplyChainLogic's internal view function\r\n    function getDetails() external view returns (\r\n        bytes32 _description, uint _quantity, address _supplier, address _intendedManufacturer,\r\n        uint _creationTime, Status _status, address _currentTransporter, uint _lastUpdateTime\r\n    ) {\r\n        return (\r\n            description, quantity, supplier, intendedManufacturer,\r\n            creationTime, status, currentTransporter, lastUpdateTime\r\n        );\r\n    }\r\n}",
  "sourcePath": "C:\\Users\\rabra\\OneDrive\\Desktop\\new drug auth\\contracts\\batches\\RawMaterial.sol",
  "compiler": {
    "name": "solc",
    "version": "0.8.20+commit.a1b79de6.Emscripten.clang"
  },
  "schemaVersion": "3.4.16",
  "updatedAt": "2025-04-30T05:18:42.152Z",
  "devdoc": {
    "details": "Data container for raw materials. State managed strictly by SupplyChainLogic via delegatecall.",
    "kind": "dev",
    "methods": {
      "setDestroyed(bytes32)": {
        "details": "Sets status to Destroyed. Can be called unless already destroyed."
      },
      "setInTransit(address)": {
        "details": "Sets status to InTransit. Requires Created state."
      },
      "setReceived()": {
        "details": "Sets status to Received. Requires InTransit state."
      }
    },
    "title": "RawMaterial (Simplified Batch Contract)",
    "version": 1
  },
  "userdoc": {
    "kind": "user",
    "methods": {
      "setInTransit(address)": {
        "notice": "Relies on SupplyChainLogic to provide a valid, non-zero transporter."
      },
      "setReceived()": {
        "notice": "Relies on SupplyChainLogic to ensure the caller (_receiver) matches intendedManufacturer."
      }
    },
    "version": 1
  }
}