{
  "contractName": "SupplyChainProxy",
  "abi": [
    {
      "inputs": [
        {
          "internalType": "address",
          "name": "logicAddress_",
          "type": "address"
        }
      ],
      "stateMutability": "nonpayable",
      "type": "constructor"
    },
    {
      "anonymous": false,
      "inputs": [
        {
          "indexed": true,
          "internalType": "address",
          "name": "logicAddress",
          "type": "address"
        },
        {
          "indexed": true,
          "internalType": "address",
          "name": "initialOwner",
          "type": "address"
        }
      ],
      "name": "ProxyInitialized",
      "type": "event"
    },
    {
      "stateMutability": "payable",
      "type": "fallback",
      "payable": true
    },
    {
      "inputs": [],
      "name": "logicContractAddress",
      "outputs": [
        {
          "internalType": "address",
          "name": "",
          "type": "address"
        }
      ],
      "stateMutability": "view",
      "type": "function",
      "constant": true
    },
    {
      "inputs": [],
      "name": "owner",
      "outputs": [
        {
          "internalType": "address",
          "name": "",
          "type": "address"
        }
      ],
      "stateMutability": "view",
      "type": "function",
      "constant": true
    },
    {
      "stateMutability": "payable",
      "type": "receive",
      "payable": true
    },
    {
      "inputs": [
        {
          "internalType": "bytes32",
          "name": "description_",
          "type": "bytes32"
        },
        {
          "internalType": "uint256",
          "name": "quantity_",
          "type": "uint256"
        },
        {
          "internalType": "address",
          "name": "intendedManufacturer_",
          "type": "address"
        },
        {
          "internalType": "int256",
          "name": "latitude_",
          "type": "int256"
        },
        {
          "internalType": "int256",
          "name": "longitude_",
          "type": "int256"
        }
      ],
      "name": "createRawMaterial",
      "outputs": [
        {
          "internalType": "address",
          "name": "batchAddress_",
          "type": "address"
        }
      ],
      "stateMutability": "nonpayable",
      "type": "function"
    },
    {
      "inputs": [
        {
          "internalType": "bytes32",
          "name": "description_",
          "type": "bytes32"
        },
        {
          "internalType": "uint256",
          "name": "quantity_",
          "type": "uint256"
        },
        {
          "internalType": "address[]",
          "name": "rawMaterialBatchIds_",
          "type": "address[]"
        },
        {
          "internalType": "uint256",
          "name": "expiryDate_",
          "type": "uint256"
        },
        {
          "internalType": "int256",
          "name": "latitude_",
          "type": "int256"
        },
        {
          "internalType": "int256",
          "name": "longitude_",
          "type": "int256"
        }
      ],
      "name": "createMedicine",
      "outputs": [
        {
          "internalType": "address",
          "name": "batchAddress_",
          "type": "address"
        }
      ],
      "stateMutability": "nonpayable",
      "type": "function"
    },
    {
      "inputs": [
        {
          "internalType": "address",
          "name": "batchAddress_",
          "type": "address"
        },
        {
          "internalType": "address",
          "name": "transporter_",
          "type": "address"
        },
        {
          "internalType": "address",
          "name": "receiver_",
          "type": "address"
        },
        {
          "internalType": "int256",
          "name": "latitude_",
          "type": "int256"
        },
        {
          "internalType": "int256",
          "name": "longitude_",
          "type": "int256"
        }
      ],
      "name": "initiateTransfer",
      "outputs": [],
      "stateMutability": "nonpayable",
      "type": "function"
    },
    {
      "inputs": [
        {
          "internalType": "address",
          "name": "batchAddress_",
          "type": "address"
        },
        {
          "internalType": "int256",
          "name": "latitude_",
          "type": "int256"
        },
        {
          "internalType": "int256",
          "name": "longitude_",
          "type": "int256"
        }
      ],
      "name": "receivePackage",
      "outputs": [],
      "stateMutability": "nonpayable",
      "type": "function"
    },
    {
      "inputs": [
        {
          "internalType": "address",
          "name": "batchAddress_",
          "type": "address"
        },
        {
          "internalType": "int256",
          "name": "latitude_",
          "type": "int256"
        },
        {
          "internalType": "int256",
          "name": "longitude_",
          "type": "int256"
        }
      ],
      "name": "finalizeMedicineBatch",
      "outputs": [],
      "stateMutability": "nonpayable",
      "type": "function"
    },
    {
      "inputs": [
        {
          "internalType": "address",
          "name": "batchAddress_",
          "type": "address"
        },
        {
          "internalType": "bytes32",
          "name": "reasonCode_",
          "type": "bytes32"
        },
        {
          "internalType": "int256",
          "name": "latitude_",
          "type": "int256"
        },
        {
          "internalType": "int256",
          "name": "longitude_",
          "type": "int256"
        }
      ],
      "name": "markBatchDestroyed",
      "outputs": [],
      "stateMutability": "nonpayable",
      "type": "function"
    },
    {
      "inputs": [
        {
          "internalType": "bytes32",
          "name": "role_",
          "type": "bytes32"
        },
        {
          "internalType": "address",
          "name": "account_",
          "type": "address"
        }
      ],
      "name": "grantRole",
      "outputs": [],
      "stateMutability": "nonpayable",
      "type": "function"
    },
    {
      "inputs": [
        {
          "internalType": "bytes32",
          "name": "role_",
          "type": "bytes32"
        },
        {
          "internalType": "address",
          "name": "account_",
          "type": "address"
        }
      ],
      "name": "revokeRole",
      "outputs": [],
      "stateMutability": "nonpayable",
      "type": "function"
    },
    {
      "inputs": [
        {
          "internalType": "bytes32",
          "name": "role_",
          "type": "bytes32"
        },
        {
          "internalType": "bytes32",
          "name": "adminRole_",
          "type": "bytes32"
        }
      ],
      "name": "setRoleAdmin",
      "outputs": [],
      "stateMutability": "nonpayable",
      "type": "function"
    },
    {
      "inputs": [
        {
          "internalType": "address",
          "name": "newOwner_",
          "type": "address"
        }
      ],
      "name": "transferOwnership",
      "outputs": [],
      "stateMutability": "nonpayable",
      "type": "function"
    },
    {
      "inputs": [
        {
          "internalType": "bytes32",
          "name": "role_",
          "type": "bytes32"
        },
        {
          "internalType": "address",
          "name": "account_",
          "type": "address"
        }
      ],
      "name": "hasRole",
      "outputs": [
        {
          "internalType": "bool",
          "name": "hasRole_",
          "type": "bool"
        }
      ],
      "stateMutability": "nonpayable",
      "type": "function"
    },
    {
      "inputs": [
        {
          "internalType": "bytes32",
          "name": "role_",
          "type": "bytes32"
        }
      ],
      "name": "getRoleAdmin",
      "outputs": [
        {
          "internalType": "bytes32",
          "name": "adminRole_",
          "type": "bytes32"
        }
      ],
      "stateMutability": "nonpayable",
      "type": "function"
    },
    {
      "inputs": [
        {
          "internalType": "address",
          "name": "batchAddress_",
          "type": "address"
        }
      ],
      "name": "batchType",
      "outputs": [
        {
          "internalType": "bytes32",
          "name": "typeHash_",
          "type": "bytes32"
        }
      ],
      "stateMutability": "nonpayable",
      "type": "function"
    },
    {
      "inputs": [
        {
          "internalType": "address",
          "name": "batchAddress_",
          "type": "address"
        }
      ],
      "name": "lastLogHashForBatch",
      "outputs": [
        {
          "internalType": "bytes32",
          "name": "lastHash_",
          "type": "bytes32"
        }
      ],
      "stateMutability": "nonpayable",
      "type": "function"
    },
    {
      "inputs": [
        {
          "internalType": "string",
          "name": "roleName_",
          "type": "string"
        }
      ],
      "name": "getRoleIdentifier",
      "outputs": [
        {
          "internalType": "bytes32",
          "name": "roleIdentifier_",
          "type": "bytes32"
        }
      ],
      "stateMutability": "view",
      "type": "function",
      "constant": true
    },
    {
      "inputs": [
        {
          "internalType": "address",
          "name": "batchAddress_",
          "type": "address"
        }
      ],
      "name": "getRawMaterialDetails",
      "outputs": [
        {
          "internalType": "bytes32",
          "name": "description",
          "type": "bytes32"
        },
        {
          "internalType": "uint256",
          "name": "quantity",
          "type": "uint256"
        },
        {
          "internalType": "address",
          "name": "supplier",
          "type": "address"
        },
        {
          "internalType": "address",
          "name": "intendedManufacturer",
          "type": "address"
        },
        {
          "internalType": "uint256",
          "name": "creationTime",
          "type": "uint256"
        },
        {
          "internalType": "enum RawMaterial.Status",
          "name": "status",
          "type": "uint8"
        },
        {
          "internalType": "address",
          "name": "currentTransporter",
          "type": "address"
        },
        {
          "internalType": "uint256",
          "name": "lastUpdateTime",
          "type": "uint256"
        }
      ],
      "stateMutability": "nonpayable",
      "type": "function"
    },
    {
      "inputs": [
        {
          "internalType": "address",
          "name": "batchAddress_",
          "type": "address"
        }
      ],
      "name": "getMedicineDetails",
      "outputs": [
        {
          "internalType": "bytes32",
          "name": "description",
          "type": "bytes32"
        },
        {
          "internalType": "uint256",
          "name": "quantity",
          "type": "uint256"
        },
        {
          "internalType": "address[]",
          "name": "rawMaterialBatchIds",
          "type": "address[]"
        },
        {
          "internalType": "address",
          "name": "manufacturer",
          "type": "address"
        },
        {
          "internalType": "uint256",
          "name": "creationTime",
          "type": "uint256"
        },
        {
          "internalType": "uint256",
          "name": "expiryDate",
          "type": "uint256"
        },
        {
          "internalType": "enum Medicine.Status",
          "name": "status",
          "type": "uint8"
        },
        {
          "internalType": "address",
          "name": "currentOwner",
          "type": "address"
        },
        {
          "internalType": "address",
          "name": "currentTransporter",
          "type": "address"
        },
        {
          "internalType": "address",
          "name": "currentDestination",
          "type": "address"
        },
        {
          "internalType": "uint256",
          "name": "lastUpdateTime",
          "type": "uint256"
        }
      ],
      "stateMutability": "nonpayable",
      "type": "function"
    },
    {
      "inputs": [
        {
          "internalType": "address",
          "name": "batchAddress_",
          "type": "address"
        }
      ],
      "name": "getTransactionHistory",
      "outputs": [
        {
          "components": [
            {
              "internalType": "uint256",
              "name": "index",
              "type": "uint256"
            },
            {
              "internalType": "address",
              "name": "actor",
              "type": "address"
            },
            {
              "internalType": "address",
              "name": "involvedParty",
              "type": "address"
            },
            {
              "internalType": "bytes32",
              "name": "eventCode",
              "type": "bytes32"
            },
            {
              "internalType": "int256",
              "name": "latitude",
              "type": "int256"
            },
            {
              "internalType": "int256",
              "name": "longitude",
              "type": "int256"
            },
            {
              "internalType": "uint256",
              "name": "timestamp",
              "type": "uint256"
            },
            {
              "internalType": "bytes32",
              "name": "dataHash",
              "type": "bytes32"
            },
            {
              "internalType": "bytes32",
              "name": "previousLogHash",
              "type": "bytes32"
            }
          ],
          "internalType": "struct SupplyChainLogic.TxnLog[]",
          "name": "history_",
          "type": "tuple[]"
        }
      ],
      "stateMutability": "nonpayable",
      "type": "function"
    },
    {
      "inputs": [
        {
          "internalType": "address",
          "name": "newLogic",
          "type": "address"
        }
      ],
      "name": "upgradeTo",
      "outputs": [],
      "stateMutability": "nonpayable",
      "type": "function"
    }
  ],
  "bytecode": "0x6080604052346200018f57602062001d5a80380380916200002082620001a7565b608039126200018f576080516001600160a01b0390818116908181036200018f5762000052620000749215156200024c565b600180546001600160a01b0319166001600160a01b0392909216919091179055565b60015460405163189acdbd60e31b60208201908152336024808401919091528252601f19925f9283926001600160a01b039092169190620000b760448262000228565b51915af490620000c662000299565b91156200014b57620000f383620000df845115620002db565b5f54166001600160a01b0316331462000328565b62000108336200010262000385565b620004bc565b6001546001600160a01b03166040519033907f1a07f1ddf833f80ab9a8965536315a0736c05a665c75c655ba0b57d9ae234ac25f80a36116e090816200067a8239f35b6040517f50726f78793a20496e697469616c697a652072657665727465640000000000006020820152603a9182018152919062000189908362000228565b62000661565b5f80fd5b634e487b7160e01b5f52604160045260245ffd5b6080601f91909101601f19168101906001600160401b03821190821017620001ce57604052565b62000193565b604081019081106001600160401b03821117620001ce57604052565b608081019081106001600160401b03821117620001ce57604052565b606081019081106001600160401b03821117620001ce57604052565b601f909101601f19168101906001600160401b03821190821017620001ce57604052565b156200025457565b60405162461bcd60e51b815260206004820152601c60248201527f50726f78793a204c6f6769632061646472657373206973207a65726f000000006044820152606490fd5b3d15620002d6573d906001600160401b038211620001ce5760405191620002cb601f8201601f19166020018462000228565b82523d5f602084013e565b606090565b15620002e357565b60405162461bcd60e51b815260206004820152601f60248201527f50726f78793a20496e697469616c697a652072657475726e65642064617461006044820152606490fd5b156200033057565b60405162461bcd60e51b815260206004820152601f60248201527f50726f78793a204f776e6572206d69736d6174636820706f73742d696e6974006044820152606490fd5b908160209103126200018f575190565b5f8060018060a01b03600154166040516020810190631d6c8e3f60e21b825260048152620003b381620001d4565b51915afa620003cd620003c562000299565b809262000591565b6020815103620003ef5780602080620003ec9351830101910162000375565b90565b60405162461bcd60e51b815260206004820152602660248201527f50726f78793a2041444d494e5f524f4c45206665746368206c656e67746820696044820152651b9d985b1a5960d21b6064820152608490fd5b908160209103126200018f575180151581036200018f5790565b156200046557565b60405162461bcd60e51b815260206004820152602960248201527f50726f78793a204465706c6f796572206c61636b7320696d706c696369742041604482015268444d494e5f524f4c4560b81b6064820152608490fd5b5f918291604051916020830191632474521560e21b8352602484015260018060a01b03809116604484015260448352620004f683620001f0565b600154169151915af4620005156200050d62000299565b8092620005f9565b6020815103620005405762000538816020806200053e9451830101910162000443565b6200045d565b565b60405162461bcd60e51b8152602060048201526024808201527f50726f78793a20686173526f6c652072657475726e206c656e67746820696e76604482015263185b1a5960e21b6064820152608490fd5b156200059a5750565b604051907f50726f78793a2053746174696363616c6c206661696c65643a0000000000000060208301527f75b238fcfe57c335a03dd53fc4e92497cb515c943e5b3bb6c303dd55b6a0204660398301526039825262000189826200020c565b15620006025750565b604051907f50726f78793a2053746174696363616c6c206661696c65643a0000000000000060208301527f91d1485424b278bc736d5d34907ed48280c7188845bc82b33370da2b4dc1194e60398301526039825262000661826200020c565b8051918215620006715750602001fd5b602081519101fdfe60806040526004361015610018575b366110cf576110cf565b5f3560e01c80631e4e009114610167578063248a9ca314610162578063252e57c31461015d5780632f2ff15d146101585780633659cfe6146101535780635a8df8731461014e57806372c4bfc21461014957806384a8b262146101445780638da5cb5b1461013f57806391d148541461013a578063b01339c314610135578063bccda81014610130578063c02f869f1461012b578063c35292c314610126578063c810ca2114610121578063cd05f6c81461011c578063d20cf0e814610117578063d547741f14610112578063eb7b82c91461010d578063f2fde38b146101085763fd840d460361000e57611079565b611029565b610f60565b610f08565b610d8d565b610ca1565b610c1c565b610bce565b610ac1565b610a4d565b6109bf565b610919565b6108f2565b61084d565b610784565b6105ee565b6103ad565b610336565b6102b7565b6101d5565b346101d15760403660031901126101d157604051631e4e009160e01b6020820152600435602482015260243560448201526044815260808101908082106001600160401b038311176101cc576101ca9160405260018060a01b0360015416611436565b005b6110fb565b5f80fd5b346101d15760203660031901126101d1575f806040516020810163248a9ca360e01b815260043560248301526024825261020e8261110f565b6001549151916001600160a01b03165af461022761128f565b90156102575761024381602080610253945183010191016112e5565b6040519081529081906020820190565b0390f35b604051905f8051602061168b83398151915260208301527f248a9ca39e7e298ea3bbd193e7d36b87492efea84ff513fd03940aaa5bc0d98f6039830152603982526102a18261110f565b6115e5565b6001600160a01b038116036101d157565b346101d15760803660031901126101d1576004356102d4816102a6565b60405163252e57c360e01b602082015260018060a01b0380921660248201526024356044820152604435606482015260643560848201526084815260c08101918183106001600160401b038411176101cc576101ca9260405260015416611436565b346101d15760403660031901126101d1576101ca61038e61039c60243561035c816102a6565b604051632f2ff15d60e01b602082015260043560248201526001600160a01b0390911660448201529182906064820190565b03601f198101835282611160565b6001546001600160a01b0316611436565b346101d1576020806003193601126101d1576004356103cb816102a6565b600154604051631d6c8e3f60e21b8482019081526004825292916001600160a01b0316906103f88161112a565b5f809481925190845afa61040a61128f565b90156104a9578484806104849461043085856104a69a9b61047f985183010191016112e5565b604051632474521560e21b868201908152602482019290925233604482015261045c816064810161038e565b51915af49061047261046c61128f565b926115fc565b80825183010191016112cd565b611648565b60018060a01b03166bffffffffffffffffffffffff60a01b6001541617600155565b80f35b60405162461bcd60e51b815260048101869052602160248201527f50726f78793a204661696c656420746f2066657463682041444d494e5f524f4c6044820152604560f81b6064820152608490fd5b634e487b7160e01b5f52602160045260245ffd5b9060098210156105195752565b6104f8565b9896949291909b9a999795939b610160808b01918b52602092838c015260408b01528251809152816101808b019301915f5b8281106105d157505050509361059b6105bc946105cd97946105ab946105876101409c9b999f60608d019060018060a01b03169052565b60808b015260a08a015260c089019061050c565b6001600160a01b031660e0870152565b6001600160a01b0316610100850152565b6001600160a01b0316610120830152565b0152565b83516001600160a01b031685529381019392810192600101610550565b346101d1576020806003193601126101d15761066360043591610610836102a6565b60408051630732a78560e11b8382019081526001600160a01b0395861660248084019190915282526106418261110f565b8560015416915f928392839251915af49061065a61128f565b9485809361149d565b815182019084820191610160938491031261077d578486015194848701519260608801516001600160401b03811161078057880181603f820112156107805782810151906106b0826113bd565b946106bd89519687611160565b828652888587019360051b83010193841161077d575090878a97969594939201905b8282106107565750505050608084016106f790611181565b60a085015160c0860151919361070f60e088016113d4565b938b80806107206101008c01611181565b9961072e6101208d01611181565b9b6101400161073c90611181565b9e01519b519e8f9e169a1698169616916102539a8c61051e565b8394959697509281929381925161076c816102a6565b8152019101899695949392916106df565b80fd5b8380fd5b346101d15760203660031901126101d1575f806004356107a3816102a6565b6040516339625fe160e11b602082019081526001600160a01b03928316602480840191909152825290916107d68361110f565b600154169151915af46107e761128f565b90156108035761024381602080610253945183010191016112e5565b604051905f8051602061168b83398151915260208301527f72c4bfc259d553ec5c4384f802c9fa91dea067a8477497f3a2b51808bece3d3e6039830152603982526102a18261110f565b346101d15760a03660031901126101d15761025360443561086d816102a6565b6108d86108c9604051634254593160e11b60208201526004356024820152602435604482015260018060a01b038094166064820152606435608482015260843560a482015260a481526108bf81611145565b83600154166113e1565b6020808251830101910161118e565b60405191166001600160a01b031681529081906020820190565b346101d1575f3660031901126101d1575f546040516001600160a01b039091168152602090f35b346101d15760403660031901126101d1576102536109ad5f8060243561093e816102a6565b604051632474521560e21b6020820190815260043560248301526001600160a01b039290921660448083019190915281529061097b606483611160565b6001549151916001600160a01b03165af461099e61099761128f565b80926114ef565b602080825183010191016112cd565b60405190151581529081906020820190565b346101d15760a03660031901126101d1576101ca6004356109df816102a6565b6024356109eb816102a6565b604435916109f8836102a6565b6040519263b01339c360e01b602085015260018060a01b038093818094166024870152166044850152166064830152606435608483015260843560a483015260a48252610a4482611145565b60015416611436565b346101d1575f3660031901126101d1576001546040516001600160a01b039091168152602090f35b94919897969290986101008601998652602086015260018060a01b0393848092166040870152166060850152608084015260048410156105195760e09360a08401521660c08201520152565b346101d15760203660031901126101d157600435610ade816102a6565b60405190602082016306057bb360e21b815260018060a01b03809216602484015260248352610b0c8361110f565b8160015416925f938492839251915af4610b2e610b2761128f565b8092611541565b6101008082805181010312610780576020820151604083015191606084015191610b57836102a6565b608085015192610b66846102a6565b60a08601519160c0870151936004851015610ba75760e088015198995061025397610b908a6102a6565b01519589806040519b8c9b16971693169189610a75565b8980fd5b60609060031901126101d157600435610bc3816102a6565b906024359060443590565b346101d1576101ca61038e61039c610be536610bab565b60405163c35292c360e01b60208201526001600160a01b039093166024840152604483019190915260648201529182906084820190565b346101d15760c03660031901126101d1576044356001600160401b038082116101d157366023830112156101d15781600401359081116101d1573660248260051b840101116101d15761025391610c879160a4359160843591602460643592016024356004356111a6565b6040516001600160a01b0390911681529081906020820190565b346101d1576101ca61038e61039c610cb836610bab565b6040516319a0bed960e31b60208201526001600160a01b039093166024840152604483019190915260648201529182906084820190565b60208082019080835283518092528060408094019401925f905b838210610d1857505050505090565b845180518752808401516001600160a01b0390811688860152818301511687830152606080820151908801526080808201519088015260a0808201519088015260c0808201519088015260e0808201519088015261010090810151908701526101209095019493820193600190910190610d09565b346101d1576020806003193601126101d15760043590610dac826102a6565b6040805163285c9bc160e21b8382019081526001600160a01b0394851660248084019190915282529093610ddf8561110f565b60015416935f948592839251915af4610e00610df961128f565b8092611593565b8051810192808401918181860312610f005781810151906001600160401b038211610f04570182603f82011215610f00578181015195610e3f876113bd565b95610e4c86519788611160565b8787528387019286610120809a02820101958611610efc578601925b858410610e7c578651806102538a82610cef565b88858584030112610efc57848991610e9261126f565b86518152610ea1838801611181565b83820152610eb08a8801611181565b8a820152606080880151908201526080808801519082015260a0808801519082015260c0808801519082015260e080880151908201526101008088015190820152815201930192610e68565b8280fd5b8580fd5b8680fd5b346101d15760403660031901126101d1576101ca61038e61039c602435610f2e816102a6565b60405163d547741f60e01b602082015260043560248201526001600160a01b0390911660448201529182906064820190565b346101d15760203660031901126101d1575f80600435610f7f816102a6565b60405163eb7b82c960e01b602082019081526001600160a01b0392831660248084019190915282529091610fb28361110f565b600154169151915af4610fc361128f565b9015610fdf5761024381602080610253945183010191016112e5565b604051905f8051602061168b83398151915260208301527feb7b82c9750001cd833d6599bea7581a24346d3db7f6f32f2ab84aff3d4c513f6039830152603982526102a18261110f565b346101d15760203660031901126101d1576101ca600435611049816102a6565b60405163f2fde38b60e01b60208201526001600160a01b03918216602480830191909152815290610a448261110f565b346101d15760203660031901126101d1576001600160401b036004358181116101d157366023820112156101d15780600401359182116101d15736602483830101116101d15761025391602461024392016112f4565b6001545f90819081906001600160a01b0316368280378136915af43d82803e156110f7573d90f35b3d90fd5b634e487b7160e01b5f52604160045260245ffd5b606081019081106001600160401b038211176101cc57604052565b604081019081106001600160401b038211176101cc57604052565b60e081019081106001600160401b038211176101cc57604052565b90601f801991011681019081106001600160401b038211176101cc57604052565b519061118c826102a6565b565b908160209103126101d157516111a3816102a6565b90565b93909491969592806040519560209763c810ca2160e01b8989015260e48801916024890152604488015260c0606488015252610104850197905f5b81811061124657505050836111a3969761122d94829461121c94608461123a9a99015260a484015260c483015203601f198101835282611160565b6001546001600160a01b03166113e1565b805181018201910161118e565b6001600160a01b031690565b90919887806001928c35611259816102a6565b848060a01b03168152019a0191019190916111e1565b6040519061012082018281106001600160401b038211176101cc57604052565b3d156112c8573d906001600160401b0382116101cc57604051916112bd601f8201601f191660200184611160565b82523d5f602084013e565b606090565b908160209103126101d1575180151581036101d15790565b908160209103126101d1575190565b5f91829161134160646040518481956020830195637ec206a360e11b8752602060248501528160448501528484013786838284010152601f80199101168101036044810185520183611160565b6001549151916001600160a01b03165afa61135a61128f565b901561137357806020806111a3935183010191016112e5565b604051905f8051602061168b83398151915260208301527ffd840d462271d6e9fc77b07455a721a8c4356ad1fec818f26d7a6684cd9bcded6039830152603982526102a18261110f565b6001600160401b0381116101cc5760051b60200190565b519060098210156101d157565b5f918291602082519201905af46113f661128f565b90156113ff5790565b604051907f50726f78793a2044656c656761746563616c6c206661696c65640000000000006020830152601a82526102a18261112a565b5f918291602082519201905af461144b61128f565b90156113ff575161145857565b60405162461bcd60e51b815260206004820152601f60248201527f50726f78793a2044656c656761746563616c6c20766f69642072657475726e006044820152606490fd5b156114a55750565b604051905f8051602061168b83398151915260208301527f0e654f0af46c4156eb5341d9b4a935c364337975295bb2c79e5f9d6d303883406039830152603982526102a18261110f565b156114f75750565b604051905f8051602061168b83398151915260208301527f91d1485424b278bc736d5d34907ed48280c7188845bc82b33370da2b4dc1194e6039830152603982526102a18261110f565b156115495750565b604051905f8051602061168b83398151915260208301527f1815eecc39d6b25b99d1bf6b02b5756354e36d36cba676ebdbb7d303c5e820746039830152603982526102a18261110f565b1561159b5750565b604051905f8051602061168b83398151915260208301527fa1726f047c5f0506f57eada6b468f08e9b958a8001ab703ec250f4d509575b0c6039830152603982526115e58261110f565b80519182156115f45750602001fd5b602081519101fd5b1561160357565b60405162461bcd60e51b815260206004820152601860248201527f50726f78793a20526f6c6520636865636b206661696c656400000000000000006044820152606490fd5b1561164f57565b60405162461bcd60e51b8152602060048201526013602482015272141c9bde1e4e88155b985d5d1a1bdc9a5e9959606a1b6044820152606490fdfe50726f78793a2053746174696363616c6c206661696c65643a00000000000000a2646970667358221220a1251b1e382d16ef9cd67cb85e8f5453436fc63bc4c8f25d7db5eb746dce97f864736f6c63430008140033",
  "immutableReferences": {},
  "source": "// SPDX-License-Identifier: MIT\r\npragma solidity ^0.8.20;\r\n\r\nimport {Errors} from \"./libraries/Errors.sol\";\r\nimport {RawMaterial} from \"./batches/RawMaterial.sol\";\r\nimport {Medicine} from \"./batches/Medicine.sol\";\r\nimport {SupplyChainLogic} from \"./logic/SupplyChainLogic.sol\";\r\n\r\ncontract SupplyChainProxy {\r\n    address public owner;\r\n    address public logicContractAddress;\r\n\r\n    event ProxyInitialized(\r\n        address indexed logicAddress,\r\n        address indexed initialOwner\r\n    );\r\n\r\n    constructor(address logicAddress_) {\r\n        require(logicAddress_ != address(0), \"Proxy: Logic address is zero\");\r\n        logicContractAddress = logicAddress_;\r\n\r\n        address deployer = msg.sender;\r\n        (bool success, bytes memory returnData) = logicContractAddress\r\n            .delegatecall(\r\n                abi.encodeWithSelector(\r\n                    SupplyChainLogic.initialize.selector,\r\n                    deployer\r\n                )\r\n            );\r\n\r\n        if (!success) {\r\n            _forwardRevertData(\r\n                returnData,\r\n                abi.encodePacked(\"Proxy: Initialize reverted\")\r\n            );\r\n        }\r\n        require(returnData.length == 0, \"Proxy: Initialize returned data\");\r\n\r\n        require(owner == deployer, \"Proxy: Owner mismatch post-init\");\r\n        bytes32 adminRoleHash = _fetchAdminRoleHash();\r\n        _verifyDeployerIsAdmin(adminRoleHash, deployer);\r\n\r\n        emit ProxyInitialized(logicContractAddress, deployer);\r\n    }\r\n\r\n    function _fetchAdminRoleHash() internal view returns (bytes32) {\r\n        (bool success, bytes memory returnData) = logicContractAddress\r\n            .staticcall(\r\n                abi.encodeWithSelector(bytes4(keccak256(\"ADMIN_ROLE()\")))\r\n            );\r\n        _checkStaticCallSuccess(success, returnData, keccak256(\"ADMIN_ROLE()\"));\r\n        require(\r\n            returnData.length == 32,\r\n            \"Proxy: ADMIN_ROLE fetch length invalid\"\r\n        );\r\n        return abi.decode(returnData, (bytes32));\r\n    }\r\n\r\n    function _verifyDeployerIsAdmin(\r\n        bytes32 adminRoleHash,\r\n        address deployer_\r\n    ) internal {\r\n        bytes memory callData = abi.encodeWithSelector(\r\n            SupplyChainLogic.hasRole.selector,\r\n            adminRoleHash,\r\n            deployer_\r\n        );\r\n        (bool success, bytes memory returnData) = logicContractAddress\r\n            .delegatecall(callData);\r\n        _checkStaticCallSuccess(\r\n            success,\r\n            returnData,\r\n            keccak256(\"hasRole(bytes32,address)\")\r\n        );\r\n        require(\r\n            returnData.length == 32,\r\n            \"Proxy: hasRole return length invalid\"\r\n        );\r\n        bool isAdmin = abi.decode(returnData, (bool));\r\n        require(isAdmin, \"Proxy: Deployer lacks implicit ADMIN_ROLE\");\r\n    }\r\n\r\n    fallback() external payable {\r\n        _delegate(logicContractAddress);\r\n    }\r\n    receive() external payable {\r\n        _delegate(logicContractAddress);\r\n    }\r\n\r\n    // Batch Creation\r\n    function createRawMaterial(\r\n        bytes32 description_,\r\n        uint quantity_,\r\n        address intendedManufacturer_,\r\n        int256 latitude_,\r\n        int256 longitude_\r\n    ) external returns (address batchAddress_) {\r\n        bytes memory callData = abi.encodeWithSelector(\r\n            SupplyChainLogic.createRawMaterial.selector,\r\n            description_,\r\n            quantity_,\r\n            intendedManufacturer_,\r\n            latitude_,\r\n            longitude_\r\n        );\r\n        bytes memory returnData = _delegateWithValue(\r\n            logicContractAddress,\r\n            callData\r\n        );\r\n        batchAddress_ = abi.decode(returnData, (address));\r\n    }\r\n\r\n    function createMedicine(\r\n        bytes32 description_,\r\n        uint quantity_,\r\n        address[] calldata rawMaterialBatchIds_,\r\n        uint expiryDate_,\r\n        int256 latitude_,\r\n        int256 longitude_\r\n    ) external returns (address batchAddress_) {\r\n        bytes memory callData = abi.encodeWithSelector(\r\n            SupplyChainLogic.createMedicine.selector,\r\n            description_,\r\n            quantity_,\r\n            rawMaterialBatchIds_,\r\n            expiryDate_,\r\n            latitude_,\r\n            longitude_\r\n        );\r\n        bytes memory returnData = _delegateWithValue(\r\n            logicContractAddress,\r\n            callData\r\n        );\r\n        batchAddress_ = abi.decode(returnData, (address));\r\n    }\r\n\r\n    // Batch Lifecycle Management\r\n    function initiateTransfer(\r\n        address batchAddress_,\r\n        address transporter_,\r\n        address receiver_,\r\n        int256 latitude_,\r\n        int256 longitude_\r\n    ) external {\r\n        bytes memory callData = abi.encodeWithSelector(\r\n            SupplyChainLogic.initiateTransfer.selector,\r\n            batchAddress_,\r\n            transporter_,\r\n            receiver_,\r\n            latitude_,\r\n            longitude_\r\n        );\r\n        _delegateWithoutValue(logicContractAddress, callData);\r\n    }\r\n\r\n    function receivePackage(\r\n        address batchAddress_,\r\n        int256 latitude_,\r\n        int256 longitude_\r\n    ) external {\r\n        bytes memory callData = abi.encodeWithSelector(\r\n            SupplyChainLogic.receivePackage.selector,\r\n            batchAddress_,\r\n            latitude_,\r\n            longitude_\r\n        );\r\n        _delegateWithoutValue(logicContractAddress, callData);\r\n    }\r\n\r\n    function finalizeMedicineBatch(\r\n        address batchAddress_,\r\n        int256 latitude_,\r\n        int256 longitude_\r\n    ) external {\r\n        bytes memory callData = abi.encodeWithSelector(\r\n            SupplyChainLogic.finalizeMedicineBatch.selector,\r\n            batchAddress_,\r\n            latitude_,\r\n            longitude_\r\n        );\r\n        _delegateWithoutValue(logicContractAddress, callData);\r\n    }\r\n\r\n    function markBatchDestroyed(\r\n        address batchAddress_,\r\n        bytes32 reasonCode_,\r\n        int256 latitude_,\r\n        int256 longitude_\r\n    ) external {\r\n        bytes memory callData = abi.encodeWithSelector(\r\n            SupplyChainLogic.markBatchDestroyed.selector,\r\n            batchAddress_,\r\n            reasonCode_,\r\n            latitude_,\r\n            longitude_\r\n        );\r\n        _delegateWithoutValue(logicContractAddress, callData);\r\n    }\r\n\r\n    // Role Management\r\n    function grantRole(bytes32 role_, address account_) external {\r\n        bytes memory callData = abi.encodeWithSelector(\r\n            SupplyChainLogic.grantRole.selector,\r\n            role_,\r\n            account_\r\n        );\r\n        _delegateWithoutValue(logicContractAddress, callData);\r\n    }\r\n\r\n    function revokeRole(bytes32 role_, address account_) external {\r\n        bytes memory callData = abi.encodeWithSelector(\r\n            SupplyChainLogic.revokeRole.selector,\r\n            role_,\r\n            account_\r\n        );\r\n        _delegateWithoutValue(logicContractAddress, callData);\r\n    }\r\n\r\n    function setRoleAdmin(bytes32 role_, bytes32 adminRole_) external {\r\n        bytes memory callData = abi.encodeWithSelector(\r\n            SupplyChainLogic.setRoleAdmin.selector,\r\n            role_,\r\n            adminRole_\r\n        );\r\n        _delegateWithoutValue(logicContractAddress, callData);\r\n    }\r\n\r\n    function transferOwnership(address newOwner_) external {\r\n        bytes memory callData = abi.encodeWithSelector(\r\n            SupplyChainLogic.transferOwnership.selector,\r\n            newOwner_\r\n        );\r\n        _delegateWithoutValue(logicContractAddress, callData);\r\n    }\r\n\r\n    // State View Functions (Using Delegatecall)\r\n    function hasRole(\r\n        bytes32 role_,\r\n        address account_\r\n    ) external returns (bool hasRole_) {\r\n        bytes memory callData = abi.encodeWithSelector(\r\n            SupplyChainLogic.hasRole.selector,\r\n            role_,\r\n            account_\r\n        );\r\n        (bool success, bytes memory returnData) = logicContractAddress\r\n            .delegatecall(callData);\r\n        _checkStaticCallSuccess(\r\n            success,\r\n            returnData,\r\n            keccak256(\"hasRole(bytes32,address)\")\r\n        );\r\n        hasRole_ = abi.decode(returnData, (bool));\r\n    }\r\n\r\n    function getRoleAdmin(bytes32 role_) external returns (bytes32 adminRole_) {\r\n        bytes memory callData = abi.encodeWithSelector(\r\n            SupplyChainLogic.getRoleAdmin.selector,\r\n            role_\r\n        );\r\n        (bool success, bytes memory returnData) = logicContractAddress\r\n            .delegatecall(callData);\r\n        _checkStaticCallSuccess(\r\n            success,\r\n            returnData,\r\n            keccak256(\"getRoleAdmin(bytes32)\")\r\n        );\r\n        adminRole_ = abi.decode(returnData, (bytes32));\r\n    }\r\n\r\n    function batchType(\r\n        address batchAddress_\r\n    ) external returns (bytes32 typeHash_) {\r\n        bytes memory callData = abi.encodeWithSelector(\r\n            bytes4(keccak256(\"batchType(address)\")),\r\n            batchAddress_\r\n        );\r\n        (bool success, bytes memory returnData) = logicContractAddress\r\n            .delegatecall(callData);\r\n        _checkStaticCallSuccess(\r\n            success,\r\n            returnData,\r\n            keccak256(\"batchType(address)\")\r\n        );\r\n        typeHash_ = abi.decode(returnData, (bytes32));\r\n    }\r\n\r\n    function lastLogHashForBatch(\r\n        address batchAddress_\r\n    ) external returns (bytes32 lastHash_) {\r\n        bytes memory callData = abi.encodeWithSelector(\r\n            bytes4(keccak256(\"lastLogHashForBatch(address)\")),\r\n            batchAddress_\r\n        );\r\n        (bool success, bytes memory returnData) = logicContractAddress\r\n            .delegatecall(callData);\r\n        _checkStaticCallSuccess(\r\n            success,\r\n            returnData,\r\n            keccak256(\"lastLogHashForBatch(address)\")\r\n        );\r\n        lastHash_ = abi.decode(returnData, (bytes32));\r\n    }\r\n\r\n    // Pure Functions (Using Staticcall)\r\n    function getRoleIdentifier(\r\n        string calldata roleName_\r\n    ) external view returns (bytes32 roleIdentifier_) {\r\n        bytes memory callData = abi.encodeWithSelector(\r\n            SupplyChainLogic.getRoleIdentifier.selector,\r\n            roleName_\r\n        );\r\n        (bool success, bytes memory returnData) = logicContractAddress\r\n            .staticcall(callData);\r\n        _checkStaticCallSuccess(\r\n            success,\r\n            returnData,\r\n            keccak256(\"getRoleIdentifier(string)\")\r\n        );\r\n        roleIdentifier_ = abi.decode(returnData, (bytes32));\r\n    }\r\n\r\n    // Storage Access Functions (Using Delegatecall)\r\n    function getRawMaterialDetails(\r\n        address batchAddress_\r\n    )\r\n        external\r\n        returns (\r\n            bytes32 description,\r\n            uint quantity,\r\n            address supplier,\r\n            address intendedManufacturer,\r\n            uint creationTime,\r\n            RawMaterial.Status status,\r\n            address currentTransporter,\r\n            uint lastUpdateTime\r\n        )\r\n    {\r\n        bytes memory callData = abi.encodeWithSelector(\r\n            SupplyChainLogic.getRawMaterialDetailsInternal.selector,\r\n            batchAddress_\r\n        );\r\n        (bool success, bytes memory returnData) = logicContractAddress\r\n            .delegatecall(callData);\r\n        _checkStaticCallSuccess(\r\n            success,\r\n            returnData,\r\n            keccak256(\"getRawMaterialDetailsInternal(address)\")\r\n        );\r\n        (\r\n            description,\r\n            quantity,\r\n            supplier,\r\n            intendedManufacturer,\r\n            creationTime,\r\n            status,\r\n            currentTransporter,\r\n            lastUpdateTime\r\n        ) = abi.decode(\r\n            returnData,\r\n            (\r\n                bytes32,\r\n                uint,\r\n                address,\r\n                address,\r\n                uint,\r\n                RawMaterial.Status,\r\n                address,\r\n                uint\r\n            )\r\n        );\r\n    }\r\n\r\n    function getMedicineDetails(\r\n        address batchAddress_\r\n    )\r\n        external\r\n        returns (\r\n            bytes32 description,\r\n            uint quantity,\r\n            address[] memory rawMaterialBatchIds,\r\n            address manufacturer,\r\n            uint creationTime,\r\n            uint expiryDate,\r\n            Medicine.Status status,\r\n            address currentOwner,\r\n            address currentTransporter,\r\n            address currentDestination,\r\n            uint lastUpdateTime\r\n        )\r\n    {\r\n        bytes memory callData = abi.encodeWithSelector(\r\n            SupplyChainLogic.getMedicineDetailsInternal.selector,\r\n            batchAddress_\r\n        );\r\n        (bool success, bytes memory returnData) = logicContractAddress\r\n            .delegatecall(callData);\r\n        _checkStaticCallSuccess(\r\n            success,\r\n            returnData,\r\n            keccak256(\"getMedicineDetailsInternal(address)\")\r\n        );\r\n        (\r\n            description,\r\n            quantity,\r\n            rawMaterialBatchIds,\r\n            manufacturer,\r\n            creationTime,\r\n            expiryDate,\r\n            status,\r\n            currentOwner,\r\n            currentTransporter,\r\n            currentDestination,\r\n            lastUpdateTime\r\n        ) = abi.decode(\r\n            returnData,\r\n            (\r\n                bytes32,\r\n                uint,\r\n                address[],\r\n                address,\r\n                uint,\r\n                uint,\r\n                Medicine.Status,\r\n                address,\r\n                address,\r\n                address,\r\n                uint\r\n            )\r\n        );\r\n    }\r\n\r\n    function getTransactionHistory(\r\n        address batchAddress_\r\n    ) external returns (SupplyChainLogic.TxnLog[] memory history_) {\r\n        bytes memory callData = abi.encodeWithSelector(\r\n            SupplyChainLogic.getTransactionHistoryInternal.selector,\r\n            batchAddress_\r\n        );\r\n        (bool success, bytes memory returnData) = logicContractAddress\r\n            .delegatecall(callData);\r\n        _checkStaticCallSuccess(\r\n            success,\r\n            returnData,\r\n            keccak256(\"getTransactionHistoryInternal(address)\")\r\n        );\r\n        history_ = abi.decode(returnData, (SupplyChainLogic.TxnLog[]));\r\n    }\r\n\r\n    // Internal Helpers\r\n    function _delegate(address implementation_) internal {\r\n        assembly {\r\n            calldatacopy(0, 0, calldatasize())\r\n            let result := delegatecall(\r\n                gas(),\r\n                implementation_,\r\n                0,\r\n                calldatasize(),\r\n                0,\r\n                0\r\n            )\r\n            returndatacopy(0, 0, returndatasize())\r\n            switch result\r\n            case 0 {\r\n                revert(0, returndatasize())\r\n            }\r\n            default {\r\n                return(0, returndatasize())\r\n            }\r\n        }\r\n    }\r\n\r\n    function _delegateWithValue(\r\n        address implementation_,\r\n        bytes memory callData_\r\n    ) internal returns (bytes memory) {\r\n        (bool success, bytes memory _returnData) = implementation_.delegatecall(\r\n            callData_\r\n        );\r\n        if (!success)\r\n            _forwardRevertData(\r\n                _returnData,\r\n                abi.encodePacked(\"Proxy: Delegatecall failed\")\r\n            );\r\n        return _returnData;\r\n    }\r\n\r\n    function _delegateWithoutValue(\r\n        address implementation_,\r\n        bytes memory callData_\r\n    ) internal {\r\n        (bool success, bytes memory returnData) = implementation_.delegatecall(\r\n            callData_\r\n        );\r\n        if (!success)\r\n            _forwardRevertData(\r\n                returnData,\r\n                abi.encodePacked(\"Proxy: Delegatecall failed\")\r\n            );\r\n        require(returnData.length == 0, \"Proxy: Delegatecall void return\");\r\n    }\r\n\r\n    function _checkStaticCallSuccess(\r\n        bool success_,\r\n        bytes memory returnData_,\r\n        bytes32 context_\r\n    ) internal pure {\r\n        if (!success_)\r\n            _forwardRevertData(\r\n                returnData_,\r\n                abi.encodePacked(\"Proxy: Staticcall failed:\", uint256(context_))\r\n            );\r\n    }\r\n\r\n    function _forwardRevertData(\r\n        bytes memory returnData_,\r\n        bytes memory defaultData_\r\n    ) internal pure {\r\n        if (returnData_.length > 0) {\r\n            assembly {\r\n                revert(add(returnData_, 0x20), mload(returnData_))\r\n            }\r\n        } else {\r\n            assembly {\r\n                revert(add(defaultData_, 0x20), mload(defaultData_))\r\n            }\r\n        }\r\n    }\r\n    function _getAdminRole() internal view returns (bytes32) {\r\n        // Compute the selector for the ADMIN_ROLE() getter function\r\n        bytes4 adminRoleSelector = bytes4(keccak256(\"ADMIN_ROLE()\"));\r\n\r\n        // Use the computed selector to call the logic contract\r\n        (bool success, bytes memory data) = logicContractAddress.staticcall(\r\n            abi.encodeWithSelector(adminRoleSelector)\r\n        );\r\n        require(success, \"Proxy: Failed to fetch ADMIN_ROLE\");\r\n        return abi.decode(data, (bytes32));\r\n    }\r\n    function upgradeTo(address newLogic) external {\r\n        // Fetch ADMIN_ROLE from the logic contract\r\n        bytes32 adminRole = _getAdminRole();\r\n\r\n        // Delegatecall to check if the sender has ADMIN_ROLE\r\n        bytes memory callData = abi.encodeWithSelector(\r\n            SupplyChainLogic.hasRole.selector,\r\n            adminRole,\r\n            msg.sender\r\n        );\r\n        (bool success, bytes memory returnData) = logicContractAddress\r\n            .delegatecall(callData);\r\n        require(success, \"Proxy: Role check failed\");\r\n        bool isAdmin = abi.decode(returnData, (bool));\r\n        require(isAdmin, \"Proxy: Unauthorized\");\r\n\r\n        // Update logic contract address\r\n        logicContractAddress = newLogic;\r\n    }\r\n}\r\n",
  "sourcePath": "C:\\Users\\rabra\\OneDrive\\Desktop\\new drug auth\\contracts\\SupplyChainProxy.sol",
  "compiler": {
    "name": "solc",
    "version": "0.8.20+commit.a1b79de6.Emscripten.clang"
  },
  "schemaVersion": "3.4.16",
  "updatedAt": "2025-04-30T05:20:20.681Z",
  "networkType": "ethereum",
  "devdoc": {
    "kind": "dev",
    "methods": {},
    "version": 1
  },
  "userdoc": {
    "kind": "user",
    "methods": {},
    "version": 1
  }
}