{
  "contractName": "SupplyChainLogic",
  "abi": [
    {
      "inputs": [],
      "name": "AccessControlCannotManageAdminRole",
      "type": "error"
    },
    {
      "inputs": [
        {
          "internalType": "address",
          "name": "account",
          "type": "address"
        },
        {
          "internalType": "bytes32",
          "name": "role",
          "type": "bytes32"
        }
      ],
      "name": "AccessControlInvalidAdminRole",
      "type": "error"
    },
    {
      "inputs": [
        {
          "internalType": "address",
          "name": "account",
          "type": "address"
        },
        {
          "internalType": "bytes32",
          "name": "role",
          "type": "bytes32"
        }
      ],
      "name": "AccessControlMissingRole",
      "type": "error"
    },
    {
      "inputs": [],
      "name": "AccessControlOwnerOnly",
      "type": "error"
    },
    {
      "inputs": [],
      "name": "AccessControlZeroAddress",
      "type": "error"
    },
    {
      "inputs": [
        {
          "internalType": "bytes32",
          "name": "reason",
          "type": "bytes32"
        }
      ],
      "name": "SC_ArgumentError",
      "type": "error"
    },
    {
      "inputs": [
        {
          "internalType": "bytes32",
          "name": "batchType",
          "type": "bytes32"
        }
      ],
      "name": "SC_BatchCreationFailed",
      "type": "error"
    },
    {
      "inputs": [
        {
          "internalType": "address",
          "name": "batchAddress",
          "type": "address"
        },
        {
          "internalType": "bytes32",
          "name": "action",
          "type": "bytes32"
        }
      ],
      "name": "SC_BatchTypeUnknownOrActionFailed",
      "type": "error"
    },
    {
      "inputs": [
        {
          "internalType": "address",
          "name": "target",
          "type": "address"
        },
        {
          "internalType": "bytes32",
          "name": "action",
          "type": "bytes32"
        },
        {
          "internalType": "bytes",
          "name": "errorData",
          "type": "bytes"
        }
      ],
      "name": "SC_ExternalCallFailed",
      "type": "error"
    },
    {
      "inputs": [
        {
          "internalType": "bytes32",
          "name": "context",
          "type": "bytes32"
        }
      ],
      "name": "SC_InvalidAddress",
      "type": "error"
    },
    {
      "inputs": [
        {
          "internalType": "address",
          "name": "receiver",
          "type": "address"
        },
        {
          "internalType": "bytes32",
          "name": "expectedRole",
          "type": "bytes32"
        }
      ],
      "name": "SC_InvalidReceiverRole",
      "type": "error"
    },
    {
      "inputs": [
        {
          "internalType": "address",
          "name": "batchAddress",
          "type": "address"
        },
        {
          "internalType": "uint8",
          "name": "currentStatus",
          "type": "uint8"
        },
        {
          "internalType": "bytes32",
          "name": "action",
          "type": "bytes32"
        }
      ],
      "name": "SC_InvalidStateForAction",
      "type": "error"
    },
    {
      "inputs": [
        {
          "internalType": "address",
          "name": "rmAddress",
          "type": "address"
        },
        {
          "internalType": "bytes32",
          "name": "reason",
          "type": "bytes32"
        }
      ],
      "name": "SC_RawMaterialValidationFailed",
      "type": "error"
    },
    {
      "inputs": [
        {
          "internalType": "address",
          "name": "batchAddress",
          "type": "address"
        },
        {
          "internalType": "address",
          "name": "expected",
          "type": "address"
        },
        {
          "internalType": "address",
          "name": "actual",
          "type": "address"
        }
      ],
      "name": "SC_ReceiverMismatch",
      "type": "error"
    },
    {
      "inputs": [
        {
          "internalType": "address",
          "name": "target",
          "type": "address"
        },
        {
          "internalType": "bytes32",
          "name": "role",
          "type": "bytes32"
        },
        {
          "internalType": "bytes32",
          "name": "reason",
          "type": "bytes32"
        }
      ],
      "name": "SC_RoleCheckFailed",
      "type": "error"
    },
    {
      "inputs": [
        {
          "internalType": "address",
          "name": "actor",
          "type": "address"
        },
        {
          "internalType": "bytes32",
          "name": "reason",
          "type": "bytes32"
        }
      ],
      "name": "SC_UnauthorizedActor",
      "type": "error"
    },
    {
      "anonymous": false,
      "inputs": [
        {
          "indexed": true,
          "internalType": "bytes32",
          "name": "batchType",
          "type": "bytes32"
        },
        {
          "indexed": true,
          "internalType": "address",
          "name": "batchAddress",
          "type": "address"
        },
        {
          "indexed": true,
          "internalType": "address",
          "name": "creator",
          "type": "address"
        },
        {
          "indexed": false,
          "internalType": "uint256",
          "name": "timestamp",
          "type": "uint256"
        }
      ],
      "name": "BatchCreated",
      "type": "event"
    },
    {
      "anonymous": false,
      "inputs": [
        {
          "indexed": true,
          "internalType": "address",
          "name": "batchAddress",
          "type": "address"
        },
        {
          "indexed": true,
          "internalType": "address",
          "name": "actor",
          "type": "address"
        },
        {
          "indexed": false,
          "internalType": "bytes32",
          "name": "reasonCode",
          "type": "bytes32"
        },
        {
          "indexed": false,
          "internalType": "uint256",
          "name": "timestamp",
          "type": "uint256"
        }
      ],
      "name": "BatchDestroyed",
      "type": "event"
    },
    {
      "anonymous": false,
      "inputs": [
        {
          "indexed": true,
          "internalType": "address",
          "name": "batchAddress",
          "type": "address"
        },
        {
          "indexed": true,
          "internalType": "address",
          "name": "finalOwner",
          "type": "address"
        },
        {
          "indexed": false,
          "internalType": "uint256",
          "name": "timestamp",
          "type": "uint256"
        }
      ],
      "name": "BatchFinalized",
      "type": "event"
    },
    {
      "anonymous": false,
      "inputs": [
        {
          "indexed": false,
          "internalType": "uint8",
          "name": "version",
          "type": "uint8"
        }
      ],
      "name": "Initialized",
      "type": "event"
    },
    {
      "anonymous": false,
      "inputs": [
        {
          "indexed": true,
          "internalType": "address",
          "name": "batchAddress",
          "type": "address"
        },
        {
          "indexed": true,
          "internalType": "uint256",
          "name": "index",
          "type": "uint256"
        },
        {
          "indexed": true,
          "internalType": "address",
          "name": "actor",
          "type": "address"
        },
        {
          "indexed": false,
          "internalType": "bytes32",
          "name": "eventCode",
          "type": "bytes32"
        },
        {
          "indexed": false,
          "internalType": "uint256",
          "name": "timestamp",
          "type": "uint256"
        },
        {
          "indexed": false,
          "internalType": "bytes32",
          "name": "currentLogHash",
          "type": "bytes32"
        }
      ],
      "name": "LogEntryCreated",
      "type": "event"
    },
    {
      "anonymous": false,
      "inputs": [
        {
          "indexed": true,
          "internalType": "address",
          "name": "previousOwner",
          "type": "address"
        },
        {
          "indexed": true,
          "internalType": "address",
          "name": "newOwner",
          "type": "address"
        }
      ],
      "name": "OwnershipTransferred",
      "type": "event"
    },
    {
      "anonymous": false,
      "inputs": [
        {
          "indexed": true,
          "internalType": "address",
          "name": "batchAddress",
          "type": "address"
        },
        {
          "indexed": true,
          "internalType": "address",
          "name": "receiver",
          "type": "address"
        },
        {
          "indexed": true,
          "internalType": "address",
          "name": "sender",
          "type": "address"
        },
        {
          "indexed": false,
          "internalType": "uint256",
          "name": "timestamp",
          "type": "uint256"
        }
      ],
      "name": "PackageReceived",
      "type": "event"
    },
    {
      "anonymous": false,
      "inputs": [
        {
          "indexed": true,
          "internalType": "bytes32",
          "name": "role",
          "type": "bytes32"
        },
        {
          "indexed": true,
          "internalType": "bytes32",
          "name": "previousAdminRole",
          "type": "bytes32"
        },
        {
          "indexed": true,
          "internalType": "bytes32",
          "name": "newAdminRole",
          "type": "bytes32"
        }
      ],
      "name": "RoleAdminChanged",
      "type": "event"
    },
    {
      "anonymous": false,
      "inputs": [
        {
          "indexed": true,
          "internalType": "bytes32",
          "name": "role",
          "type": "bytes32"
        },
        {
          "indexed": true,
          "internalType": "address",
          "name": "account",
          "type": "address"
        },
        {
          "indexed": true,
          "internalType": "address",
          "name": "sender",
          "type": "address"
        }
      ],
      "name": "RoleGranted",
      "type": "event"
    },
    {
      "anonymous": false,
      "inputs": [
        {
          "indexed": true,
          "internalType": "bytes32",
          "name": "role",
          "type": "bytes32"
        },
        {
          "indexed": true,
          "internalType": "address",
          "name": "account",
          "type": "address"
        },
        {
          "indexed": true,
          "internalType": "address",
          "name": "sender",
          "type": "address"
        }
      ],
      "name": "RoleRevoked",
      "type": "event"
    },
    {
      "anonymous": false,
      "inputs": [
        {
          "indexed": true,
          "internalType": "address",
          "name": "batchAddress",
          "type": "address"
        },
        {
          "indexed": true,
          "internalType": "address",
          "name": "initiator",
          "type": "address"
        },
        {
          "indexed": true,
          "internalType": "address",
          "name": "transporter",
          "type": "address"
        },
        {
          "indexed": false,
          "internalType": "address",
          "name": "receiver",
          "type": "address"
        },
        {
          "indexed": false,
          "internalType": "uint256",
          "name": "timestamp",
          "type": "uint256"
        }
      ],
      "name": "TransferInitiated",
      "type": "event"
    },
    {
      "inputs": [],
      "name": "ADMIN_ROLE",
      "outputs": [
        {
          "internalType": "bytes32",
          "name": "",
          "type": "bytes32"
        }
      ],
      "stateMutability": "view",
      "type": "function",
      "constant": true
    },
    {
      "inputs": [],
      "name": "CUSTOMER_ROLE",
      "outputs": [
        {
          "internalType": "bytes32",
          "name": "",
          "type": "bytes32"
        }
      ],
      "stateMutability": "view",
      "type": "function",
      "constant": true
    },
    {
      "inputs": [],
      "name": "DISTRIBUTOR_ROLE",
      "outputs": [
        {
          "internalType": "bytes32",
          "name": "",
          "type": "bytes32"
        }
      ],
      "stateMutability": "view",
      "type": "function",
      "constant": true
    },
    {
      "inputs": [],
      "name": "MANUFACTURER_ROLE",
      "outputs": [
        {
          "internalType": "bytes32",
          "name": "",
          "type": "bytes32"
        }
      ],
      "stateMutability": "view",
      "type": "function",
      "constant": true
    },
    {
      "inputs": [],
      "name": "SUPPLIER_ROLE",
      "outputs": [
        {
          "internalType": "bytes32",
          "name": "",
          "type": "bytes32"
        }
      ],
      "stateMutability": "view",
      "type": "function",
      "constant": true
    },
    {
      "inputs": [],
      "name": "TRANSPORTER_ROLE",
      "outputs": [
        {
          "internalType": "bytes32",
          "name": "",
          "type": "bytes32"
        }
      ],
      "stateMutability": "view",
      "type": "function",
      "constant": true
    },
    {
      "inputs": [],
      "name": "WHOLESALER_ROLE",
      "outputs": [
        {
          "internalType": "bytes32",
          "name": "",
          "type": "bytes32"
        }
      ],
      "stateMutability": "view",
      "type": "function",
      "constant": true
    },
    {
      "inputs": [
        {
          "internalType": "address",
          "name": "",
          "type": "address"
        },
        {
          "internalType": "uint256",
          "name": "",
          "type": "uint256"
        }
      ],
      "name": "batchLogs",
      "outputs": [
        {
          "internalType": "uint256",
          "name": "index",
          "type": "uint256"
        },
        {
          "internalType": "address",
          "name": "actor",
          "type": "address"
        },
        {
          "internalType": "address",
          "name": "involvedParty",
          "type": "address"
        },
        {
          "internalType": "bytes32",
          "name": "eventCode",
          "type": "bytes32"
        },
        {
          "internalType": "int256",
          "name": "latitude",
          "type": "int256"
        },
        {
          "internalType": "int256",
          "name": "longitude",
          "type": "int256"
        },
        {
          "internalType": "uint256",
          "name": "timestamp",
          "type": "uint256"
        },
        {
          "internalType": "bytes32",
          "name": "dataHash",
          "type": "bytes32"
        },
        {
          "internalType": "bytes32",
          "name": "previousLogHash",
          "type": "bytes32"
        }
      ],
      "stateMutability": "view",
      "type": "function",
      "constant": true
    },
    {
      "inputs": [
        {
          "internalType": "address",
          "name": "",
          "type": "address"
        }
      ],
      "name": "batchType",
      "outputs": [
        {
          "internalType": "bytes32",
          "name": "",
          "type": "bytes32"
        }
      ],
      "stateMutability": "view",
      "type": "function",
      "constant": true
    },
    {
      "inputs": [
        {
          "internalType": "address",
          "name": "",
          "type": "address"
        }
      ],
      "name": "lastLogHashForBatch",
      "outputs": [
        {
          "internalType": "bytes32",
          "name": "",
          "type": "bytes32"
        }
      ],
      "stateMutability": "view",
      "type": "function",
      "constant": true
    },
    {
      "inputs": [],
      "name": "owner",
      "outputs": [
        {
          "internalType": "address",
          "name": "",
          "type": "address"
        }
      ],
      "stateMutability": "view",
      "type": "function",
      "constant": true
    },
    {
      "inputs": [
        {
          "internalType": "address",
          "name": "deployer",
          "type": "address"
        }
      ],
      "name": "initialize",
      "outputs": [],
      "stateMutability": "nonpayable",
      "type": "function"
    },
    {
      "inputs": [
        {
          "internalType": "bytes32",
          "name": "_description",
          "type": "bytes32"
        },
        {
          "internalType": "uint256",
          "name": "_quantity",
          "type": "uint256"
        },
        {
          "internalType": "address",
          "name": "_intendedManufacturer",
          "type": "address"
        },
        {
          "internalType": "int256",
          "name": "_latitude",
          "type": "int256"
        },
        {
          "internalType": "int256",
          "name": "_longitude",
          "type": "int256"
        }
      ],
      "name": "createRawMaterial",
      "outputs": [
        {
          "internalType": "address",
          "name": "batchAddress",
          "type": "address"
        }
      ],
      "stateMutability": "nonpayable",
      "type": "function"
    },
    {
      "inputs": [
        {
          "internalType": "bytes32",
          "name": "_description",
          "type": "bytes32"
        },
        {
          "internalType": "uint256",
          "name": "_quantity",
          "type": "uint256"
        },
        {
          "internalType": "address[]",
          "name": "_rawMaterialBatchIds",
          "type": "address[]"
        },
        {
          "internalType": "uint256",
          "name": "_expiryDate",
          "type": "uint256"
        },
        {
          "internalType": "int256",
          "name": "_latitude",
          "type": "int256"
        },
        {
          "internalType": "int256",
          "name": "_longitude",
          "type": "int256"
        }
      ],
      "name": "createMedicine",
      "outputs": [
        {
          "internalType": "address",
          "name": "batchAddress",
          "type": "address"
        }
      ],
      "stateMutability": "nonpayable",
      "type": "function"
    },
    {
      "inputs": [
        {
          "internalType": "address",
          "name": "_batchAddress",
          "type": "address"
        },
        {
          "internalType": "address",
          "name": "_transporter",
          "type": "address"
        },
        {
          "internalType": "address",
          "name": "_receiver",
          "type": "address"
        },
        {
          "internalType": "int256",
          "name": "_latitude",
          "type": "int256"
        },
        {
          "internalType": "int256",
          "name": "_longitude",
          "type": "int256"
        }
      ],
      "name": "initiateTransfer",
      "outputs": [],
      "stateMutability": "nonpayable",
      "type": "function"
    },
    {
      "inputs": [
        {
          "internalType": "address",
          "name": "_batchAddress",
          "type": "address"
        },
        {
          "internalType": "int256",
          "name": "_latitude",
          "type": "int256"
        },
        {
          "internalType": "int256",
          "name": "_longitude",
          "type": "int256"
        }
      ],
      "name": "receivePackage",
      "outputs": [],
      "stateMutability": "nonpayable",
      "type": "function"
    },
    {
      "inputs": [
        {
          "internalType": "address",
          "name": "_batchAddress",
          "type": "address"
        },
        {
          "internalType": "int256",
          "name": "_latitude",
          "type": "int256"
        },
        {
          "internalType": "int256",
          "name": "_longitude",
          "type": "int256"
        }
      ],
      "name": "finalizeMedicineBatch",
      "outputs": [],
      "stateMutability": "nonpayable",
      "type": "function"
    },
    {
      "inputs": [
        {
          "internalType": "address",
          "name": "_batchAddress",
          "type": "address"
        },
        {
          "internalType": "bytes32",
          "name": "_reasonCode",
          "type": "bytes32"
        },
        {
          "internalType": "int256",
          "name": "_latitude",
          "type": "int256"
        },
        {
          "internalType": "int256",
          "name": "_longitude",
          "type": "int256"
        }
      ],
      "name": "markBatchDestroyed",
      "outputs": [],
      "stateMutability": "nonpayable",
      "type": "function"
    },
    {
      "inputs": [
        {
          "internalType": "bytes32",
          "name": "role",
          "type": "bytes32"
        },
        {
          "internalType": "address",
          "name": "account",
          "type": "address"
        }
      ],
      "name": "grantRole",
      "outputs": [],
      "stateMutability": "nonpayable",
      "type": "function"
    },
    {
      "inputs": [
        {
          "internalType": "bytes32",
          "name": "role",
          "type": "bytes32"
        },
        {
          "internalType": "address",
          "name": "account",
          "type": "address"
        }
      ],
      "name": "revokeRole",
      "outputs": [],
      "stateMutability": "nonpayable",
      "type": "function"
    },
    {
      "inputs": [
        {
          "internalType": "bytes32",
          "name": "role",
          "type": "bytes32"
        },
        {
          "internalType": "bytes32",
          "name": "adminRole",
          "type": "bytes32"
        }
      ],
      "name": "setRoleAdmin",
      "outputs": [],
      "stateMutability": "nonpayable",
      "type": "function"
    },
    {
      "inputs": [
        {
          "internalType": "address",
          "name": "newOwner",
          "type": "address"
        }
      ],
      "name": "transferOwnership",
      "outputs": [],
      "stateMutability": "nonpayable",
      "type": "function"
    },
    {
      "inputs": [
        {
          "internalType": "bytes32",
          "name": "role",
          "type": "bytes32"
        },
        {
          "internalType": "address",
          "name": "account",
          "type": "address"
        }
      ],
      "name": "hasRole",
      "outputs": [
        {
          "internalType": "bool",
          "name": "",
          "type": "bool"
        }
      ],
      "stateMutability": "view",
      "type": "function",
      "constant": true
    },
    {
      "inputs": [
        {
          "internalType": "bytes32",
          "name": "role",
          "type": "bytes32"
        }
      ],
      "name": "getRoleAdmin",
      "outputs": [
        {
          "internalType": "bytes32",
          "name": "",
          "type": "bytes32"
        }
      ],
      "stateMutability": "view",
      "type": "function",
      "constant": true
    },
    {
      "inputs": [
        {
          "internalType": "address",
          "name": "_batchAddress",
          "type": "address"
        }
      ],
      "name": "getRawMaterialDetailsInternal",
      "outputs": [
        {
          "internalType": "bytes32",
          "name": "description",
          "type": "bytes32"
        },
        {
          "internalType": "uint256",
          "name": "quantity",
          "type": "uint256"
        },
        {
          "internalType": "address",
          "name": "supplier",
          "type": "address"
        },
        {
          "internalType": "address",
          "name": "intendedManufacturer",
          "type": "address"
        },
        {
          "internalType": "uint256",
          "name": "creationTime",
          "type": "uint256"
        },
        {
          "internalType": "enum RawMaterial.Status",
          "name": "status",
          "type": "uint8"
        },
        {
          "internalType": "address",
          "name": "currentTransporter",
          "type": "address"
        },
        {
          "internalType": "uint256",
          "name": "lastUpdateTime",
          "type": "uint256"
        }
      ],
      "stateMutability": "view",
      "type": "function",
      "constant": true
    },
    {
      "inputs": [
        {
          "internalType": "address",
          "name": "_batchAddress",
          "type": "address"
        }
      ],
      "name": "getMedicineDetailsInternal",
      "outputs": [
        {
          "internalType": "bytes32",
          "name": "description",
          "type": "bytes32"
        },
        {
          "internalType": "uint256",
          "name": "quantity",
          "type": "uint256"
        },
        {
          "internalType": "address[]",
          "name": "rawMaterialBatchIds",
          "type": "address[]"
        },
        {
          "internalType": "address",
          "name": "manufacturer",
          "type": "address"
        },
        {
          "internalType": "uint256",
          "name": "creationTime",
          "type": "uint256"
        },
        {
          "internalType": "uint256",
          "name": "expiryDate",
          "type": "uint256"
        },
        {
          "internalType": "enum Medicine.Status",
          "name": "status",
          "type": "uint8"
        },
        {
          "internalType": "address",
          "name": "currentOwner",
          "type": "address"
        },
        {
          "internalType": "address",
          "name": "currentTransporter",
          "type": "address"
        },
        {
          "internalType": "address",
          "name": "currentDestination",
          "type": "address"
        },
        {
          "internalType": "uint256",
          "name": "lastUpdateTime",
          "type": "uint256"
        }
      ],
      "stateMutability": "view",
      "type": "function",
      "constant": true
    },
    {
      "inputs": [
        {
          "internalType": "address",
          "name": "_batchAddress",
          "type": "address"
        }
      ],
      "name": "getTransactionHistoryInternal",
      "outputs": [
        {
          "components": [
            {
              "internalType": "uint256",
              "name": "index",
              "type": "uint256"
            },
            {
              "internalType": "address",
              "name": "actor",
              "type": "address"
            },
            {
              "internalType": "address",
              "name": "involvedParty",
              "type": "address"
            },
            {
              "internalType": "bytes32",
              "name": "eventCode",
              "type": "bytes32"
            },
            {
              "internalType": "int256",
              "name": "latitude",
              "type": "int256"
            },
            {
              "internalType": "int256",
              "name": "longitude",
              "type": "int256"
            },
            {
              "internalType": "uint256",
              "name": "timestamp",
              "type": "uint256"
            },
            {
              "internalType": "bytes32",
              "name": "dataHash",
              "type": "bytes32"
            },
            {
              "internalType": "bytes32",
              "name": "previousLogHash",
              "type": "bytes32"
            }
          ],
          "internalType": "struct SupplyChainLogic.TxnLog[]",
          "name": "",
          "type": "tuple[]"
        }
      ],
      "stateMutability": "view",
      "type": "function",
      "constant": true
    },
    {
      "inputs": [
        {
          "internalType": "string",
          "name": "_roleName",
          "type": "string"
        }
      ],
      "name": "getRoleIdentifier",
      "outputs": [
        {
          "internalType": "bytes32",
          "name": "",
          "type": "bytes32"
        }
      ],
      "stateMutability": "pure",
      "type": "function",
      "constant": true
    }
  ],
  "bytecode": "0x6080806040523461001657615905908161001b8239f35b5f80fdfe608080604052600436101562000013575f80fd5b5f90813560e01c9081630e654f0a146200323a575080631815eecc146200311f5780631e4e00911462003092578063204d79231462003067578063248a9ca31462003044578063252e57c31462002a895780632f2ff15d14620029c55780634eabbe77146200299a57806372c4bfc2146200295d57806375b238fc146200293257806384a8b26214620024725780638da5cb5b146200244957806391d148541462002412578063965288b014620023e7578063a1726f041462002264578063a29508fc1462002239578063a3b2b49a1462002181578063b01339c314620018cc578063c35292c31462001463578063c4d66de8146200125e578063c810ca211462000b0f578063cd05f6c814620003d5578063d547741f1462000303578063d7cb8d3414620002d8578063eb7b82c9146200029b578063f0bd87cc1462000270578063f2fde38b14620001d85763fd840d46146200016f575f80fd5b34620001d5576020366003190112620001d5576004356001600160401b0391828211620001d55736602383011215620001d5578160040135928311620001d5573660248484010111620001d5576020620001cd846024850162003cb3565b604051908152f35b80fd5b5034620001d5576020366003190112620001d557620001f6620034d4565b8154906001600160a01b0380831691338390036200025e57169182156200024c576001600160a01b031916821783557f8be0079c531659141344cd1fd0a4f28419497f9722a3daafe3b4186f6b6457e08380a380f35b6040516332cdae1b60e01b8152600490fd5b6040516301763bff60e11b8152600490fd5b5034620001d55780600319360112620001d55760206040515f80516020620058108339815191528152f35b5034620001d5576020366003190112620001d5576020906040906001600160a01b03620002c7620034d4565b168152600683522054604051908152f35b5034620001d55780600319360112620001d55760206040515f80516020620058508339815191528152f35b5034620001d5576040366003190112620001d55760043562000324620034ef565b5f80516020620058b08339815191528214620003c3576001600160a01b031680156200024c57620003563383620039fe565b818352600160205260408320815f5260205260ff60405f20541662000379578280f35b818352600160205260408320815f5260205260405f2060ff19815416905533917ff6391f5c32d9c69d2a47ea670b442974b53935d1edc7fd64eb21e047a839171b8480a45f808280f35b60405163424ba67760e01b8152600490fd5b5034620001d557620003e7366200356d565b9092906001600160a01b0390838216801562000ad757808452602092600684526040852054801562000a98575f80516020620057b0833981519152604051868101906040825260076060820152665245434549564560c81b6080820152336040820152608081526200045981620035e6565b51902091036200074957604051631e7623c360e11b808252908681600481885afa908115620006105788916200070c575b508333911603620006675750620004a062003707565b6040516306db488d60e31b81528581600481875afa9081156200065c5787916200061b575b50936040516375422d4560e01b81528681600481885afa90811562000610578891620005d3575b5098843b15620005cf576040516301cacc3360e61b8152888082600481838b5af19182620005b3575b50506200054d5788620005276200375b565b604051600162bccdcb60e01b031981529182916200054991600484016200391a565b0390fd5b620005a4939496987fbd03eb97a9836c01a29e97fedda287dfd99148db3e233ca0e20dfc3afe42de7696989a7ff43de1032dc4b1f83a8ea9a075d2223ef915cce028148fa5b055c2aa88939be0915b339062003ad8565b6040519342855216933393a480f35b620005be9062003599565b620005cb57885f62000515565b8880fd5b8780fd5b90508681813d831162000608575b620005ed81836200361f565b81010312620005cf57620006019062003746565b5f620004ec565b503d620005e1565b6040513d8a823e3d90fd5b90508581813d831162000654575b6200063581836200361f565b810103126200065057620006499062003746565b5f620004c5565b8680fd5b503d62000629565b6040513d89823e3d90fd5b858488828b9460046040518095819382525afa928315620006ff578193620006be575b50506040516307ca14b960e31b81526001600160a01b03938416600482015291909216602482015233604482015260649150fd5b9091809350813d8311620006f7575b620006d981836200361f565b81010312620001d55750620006ee9062003746565b8280806200068a565b503d620006cd565b50604051903d90823e3d90fd5b90508681813d831162000741575b6200072681836200361f565b81010312620005cf576200073a9062003746565b5f6200048a565b503d6200071a565b6040516301b2073160e21b808252908681600481885afa9081156200061057889162000a5b575b5083339116036200066757506040516359c3f7c960e11b81528581600481875afa9081156200065c57879162000a1e575b50936040516375422d4560e01b81528681600481885afa90811562000610578891620009e1575b5098604051631006976960e11b81528781600481895afa908115620009d6578991620009a2575b5060098110156200098e576001810362000905575060025f80516020620058508339815191525b620008223382620036b9565b15620008e55750853b15620005cb57604051632d9bee3960e11b8152906200084f9060048301906200351d565b336024820152888082604481838b5af19182620008cd575b5050620008795788620005276200375b565b620005a4939496987fbd03eb97a9836c01a29e97fedda287dfd99148db3e233ca0e20dfc3afe42de7696989a7fe663177cfc67b87d3774c45fa957fc3c608669295ca1a054cfc4e2107d579cb2916200059c565b620008d89062003599565b620005cb57885f62000867565b60405163667c501d60e01b81523360048201526024810191909152604490fd5b6003810362000926575060045f805160206200581083398151915262000816565b6005810362000947575060065f805160206200587083398151915262000816565b8560ff60649260405192631d9b572f60e11b845260048401521660248201527f56ba99c71dd831c020a4dedbc22cd351ee9bc81378d14ca31c0d5692594d1b1c6044820152fd5b634e487b7160e01b89526021600452602489fd5b620009c79150883d8a11620009ce575b620009be81836200361f565b810190620039e4565b5f620007ef565b503d620009b2565b6040513d8b823e3d90fd5b90508681813d831162000a16575b620009fb81836200361f565b81010312620005cf5762000a0f9062003746565b5f620007c8565b503d620009ef565b90508581813d831162000a53575b62000a3881836200361f565b81010312620006505762000a4c9062003746565b5f620007a1565b503d62000a2c565b90508681813d831162000a90575b62000a7581836200361f565b81010312620005cf5762000a899062003746565b5f62000770565b503d62000a69565b604051634fc97bf360e01b8152600481018490527f56ba99c71dd831c020a4dedbc22cd351ee9bc81378d14ca31c0d5692594d1b1c6024820152604490fd5b60405163204c98b160e11b81527f286239ce7a4e2666d0d792f9b54bb56dd5b268c56670d85660923cc3fdd066886004820152602490fd5b5034620001d55760c0366003190112620001d5576001600160401b0360443511620001d557366023604435011215620001d5576001600160401b036044356004013511620001d5573660246044356004013560051b604435010111620001d55762000b7962003707565b6044356004013515620012275760243515620011f057426064351115620011b957805b60443560040135811062000efa575060405161105481818101106001600160401b03828401111762000ee65780829162003ded83393082820190815260048035602083015260248035604084015260c06060840181905262000c0993019160443590810135910162003999565b90336080828501015260a06064359184010152039082f08015620006ff576001600160a01b031690811562000ec057604081835f80516020620057908339815191529352600660205220556040516020810190600435825260243560408201526080606082015262000ca78162000c9060a082016044356004013560246044350162003999565b606435608083015203601f1981018352826200361f565b51902090805f52600560205260405f2054600460205260405f20928354906040519460208601908382526001600160601b03193360601b1660408801525f60548801527f89e9ad293be217547409da633e278b2fa8c4066c8b9900ba62bb24aad2a15f1494856068890152608435928360888a015260a435988960a88201524260c88201528560e88201526101088381830152815262000d478162003602565b519020936040519262000d5a84620035ad565b8684526020840199338b5260408501955f8752606086018a81526080870191825260a0870192835260c087019342855260e088019586526101008801968752600160401b8b101562000eac578a62000db8916001820181556200353f565b98909862000e995760209d600898518a5560018a019060018060a01b03905116906001600160601b0360a01b918282541617905560028a019160018060a01b039051169082541617905551600388015551600487015551600586015551600685015551600784015551910155835f52600585528060405f205560405192835242858401526040830152825f805160206200583083398151915260603394a4604051428152815f80516020620057908339815191527f0b77650363b744933f1f4ffbb8f5524878e14fbaea1a1ac6f37e1498908db353853394a4604051908152f35b634e487b7160e01b5f525f60045260245ffd5b634e487b7160e01b5f52604160045260245ffd5b6040516307de957160e51b81525f80516020620057908339815191526004820152602490fd5b634e487b7160e01b83526041600452602483fd5b604435600582901b016024013591906001600160a01b0383168303620011b5576001600160a01b038316156200117d576001600160a01b0383168252600660205260408220547f0da03e695f63b6729de7279e1261cc47c7f06dff156e8b184423e4a7c14ce2620162001136576040516307ddfc9d60e51b81526101009081816004816001600160a01b0389165afa809185938693620010bb575b505062000fc9578462000fa76200375b565b604051600162bccdcb60e01b031981529182916200054991600484016200379d565b600481959394951015620010a7576002036200106057336001600160a01b03909116036200101857505f198114620010045760010162000b9c565b634e487b7160e01b82526011600452602482fd5b60405163f465316d60e01b81526001600160a01b0390911660048201527ff90c3a3c059e2e4439c00711b6a97508df4b89405adce7aa02afc7da90cae4906024820152604490fd5b60405163f465316d60e01b81526001600160a01b03831660048201527fbb2ab8705ca6c09dbca09b95cc1a29bbae1ed39ffc8dc5fbf458aa6e3fc314046024820152604490fd5b634e487b7160e01b85526021600452602485fd5b819450809293503d83116200112e575b620010d781836200361f565b810103126200112a57620010ee6040830162003746565b50620010fd6060830162003746565b60a0830151926004841015620011265760c06200111b910162003746565b5091905f8062000f95565b8580fd5b8380fd5b503d620010cb565b60405163f465316d60e01b81526001600160a01b03841660048201527fd7e58ce0dc36caab08addc708381544b30ed0abdf99458e854fe3bc09cc11f636024820152604490fd5b60405163204c98b160e11b81527ffb1d5010d6b0458330f87a082e5f853315984e51a5c261b7b7138dc68d2379096004820152602490fd5b5080fd5b604051627c57b160e81b81527ffdec5c6f0767dd904b20a4c786ee1806010c9df9a69922df29f8d2ee82e954316004820152602490fd5b604051627c57b160e81b81527fde6fdf48511b2867fa79ee057db9fa722e704ead3140761adc270b6b2c3fdf766004820152602490fd5b604051627c57b160e81b81527f02bb6d2e4345ec6d078420cb8e229e4c922423b0f475c9a2af5c93f34bf2fc3d6004820152602490fd5b5034620001d5576020366003190112620001d5576200127c620034d4565b6003549060ff8216620014095760ff199182166001176003556001600160a01b0316908115620013b1577f7f26b83ff96e1f2b6a682f133852f6798a09c465da95921460cefb38474024986020836002946001600160601b0360a01b8754161786555f805160206200589083398151915286528482525f80516020620058b08339815191528060408820555f80516020620057f083398151915287528060408820555f80516020620057d083398151915287528060408820555f805160206200585083398151915287528060408820555f805160206200581083398151915287528060408820555f80516020620058708339815191528752604087205560405190867f8be0079c531659141344cd1fd0a4f28419497f9722a3daafe3b4186f6b6457e08180a3848152a1600354161760035580f35b60405162461bcd60e51b815260206004820152602a60248201527f496e69743a20496e697469616c206f776e65722063616e6e6f74206265207a65604482015269726f206164647265737360b01b6064820152608490fd5b60405162461bcd60e51b815260206004820152602c60248201527f496e697469616c697a65723a20636f6e747261637420697320616c726561647960448201526b081a5b9a5d1a585b1a5e995960a21b6064820152608490fd5b5034620001d55762001475366200356d565b92905f805160206200587083398151915292835f526020936001855260405f20335f52855260ff60405f20541615620018ae57506001600160a01b0390811694851562000ad757858452600685525f80516020620057908339815191526040852054036200186f576040516359c3f7c960e11b815285816004818a5afa9081156200186457859162001827575b508233911603620017e957853b156200112a57604051632daf1e8160e21b8152848082600481838c5af19182620017cd575b5050620015d3578486620015476200375b565b9060405192839163ff43323560e01b835260048301527fb604882a6e6dcfccdddbb19394c5dc0a20fbf150179bcfd976acdcec7efe57f36024830152606060448301528251908160648401525f935b828510620015b9575050608492505f838284010152601f80199101168101030190fd5b848101820151868601608401529381019385935062001596565b6040959395518581019060408252600960608201526811925390531256915160ba1b6080820152336040820152608081526200160f81620035e6565b51902091845f526005865260405f2054936004875260405f2094855494604051968988018781526001600160601b03193360601b1660408a01525f60548a01527f0cb1cbd89f0b3067076b793fed6e29ca3a6080fd84e6d38c7832d7546ac83c5f988960688201528560888201528760a88201524260c88201528360e882015261010885818301528152620016a48162003602565b5190209560405194620016b786620035ad565b8886528b8601338152604087015f815260608801918c83526080890193845260a0890194855260c089019542875260e08a019788526101008a01988952600160401b8d101562000eac578c62001713916001820181556200353f565b9a909a62000e9957600899518b558060018c01925116916001600160601b0360a01b928382541617905560028b019251169082541617905551600388015551600487015551600586015551600685015551600784015551910155835f52600585528060405f205560405192835242858401526040830152825f805160206200583083398151915260603394a47f7550fdb712ef60e6e1cbf9f9494f0813427e9a11ceb17efb4e8f89ec4012a643604051924284523393a380f35b620017d89062003599565b620017e557845f62001534565b8480fd5b6040516328df97cf60e01b81523360048201527f399e4c824df95a6daf23136598a04815dbcfabe69d13dc159d7381d8dfb6fb816024820152604490fd5b90508581813d83116200185c575b6200184181836200361f565b81010312620017e557620018559062003746565b5f62001502565b503d62001835565b6040513d87823e3d90fd5b604051634fc97bf360e01b8152600481018790527fb604882a6e6dcfccdddbb19394c5dc0a20fbf150179bcfd976acdcec7efe57f36024820152604490fd5b6044906040519063667c501d60e01b82523360048301526024820152fd5b5034620001d55760a0366003190112620001d557620018ea620034d4565b90620018f5620034ef565b620018ff62003506565b6001600160a01b03919084831690811562000ad757838316938415620021495780821693841562002111575f8681527f10c65dc6ccb122c404dfd5b8ca8da1f1d1bf8aeef955ec62812c44d3068970ae60209081526040909120549093905f80516020620057f08339815191529060ff1615620020cd57508488526006845260408820549283156200208e57604051908582018981528860408401526040835260608301908382106001600160401b0383111762000eac57604082905283519020955f80516020620057b08339815191520362001d0557506040516306db488d60e31b815290915085816004818a5afa90811562001cfa578a9162001cb9575b50813391160362001c7b57604051631e7623c360e11b808252919086816004818b5afa90811562001c7057908992918c9162001c2a575b50160362001b8d575062001a4a9062003641565b1562001b3a57833b15620006505760405163f356e93f60e01b815260048101879052878082602481838a5af1918262001b22575b505062001ab2578762001a906200375b565b604051600162bccdcb60e01b031981529182916200054991600484016200389b565b62001aee9293949596977fc9c4faacb16b02db1bfb8ab71416591a98400def26bb74f4faf06f20feb89ce35b6084359260643592339062003ad8565b60405192835242908301527fe3ae95e88ea3f4ef8bee453e29edab14d2b582b66a65af6d0aa0292d00585d7860403393a480f35b62001b2d9062003599565b620005cf57875f62001a7e565b60405163324ec88b60e01b8152600481018690525f80516020620057d083398151915260248201527f4b3220c5d0318ae8272ca7c0385952c2e61f81654ebb7c78ac6876eb9803d7a16044820152606490fd5b60405190815284918a918a84826004818c5afa948515620006ff57819562001be3575b50506040516307ca14b960e31b81526001600160a01b039384166004820152938316602485015250166044820152606490fd5b909180939550813d831162001c22575b62001bff81836200361f565b81010312620001d5575062001c18620005499162003746565b9290848062001bb0565b503d62001bf3565b80929350888092503d831162001c68575b62001c4781836200361f565b8101031262001c64579062001c5d899262003746565b5f62001a36565b8a80fd5b503d62001c3b565b6040513d8d823e3d90fd5b6040516328df97cf60e01b81523360048201527f1087cb85eb55cf7f860f099b2332eb5e8a55299b4fdf01b23845783edb9fcb836024820152604490fd5b90508581813d831162001cf2575b62001cd381836200361f565b8101031262001cee5762001ce79062003746565b5f620019ff565b8980fd5b503d62001cc7565b6040513d8c823e3d90fd5b6359c3f7c960e11b815286816004818b5afa92831562001c705787908c946200204d575b50505033911603620017e957604051631006976960e11b81528481600481895afa908115620009d65789916200202b575b5060098110156200098e578062001e7d575062001d7662003707565b5f80516020620058508339815191525f526001845260405f20865f52845260ff60405f2054165f1462001e46575060015b843b15620005cf5760405163031a78e760e11b81529062001dcd9060048301906200351d565b866024820152856044820152878082606481838a5af1918262001e2e575b505062001dfd578762001a906200375b565b62001aee9293949596977f5fb1bfab8c976da190bda996b015c768e51d51c082a11cd3760ccb4bbfbc856562001ade565b62001e399062003599565b620005cf57875f62001deb565b62001e51906200367d565b1562001e5f57600362001da7565b604485886040519163095fa6f160e41b835260048301526024820152fd5b6002810362001f2157505f8051602062005850833981519152805f526001855260405f20335f52855260ff60405f20541615620018ae575062001ec0906200367d565b1562001ece57600362001da7565b60405163324ec88b60e01b8152600481018690525f805160206200581083398151915260248201527fe430cc1a51456bc8b3415ae23c1a65609649e65b8b38efbcc0d6174299f061fc6044820152606490fd5b90506004810362001fe4575062001f38336200367d565b1562001fb8575f8051602062005870833981519152805f526001845260405f20865f52845260ff60405f2054161562001f745750600562001da7565b856064916040519163324ec88b60e01b8352600483015260248201527fe430cc1a51456bc8b3415ae23c1a65609649e65b8b38efbcc0d6174299f061fc6044820152fd5b60405163667c501d60e01b81523360048201525f80516020620058108339815191526024820152604490fd5b8460ff60649260405192631d9b572f60e11b845260048401521660248201527f822fba778ff1a1b597adf499ec595adc09b97e69eb98cb094c35583e3ae73f996044820152fd5b620020469150853d8711620009ce57620009be81836200361f565b5f62001d5a565b9080929394503d831162002086575b6200206881856200361f565b8101031262001cee576200207c9062003746565b905f868162001d29565b503d6200205c565b604051634fc97bf360e01b8152600481018790527f822fba778ff1a1b597adf499ec595adc09b97e69eb98cb094c35583e3ae73f996024820152604490fd5b876064916040519163324ec88b60e01b8352600483015260248201527f1da3000d226bde55fb3a7c07d7dc2aab004ace414aadc42e21605084cc9327716044820152fd5b60405163204c98b160e11b81527f5e784e45feb63c375016d4ce5c52a57b0a48b8a170bc2e31463be0d03d1c4db66004820152602490fd5b60405163204c98b160e11b81527fb1ecd7d16ddb5dea4d7e529640299f7d2be2f8ca295672c754a04286db17c2386004820152602490fd5b5034620001d5576040366003190112620001d5576200219f620034d4565b6001600160a01b03908116825260046020526040822080546024359390841015620001d5575061012092620021d4916200353f565b50908154918160018201541691600282015416600382015460048301546005840154916006850154936008600787015496015496604051988952602089015260408801526060870152608086015260a085015260c084015260e0830152610100820152f35b5034620001d55780600319360112620001d55760206040515f80516020620058908339815191528152f35b5034620001d55760209081600319360112620001d5576001600160a01b039190826200228f620034d4565b1681526004825260408120908154620022a88162003c9b565b90620022b860405192836200361f565b8082528482018094845285842084915b8383106200236557505050506040519380850191818652518092526040850193925b828110620022f85785850386f35b83518051865280830151881686840152604080820151891690870152606080820151908701526080808201519087015260a0808201519087015260c0808201519087015260e0808201519087015261010090810151908601526101209094019392810192600101620022ea565b60098860019260409a97989a516200237d81620035ad565b855481528c8587015416838201528c60028701541660408201526003860154606082015260048601546080820152600586015460a0820152600686015460c0820152600786015460e0820152600886015461010082015281520192019201919096949396620022c8565b5034620001d55780600319360112620001d55760206040515f80516020620057d08339815191528152f35b5034620001d5576040366003190112620001d55760206200243f62002436620034ef565b600435620036b9565b6040519015158152f35b5034620001d55780600319360112620001d557546040516001600160a01b039091168152602090f35b5034620001d55760a0366003190112620001d5576200249062003506565b335f9081527f2eb872027696328c5aed9fb69fabf3409a88d51ea413e698947699cbf4e5c34f60205260409020549091905f80516020620058908339815191529060ff1615620018ae57506001600160a01b03821615620028fa576024358015620011f057620025008362003641565b156200289f5760405161094f808201916001600160401b0391818410838511176200288b5762004e41823930835260043560208401819052604084018590523360608501526001600160a01b03871660808501529281900360a0019085f09384156200287f576001600160a01b03851615620028595760405f80516020620057b08339815191529160018060a01b0387168152600660205220556040519260208401928352604084015260018060a01b0385166060840152606083528260808101109060808401111762000eac57608082016040528151902060018060a01b0383165f52600560205260405f2054600460205260405f20908154928360a08601526001600160601b0319803360601b1660c08701528760601b1660d48601527fb5e58e2066c191bc0a2cc0ee566de21514395220ba7529cd369470e9016a692860e88601526064359461010890868282015260843591826101288301524261014883015283610168830152846101888301526080820152620026856080820162003602565b60a0608082015191012095604051986200269f8a620035ad565b868a523360208b01526001600160a01b031660408a01527fb5e58e2066c191bc0a2cc0ee566de21514395220ba7529cd369470e9016a692860608a0152608089015260a08801524260c088015260e0870152610100860152600160401b82101562000eac578162002716916001820181556200353f565b62000e99576008610100866020975184556001840160018060a01b038983015116906001600160601b0360a01b9182825416179055600285019060018060a01b0360408401511690825416179055606081015160038501556080810151600485015560a0810151600585015560c0810151600685015560e08101516007850155015191015560018060a01b0383165f52600584528160405f2055604051917fb5e58e2066c191bc0a2cc0ee566de21514395220ba7529cd369470e9016a692883524285840152604083015233915f8051602062005830833981519152606060018060a01b03861692a460405142815233906001600160a01b038316905f80516020620057b0833981519152907f0b77650363b744933f1f4ffbb8f5524878e14fbaea1a1ac6f37e1498908db353908690a46040516001600160a01b039091168152f35b6040516307de957160e51b81525f80516020620057b08339815191526004820152602490fd5b604051903d90823e3d90fd5b634e487b7160e01b86526041600452602486fd5b60405163324ec88b60e01b81526001600160a01b03841660048201525f80516020620057d083398151915260248201527f4b3220c5d0318ae8272ca7c0385952c2e61f81654ebb7c78ac6876eb9803d7a16044820152606490fd5b60405163204c98b160e11b81527f5ec37373a1aae2bc7720939b3b0ce73d30a9637033563ec7deddbff6c856d12d6004820152602490fd5b5034620001d55780600319360112620001d55760206040515f80516020620058b08339815191528152f35b5034620001d5576020366003190112620001d5576020906040906001600160a01b0362002989620034d4565b168152600583522054604051908152f35b5034620001d55780600319360112620001d55760206040515f80516020620057f08339815191528152f35b5034620001d5576040366003190112620001d557600435620029e6620034ef565b5f80516020620058b08339815191528214620003c3576001600160a01b031680156200024c5762002a183383620039fe565b818352600160205260408320815f5260205260ff60405f2054161562002a3c578280f35b818352600160205260408320815f5260205260405f20600160ff1982541617905533917f2f8788117e7eff1d82e926ec794901d17c78024a50270940304540a733656f0d8480a45f808280f35b5034620001d5576080366003190112620001d55762002aa7620034d4565b9060248035906001600160a01b0384169060643560443583156200300d578386526006602052604086205492831562002fd05760018060a01b0387541633145f80516020620057b08339815191526040516020810190604082526009606082015268111154d51493d6515160ba1b60808201528960408201526080815262002b2f81620035e6565b519020950362002e8757158062002e0b575b62002dce57843b156200065057604051633ff08b0560e01b8152600481018790528780828481838b5af1918262002db6575b505062002ba7578762002b856200375b565b604051600162bccdcb60e01b031981529182916200054991600484016200381c565b90919293949596507f196aeeb4bf6d1157102d3b58f5c5c6e849682aa43ade23903ea70562e858407f935b855f52600560205260405f205490600460205260405f209182549560405160208101908882526001600160601b03193360601b1660408201525f60548201528960688201528760888201528260a88201524260c88201528460e88201526101088481830152815262002c448162003602565b519020956040519462002c5786620035ad565b8886526020860133815260408701905f825260608801928c84526080890194855260a0890195865260c089019642885260e08a019889526101008a0152600160401b8c101562002da3578b62002cb3916001820181556200353f565b99909962002d9257509187959391610100979593600899518b5560018b019060018060a01b03905116906001600160601b0360a01b918282541617905560028b019160018060a01b03905116908254161790555160038901555160048801555160058701555160068601555160078501550151910155835f5260056020528060405f20556040519283524260208401526040830152825f805160206200583083398151915260603394a46040519182524260208301527f809b6d70a1b73a13924cc2c372e262337af228512a4158b7bc0c76329d6be53560403393a380f35b634e487b7160e01b5f525f6004525ffd5b89634e487b7160e01b5f5260416004525ffd5b62002dc19062003599565b620005cf57875f62002b73565b6044907f42395e1291afc1b966d1b1eefbff10c1c348db2994068d134b2ccc9662ba4e26604051916328df97cf60e01b8352336004840152820152fd5b506040516306db488d60e31b8152602081600481895afa9081156200061057889162002e45575b506001600160a01b031633141562002b41565b90506020813d60201162002e7e575b8162002e63602093836200361f565b81010312620005cf5762002e779062003746565b5f62002e32565b3d915062002e54565b158062002f54575b62002f1757843b156200065057604051633ff08b0560e01b81526004810187905287818381838a5af1908162002f01575b5062002ed1578762002b856200375b565b90919293949596507fe6b6c948be36d77a40d4812ce8dbd1d7fe96ffbbb7d6cf50c30fe3e7e31b986c9362002bd2565b62002f0f9098919862003599565b965f62002ec0565b6044907fe5b3251b45eb4f44420fb91d8cccb2c4f2737a2623341e00e2f4cbed4ab59743604051916328df97cf60e01b8352336004840152820152fd5b506040516359c3f7c960e11b8152602081600481895afa9081156200061057889162002f8e575b506001600160a01b031633141562002e8f565b90506020813d60201162002fc7575b8162002fac602093836200361f565b81010312620005cf5762002fc09062003746565b5f62002f7b565b3d915062002f9d565b847f47021dfd1ce59972f59ea65ed9278a8986e653f7b65422c94eb78c23a9b24b9660449260405192634fc97bf360e01b84526004840152820152fd5b60405163204c98b160e11b81527f286239ce7a4e2666d0d792f9b54bb56dd5b268c56670d85660923cc3fdd0668860048201528390fd5b5034620001d5576020366003190112620001d5576020620001cd60043562003a9e565b5034620001d55780600319360112620001d55760206040515f80516020620058708339815191528152f35b5034620001d5576040366003190112620001d5576024356004355f80516020620058b08339815191528114620003c35782546001600160a01b031633036200025e5780835260026020526040832090815491838303620030f0578480f35b8390557fbd79b86ffe0ab8e8776151514217cd7cacd52c909f66475c3af44e129f0b00ff8480a45f8080808480f35b5034620001d5576020366003190112620001d5576200313d620034d4565b90808060405160208101906307ddfc9d60e51b8252600481526200316181620035ca565b5190855afa91620031716200375b565b9215620032175750610100918281805181010312620011b557602081015191604082015191620031a46060820162003746565b91620031b36080830162003746565b9260a08301519060c0840151926004841015620001d5575087620031da60e0860162003746565b94015195604051978852602088015260018060a01b0394858092166040890152166060870152608086015260a08501521660c083015260e0820152f35b604051600162bccdcb60e01b03198152928392506200054991600484016200379d565b905034620011b5576020366003190112620011b55781806200325b620034d4565b6307ddfc9d60e51b602085019081526004855290936200327b81620035ca565b5190845afa906200328b6200375b565b91156200344457508051810161016082602083019203126200344057602082015160408301519260608101516001600160401b038111620011265781019183603f840112156200112657602083015193620032e68562003c9b565b93620032f660405195866200361f565b85855260208501906040829760051b820101928311620005cb57604001905b82821062003425575050506200332e6080830162003746565b9060a083015160c084015160e085015191600983101562001cee576200335b610100879b959b0162003746565b936200336b610120880162003746565b9a6101606200337e6101408a0162003746565b980151986040519b6101608d01928d5260208d015261016060408d0152518091526101808b0199915b81811062003405575050506001600160a01b0394851660608a0152608089015260a08801529596879692939284928391620033e79060c08b01906200351d565b1660e088015216610100860152166101208401526101408301520390f35b82516001600160a01b03168b5260209a8b019a90920191600101620033a7565b60208091620034348462003746565b81520191019062003315565b8280fd5b60405192839163ff43323560e01b835260018060a01b031660048301527f40ca0916f852204a55a0adf9d359c24f89bc3ceef09a35ec105f5bee4b0b58a3602483015260606044830152825192836064840152815b848110620034bb57505091608492838284010152601f80199101168101030190fd5b6020828201810151608488840101528694500162003499565b600435906001600160a01b0382168203620034eb57565b5f80fd5b602435906001600160a01b0382168203620034eb57565b604435906001600160a01b0382168203620034eb57565b9060098210156200352b5752565b634e487b7160e01b5f52602160045260245ffd5b805482101562003559575f52600960205f20910201905f90565b634e487b7160e01b5f52603260045260245ffd5b6060906003190112620034eb576004356001600160a01b0381168103620034eb57906024359060443590565b6001600160401b03811162000eac57604052565b61012081019081106001600160401b0382111762000eac57604052565b604081019081106001600160401b0382111762000eac57604052565b60a081019081106001600160401b0382111762000eac57604052565b61014081019081106001600160401b0382111762000eac57604052565b90601f801991011681019081106001600160401b0382111762000eac57604052565b6001600160a01b03165f9081527f9bf69c02ecb57bec2332bd5ee59fccb5621131eaae23124e1464351ca514c162602052604090205460ff1690565b6001600160a01b03165f9081527f210932760c18fe8bc12f9d1bd245c25c0f21fa2541f289eb5b159588ce1f7b3f602052604090205460ff1690565b5f80516020620058b08339815191528114620036f3575f52600160205260405f209060018060a01b03165f5260205260ff60405f20541690565b505f546001600160a01b0391821691161490565b620037123362003641565b156200371a57565b60405163667c501d60e01b81523360048201525f80516020620057d08339815191526024820152604490fd5b51906001600160a01b0382168203620034eb57565b3d1562003798573d906001600160401b03821162000eac57604051916200378d601f8201601f1916602001846200361f565b82523d5f602084013e565b606090565b9092919260018060a01b031681526020927f9dc5eea1c6277f2c5c8ea360893c67db7460ac578489da6c81cf7d69283e1e3684830152606060408301528051908160608401525f5b8281106200380757505060809293505f838284010152601f8019910116010190565b818101860151848201608001528501620037e5565b9092919260018060a01b031681526020927f47021dfd1ce59972f59ea65ed9278a8986e653f7b65422c94eb78c23a9b24b9684830152606060408301528051908160608401525f5b8281106200388657505060809293505f838284010152601f8019910116010190565b81810186015184820160800152850162003864565b9092919260018060a01b031681526020927f822fba778ff1a1b597adf499ec595adc09b97e69eb98cb094c35583e3ae73f9984830152606060408301528051908160608401525f5b8281106200390557505060809293505f838284010152601f8019910116010190565b818101860151848201608001528501620038e3565b9092919260018060a01b031681526020927f56ba99c71dd831c020a4dedbc22cd351ee9bc81378d14ca31c0d5692594d1b1c84830152606060408301528051908160608401525f5b8281106200398457505060809293505f838284010152601f8019910116010190565b81810186015184820160800152850162003962565b9190808252602080920192915f805b838210620039b857505050505090565b9091929394853560018060a01b03811680910362003440578152830194830193929160010190620039a8565b90816020910312620034eb57516009811015620034eb5790565b62003a099062003a9e565b5f80516020620058b08339815191529080820362003a5a57505f546001600160a01b039283169216820362003a3c575050565b604492506040519163dab24d5d60e01b835260048301526024820152fd5b91905062003a698183620036b9565b1562003a73575050565b60405163dab24d5d60e01b81526001600160a01b039190911660048201526024810191909152604490fd5b5f80516020620058b08339815191529081811462003ad4575f52600260205260405f205480155f1462003acf575090565b905090565b5090565b9593929360018060a01b0387165f52600560205260405f2054600460205260405f209182549760405160208101908a82526001600160601b0319808860601b1660408301528860601b1660548201528960688201528860888201528260a88201524260c88201528360e88201526101088581830152815262003b5a8162003602565b519020966040519662003b6d88620035ad565b8a88526001600160a01b0387811660208a015216604088015260608701899052608087015260a08601524260c086015260e0850152610100840152600160401b86101562000eac578562003bc7916001820181556200353f565b93909362000e99575f8051602062005830833981519152936008610100856060965184556001840160018060a01b03602083015116906001600160601b0360a01b9182825416179055600285019060018060a01b03604084015116908254161790558681015160038501556080810151600485015560a0810151600585015560c0810151600685015560e08101516007850155015191015560018060a01b0387165f5260056020528060405f2055604051948552426020860152604085015260018060a01b03169460018060a01b031692a4565b6001600160401b03811162000eac5760051b60200190565b9062003cd9602060405183819483830196873781015f838201520380845201826200361f565b5190205f80516020620058b08339815191528114801562003dd4575b801562003dbc575b801562003da4575b801562003d8c575b801562003d74575b801562003d5c575b62003d5957604051627c57b160e81b81527f1c05b3cd89fc8d37eac7338f97dd6d678466f8b46cffd70e3cfe1b9d7413b35a6004820152602490fd5b90565b505f8051602062005870833981519152811462003d1d565b505f8051602062005810833981519152811462003d15565b505f8051602062005850833981519152811462003d0d565b505f80516020620057d0833981519152811462003d05565b505f80516020620057f0833981519152811462003cfd565b505f8051602062005890833981519152811462003cf556fe6040610160815234620002b95762001054803803806200001f81620002bd565b928339810160c082820312620002b9576200003a82620002e3565b926020938484015192828501519060608601519060018060401b0391828111620002b95787019281601f85011215620002b9578351918383116200027a578260051b948a6200008b818801620002bd565b80958152018b8197830101928311620002b9578b809201905b8382106200029f575050505060a0620000c060808a01620002e3565b980151966001600160a01b0395808716156200028e573060805260a05260c05260e052519081116200027a576801000000000000000081116200027a575f91825482845580831062000252575b50828052878320835b8381106200023d57505050507fc13a1166d81cd3b0b352a367aebab95f3a6f6bc695fdab8e9a9d335239c3861b610100968688526101409586526101209642885260015490610100600160a81b039060081b169060018060a81b031916179384600155426004557f40a180796b90921dd8508eb434c78206ca5c737a0d584582edf399bc9711d9e98680518681524285820152a185519442865260081c1693a35191610d5b9384620002f9853960805184610807015260a0518481816103490152818161048501528181610591015281816108550152610ae9015260c05184818161018a0152610539015260e0518481816101af0152610a020152518381816101f101526104f201525182818161021801526102eb01525181818161023e01526107cf0152f35b82518616828201559189019160010162000116565b8380528289852091820191015b8181106200026e57506200010d565b8481556001016200025f565b634e487b7160e01b5f52604160045260245ffd5b87516332cdae1b60e01b8152600490fd5b828091620002ad84620002e3565b815201910190620000a4565b5f80fd5b6040519190601f01601f191682016001600160401b038111838210176200027a57604052565b51906001600160a01b0382168203620002b95756fe608060409080825260049081361015610016575f80fd5b5f90813560e01c9081630634f1ce14610aa45750806306c81cc414610a7b5780630c16971914610a2557806317fc45e2146109ea578063200d2ed2146109c15780633ff08b05146108365780634972134a146107f2578063516dde43146107b75780635b37dc721461055c5780637284e4161461052157806374754282146104dd57806375422d45146104b4578063a269cc7a14610470578063b387ef9214610443578063b6bc7a0414610335578063c8f33c9114610312578063d8270dce146102d35763fbbf93a0146100e8575f80fd5b346102d057806003193601126102d057600192835460018060a01b03806002541690806003541692865494805180978054988983526020808094018d819c8580527f290decd9548b62a8d60345a988386fc84ba6bc95484008f6362f93160ef3e56391865b8281106102b95750505050829003601f01601f191682019b905067ffffffffffffffff8c11828d10176102a657508a8493929452610160808c01937f00000000000000000000000000000000000000000000000000000000000000008d528c847f00000000000000000000000000000000000000000000000000000000000000009101528c0152518092526101808a0198925b8281106102915750505050869750817f00000000000000000000000000000000000000000000000000000000000000001660608801527f000000000000000000000000000000000000000000000000000000000000000060808801527f000000000000000000000000000000000000000000000000000000000000000060a088015261027260c0880160ff8316610ccb565b60081c1660e08601526101008501526101208401526101408301520390f35b835186168a5298810198928101928b016101e0565b634e487b7160e01b835260419052602482fd5b83548c16855288959094019392810192810161014d565b80fd5b50823461030e578160031936011261030e57602090517f00000000000000000000000000000000000000000000000000000000000000008152f35b5080fd5b5091903461033157826003193601126103315760209250549051908152f35b8280fd5b50823461030e578160031936011261030e577f00000000000000000000000000000000000000000000000000000000000000006001600160a01b038116330361041657506001549260ff8416600981101561040357600681036103e9575060075f80516020610d06833981519152939460ff1916176001554290557f5cff112f1cb588779b4e6aae6baf0d738747fcf132f0ff202adcec605f9cabdf60208251428152a1805160078152426020820152a180f35b604492519162f4e13b60e71b835282015260066024820152fd5b634e487b7160e01b845260218252602484fd5b81516377afbad160e11b8152338186019081526001600160a01b0390921660208301529081906040010390fd5b50823461030e578160031936011261030e57600154905160089190911c6001600160a01b03168152602090f35b50823461030e578160031936011261030e57517f00000000000000000000000000000000000000000000000000000000000000006001600160a01b03168152602090f35b50823461030e578160031936011261030e5760025490516001600160a01b039091168152602090f35b50823461030e578160031936011261030e57517f00000000000000000000000000000000000000000000000000000000000000006001600160a01b03168152602090f35b50823461030e578160031936011261030e57602090517f00000000000000000000000000000000000000000000000000000000000000008152f35b50919034610331578160031936011261033157803590600982101590816107b357610585610cb1565b926001600160a01b03907f0000000000000000000000000000000000000000000000000000000000000000828116330361078657506001549360ff85169060098210158061071757600183141580610779575b8181610768575b506107375760028414158061072a575b8281610706575b506106ab57895f80516020610d068339815191528a60ff6106a18c8c8c7fc13a1166d81cd3b0b352a367aebab95f3a6f6bc695fdab8e9a9d335239c3861b60208e6106408f610cec565b60018054610100600160a81b03198116600898891b610100600160a81b03161791829055600280546001600160a01b031990811690915560038054909116905542958690558a519586529690811c821695901c1692a3835192839116610ccb565b426020820152a180f35b888a879386936106f3576106e05750516368c187fb60e11b815260ff9384169281019283529216602082015281906040010390fd5b634e487b7160e01b815260218452602490fd5b634e487b7160e01b825260218552602482fd5b9050610717576006841415826105f6565b634e487b7160e01b8a526021865260248afd5b50899150838614156105ef565b85848a8c86946106e05750516368c187fb60e11b815260ff9384169281019283529216602082015281906040010390fd5b9050610717576005831415816105df565b50508860038314156105d8565b86516377afbad160e11b8152338186019081526001600160a01b0390921660208301529081906040010390fd5b8480fd5b50823461030e578160031936011261030e57602090517f00000000000000000000000000000000000000000000000000000000000000008152f35b50823461030e578160031936011261030e57517f00000000000000000000000000000000000000000000000000000000000000006001600160a01b03168152602090f35b50919034610331576020366003190112610331576001600160a01b03907f0000000000000000000000000000000000000000000000000000000000000000828116330361099457506001549160ff831660098110156109815760088114908115610976575b5061096757917f3e6f997c58cb1412e97320e1a9863980eb67e8223fab083f2e77b8afb8c8c46084869360085f80516020610d06833981519152979685821c16946affffffffffffffffffffff60a81b16176001556bffffffffffffffffffffffff60a01b806002541660025560035416600355428155815190358152426020820152a180610937575b5050805160088152426020820152a180f35b7fc13a1166d81cd3b0b352a367aebab95f3a6f6bc695fdab8e9a9d335239c3861b60208451428152a3825f610925565b5082516357028d4d60e11b8152fd5b60079150145f61089b565b634e487b7160e01b865260218352602486fd5b83516377afbad160e11b8152339281019283526001600160a01b0390911660208301529081906040010390fd5b50823461030e578160031936011261030e576020906109e860ff6001541691518092610ccb565bf35b50823461030e578160031936011261030e57602090517f00000000000000000000000000000000000000000000000000000000000000008152f35b509190346103315760203660031901126103315735825481101561033157826020935260018060a01b03907f290decd9548b62a8d60345a988386fc84ba6bc95484008f6362f93160ef3e5630154169051908152f35b50823461030e578160031936011261030e5760035490516001600160a01b039091168152602090f35b8491503461033157606036600319011261033157833593600985101591826107b357610ace610cb1565b6001600160a01b0360443581811695919390869003610cad577f00000000000000000000000000000000000000000000000000000000000000008481163303610c8357505060ff6001541690600982101580610c145782151580610c76575b8181610c66575b50610c355760018a141580610c27575b8281610c03575b50610bce57505050610b6b5f80516020610d068339815191529697610cec565b1690826bffffffffffffffffffffffff60a01b8381600254161760025560035416176003554290557fbe373ec085c6b0c7d8170b85a932cee817c77c259c2fe969f9867170ef1c403160208451428152a360ff600154166106a182518092610ccb565b878987938c936106f3576106e05750516368c187fb60e11b815260ff9384169281019283529216602082015281906040010390fd5b9050610c145760058a141582610b4b565b634e487b7160e01b895260218652602489fd5b5088915060038a1415610b44565b858a898b86946106e05750516368c187fb60e11b815260ff9384169281019283529216602082015281906040010390fd5b9050610c14578583141581610b34565b5050876002831415610b2d565b6377afbad160e11b8252338683019081526001600160a01b03909116602082015281906040010390fd5b8780fd5b602435906001600160a01b0382168203610cc757565b5f80fd5b906009821015610cd85752565b634e487b7160e01b5f52602160045260245ffd5b6009811015610cd85760ff80196001541691161760015556fe40a180796b90921dd8508eb434c78206ca5c737a0d584582edf399bc9711d9e9a2646970667358221220b2503b4f0b35703d2489cb53e8e86c093848c3559a719462ef59ce9de6d4060164736f6c634300081400336101603461018757601f61094f38819003918201601f1916830191906001600160401b0383118484101761018b578160a092859260409586528339810103126101875761004b8261019f565b906020830151818401519061006e60806100676060880161019f565b960161019f565b936001600160a01b0380821615610176578087161561017657851615610165573060805260a05260c05260e0526101009283526101209182526101409042825260ff195f54165f55426001557f40a180796b90921dd8508eb434c78206ca5c737a0d584582edf399bc9711d9e98180515f8152426020820152a1519161079b93846101b4853960805184610534015260a0518481816101f001528181610382015281816103f10152610578015260c05184818160d501526104fc015260e05184818160f8015261072101525183818161012601526106b40152518281816101500152610670015251818181610178015261032b0152f35b83516332cdae1b60e01b8152600490fd5b84516332cdae1b60e01b8152600490fd5b5f80fd5b634e487b7160e01b5f52604160045260245ffd5b51906001600160a01b03821682036101875756fe6080604081815260049182361015610015575f80fd5b5f92833560e01c91826317fc45e21461070a57508163200d2ed2146106e357816336da44681461069f5781633cec47861461065b5781633ff08b05146105635781634972134a1461051f5781637284e416146104e457816372b30cc0146103dd57816375422d45146103b1578163a269cc7a1461036d578163c8f33c911461034e578163d8270dce14610313578163f356e93f146101c6575063fbbf93a0146100bc575f80fd5b346101c257816003193601126101c257905460015482517f000000000000000000000000000000000000000000000000000000000000000081527f000000000000000000000000000000000000000000000000000000000000000060208201526001600160a01b037f00000000000000000000000000000000000000000000000000000000000000008116948201949094527f0000000000000000000000000000000000000000000000000000000000000000841660608201527f000000000000000000000000000000000000000000000000000000000000000060808201526101009390926101b260a0850160ff8316610744565b60081c1660c083015260e0820152f35b5080fd5b8383346101c25760203660031901126101c2576001600160a01b0383358181169182820361030f577f000000000000000000000000000000000000000000000000000000000000000090811633036102e2575083549460ff8616818110156102cf57806102b45750507f40a180796b90921dd8508eb434c78206ca5c737a0d584582edf399bc9711d9e993946001916101008360a81b039060081b16906affffffffffffffffffffff60a81b1617178455426001557f49072639b22410ad80b7e5968b8b4fc20b3aefc410e681b79a1db7cb0b7ce33660208351428152a2805160018152426020820152a180f35b845162f4e13b60e71b81529182015260248101859052604490fd5b634e487b7160e01b865260218252602486fd5b83516377afbad160e11b8152338188019081526001600160a01b0390921660208301529081906040010390fd5b8480fd5b5050346101c257816003193601126101c257602090517f00000000000000000000000000000000000000000000000000000000000000008152f35b5050346101c257816003193601126101c2576020906001549051908152f35b5050346101c257816003193601126101c257517f00000000000000000000000000000000000000000000000000000000000000006001600160a01b03168152602090f35b5050346101c257816003193601126101c2579054905160089190911c6001600160a01b03168152602090f35b9050346104e057826003193601126104e0577f00000000000000000000000000000000000000000000000000000000000000006001600160a01b03811633036104b4575082549060ff8216818110156104a1576001810361048557847f40a180796b90921dd8508eb434c78206ca5c737a0d584582edf399bc9711d9e9856002866affffffffffffffffffffff60a81b1617835542600155805160028152426020820152a180f35b835162f4e13b60e71b8152918201526001602482015260449150fd5b634e487b7160e01b855260218252602485fd5b91516377afbad160e11b8152339181019182526001600160a01b03909216602082015281906040010390fd5b8280fd5b5050346101c257816003193601126101c257602090517f00000000000000000000000000000000000000000000000000000000000000008152f35b5050346101c257816003193601126101c257517f00000000000000000000000000000000000000000000000000000000000000006001600160a01b03168152602090f35b9050346104e05760203660031901126104e0577f00000000000000000000000000000000000000000000000000000000000000006001600160a01b03811633036104b45750825460ff8116828110156106485760031461063957827f40a180796b90921dd8508eb434c78206ca5c737a0d584582edf399bc9711d9e9939260037f3e6f997c58cb1412e97320e1a9863980eb67e8223fab083f2e77b8afb8c8c460936affffffffffffffffffffff60a81b1617865542600155815190358152426020820152a1805160038152426020820152a180f35b50905163af0622c560e01b8152fd5b634e487b7160e01b855260218352602485fd5b5050346101c257816003193601126101c257517f00000000000000000000000000000000000000000000000000000000000000006001600160a01b03168152602090f35b5050346101c257816003193601126101c257517f00000000000000000000000000000000000000000000000000000000000000006001600160a01b03168152602090f35b5050346101c257816003193601126101c25761070860ff602093541691518092610744565bf35b8490346101c257816003193601126101c2576020907f00000000000000000000000000000000000000000000000000000000000000008152f35b9060048210156107515752565b634e487b7160e01b5f52602160045260245ffdfea264697066735822122006f78bf11fb8e3c80c809a1e75e8756d685f16dff70feb2d545ac0eed497853764736f6c63430008140033e62d301a4406815186889d9f260d24e0b044e5d2979b34b05f7906464535b6daf25fc196a09c498d6218d861ed9e33b8380f9200ea9174e7bbdc1b583eb31d9eeefb95e842a3287179d933b4460be539a1d5af11aa8b325bb45c5c8dc92de4edddaa901e2fe3bda354fe0ede2785152d5c109282a613fe024a056a3e66c41bb3fbd454f36a7e1a388bd6fc3ab10d434aa4578f811acbbcf33afb1c697486313ceeab7a81dc34ae18dd88b1561591cfa6c62e4301c1070bbcb2c0d36cd109575be34aaecbfe1f40867dcba8678fbed9f4ffa5782221fa3bb500b71b2a80430318288a15c4a15d470e4cd9cad2f113b91206b520c26dbd3dd74627f0c057baa19cd1ae8bbdabd60d63e418b84f5ad6f9cba90092c9816d7724d85f0d4e4bea2c60a49807205ce4d355092ef5a8a18f56e8913cf4a201fbe287825b095693c21775a2646970667358221220204b9d7b56d145b4e76290b1528d844e08fa3dcc31e22ce211648c3d419713b264736f6c63430008140033",
  "immutableReferences": {},
  "source": "// logic/SupplyChainLogic.sol\r\n// SPDX-License-Identifier: MIT\r\npragma solidity ^0.8.20;\r\n\r\nimport {Errors} from \"../libraries/Errors.sol\";\r\nimport {AccessControlWithOwner} from \"../access/AccessControlWithOwner.sol\"; // Base contract\r\nimport {RawMaterial} from \"../batches/RawMaterial.sol\"; // Batch types\r\nimport {Medicine} from \"../batches/Medicine.sol\";\r\n\r\n/**\r\n * @title SupplyChainLogic (Redesigned for Robustness)\r\n * @dev Implements supply chain actions and inherits AccessControlWithOwner for state/logic.\r\n *      Meant to be called via delegatecall from SupplyChainProxy.\r\n *      Initialization is handled by the inherited _initializeOwner function.\r\n */\r\ncontract SupplyChainLogic is AccessControlWithOwner {\r\n\r\n    // --- Supply Chain State Variables (Same as before) ---\r\n    struct TxnLog { /* ... fields ... */\r\n        uint index; address actor; address involvedParty; bytes32 eventCode;\r\n        int256 latitude; int256 longitude; uint timestamp;\r\n        bytes32 dataHash; bytes32 previousLogHash;\r\n    }\r\n    mapping(address => TxnLog[]) public batchLogs;\r\n    mapping(address => bytes32) public lastLogHashForBatch;\r\n    mapping(address => bytes32) public batchType; // TYPE_RAW_MATERIAL or TYPE_MEDICINE\r\n\r\n    // --- Constants (Same as before) ---\r\n    // bytes32 private constant CTX_...\r\n    // bytes32 private constant ARG_...\r\n    // bytes32 private constant REASON_...\r\n    // bytes32 private constant ACTION_...\r\n    // bytes32 private constant TYPE_...\r\n    // bytes32 private constant LOG_...\r\n    // (Include all original constants here)\r\n    bytes32 private constant CTX_INTENDED_MANUFACTURER = keccak256(\"intendedManufacturer\");\r\n    bytes32 private constant CTX_TRANSPORTER = keccak256(\"transporter\");\r\n    bytes32 private constant CTX_RECEIVER = keccak256(\"receiver\");\r\n    bytes32 private constant CTX_BATCH_ADDRESS = keccak256(\"batchAddress\");\r\n    bytes32 private constant CTX_RM_BATCH_ID_ARRAY = keccak256(\"rawMaterialBatchIdInArray\");\r\n    bytes32 private constant ARG_QUANTITY_POSITIVE = keccak256(\"QuantityMustBePositive\");\r\n    bytes32 private constant ARG_EXPIRY_FUTURE = keccak256(\"ExpiryDateMustBeInFuture\");\r\n    bytes32 private constant ARG_RM_ARRAY_EMPTY = keccak256(\"RequiresAtLeastOneRawMaterial\");\r\n    bytes32 private constant ARG_UNKNOWN_ROLE_NAME = keccak256(\"UnknownRoleNameProvided\");\r\n    bytes32 private constant REASON_MANUFACTURER_ROLE_MISSING = keccak256(\"IntendedManufacturerLacksRole\");\r\n    bytes32 private constant REASON_TRANSPORTER_ROLE_MISSING = keccak256(\"TransporterLacksRole\");\r\n    bytes32 private constant REASON_RECEIVER_ROLE_INVALID = keccak256(\"ReceiverRoleInvalidForStage\");\r\n    bytes32 private constant REASON_NOT_SUPPLIER = keccak256(\"CallerIsNotSupplier\");\r\n    bytes32 private constant REASON_NOT_OWNER = keccak256(\"CallerIsNotCurrentOwner\");\r\n    bytes32 private constant REASON_NOT_ADMIN_OR_SUPPLIER = keccak256(\"RequiresAdminOrSupplier\");\r\n    bytes32 private constant REASON_NOT_ADMIN_OR_OWNER = keccak256(\"RequiresAdminOrOwner\");\r\n    bytes32 private constant REASON_RM_NOT_RECEIVED = keccak256(\"RawMaterialNotReceived\");\r\n    bytes32 private constant REASON_RM_WRONG_MANUFACTURER = keccak256(\"RawMaterialWrongManufacturer\");\r\n    bytes32 private constant REASON_RM_INVALID_CONTRACT = keccak256(\"RawMaterialInvalidContract\");\r\n    bytes32 private constant REASON_RM_NOT_RM_TYPE = keccak256(\"AddressIsNotRawMaterialBatch\");\r\n    bytes32 private constant ACTION_INITIATE_TRANSFER = keccak256(\"initiateTransfer\");\r\n    bytes32 private constant ACTION_RECEIVE_PACKAGE = keccak256(\"receivePackage\");\r\n    bytes32 private constant ACTION_FINALIZE_BATCH = keccak256(\"finalizeMedicineBatch\");\r\n    bytes32 private constant ACTION_DESTROY_BATCH = keccak256(\"markBatchDestroyed\");\r\n    bytes32 private constant ACTION_GET_RM_DETAILS = keccak256(\"getRawMaterialDetails\");\r\n    bytes32 private constant ACTION_GET_MED_DETAILS = keccak256(\"getMedicineDetails\");\r\n    bytes32 private constant TYPE_RAW_MATERIAL = keccak256(\"RAW_MATERIAL\");\r\n    bytes32 private constant TYPE_MEDICINE = keccak256(\"MEDICINE\");\r\n    bytes32 private constant LOG_RM_CREATED = keccak256(\"RawMaterial Created\");\r\n    bytes32 private constant LOG_MED_CREATED = keccak256(\"Medicine Created\");\r\n    bytes32 private constant LOG_RM_TRANSFER = keccak256(\"RawMaterial Transfer Initiated\");\r\n    bytes32 private constant LOG_MED_TRANSFER = keccak256(\"Medicine Transfer Initiated\");\r\n    bytes32 private constant LOG_RM_RECEIVED = keccak256(\"RawMaterial Received\");\r\n    bytes32 private constant LOG_MED_RECEIVED = keccak256(\"Medicine Received\");\r\n    bytes32 private constant LOG_MED_FINALIZED = keccak256(\"Medicine Consumed/Sold\");\r\n    bytes32 private constant LOG_RM_DESTROYED = keccak256(\"RawMaterial Destroyed\");\r\n    bytes32 private constant LOG_MED_DESTROYED = keccak256(\"Medicine Destroyed\");\r\n\r\n\r\n    // --- Events (Inherits Access Control Events) ---\r\n    event BatchCreated(bytes32 indexed batchType, address indexed batchAddress, address indexed creator, uint timestamp);\r\n    event TransferInitiated(address indexed batchAddress, address indexed initiator, address indexed transporter, address receiver, uint timestamp);\r\n    event PackageReceived(address indexed batchAddress, address indexed receiver, address indexed sender, uint timestamp);\r\n    event BatchFinalized(address indexed batchAddress, address indexed finalOwner, uint timestamp);\r\n    event BatchDestroyed(address indexed batchAddress, address indexed actor, bytes32 reasonCode, uint timestamp);\r\n    event LogEntryCreated(address indexed batchAddress, uint indexed index, address indexed actor, bytes32 eventCode, uint timestamp, bytes32 currentLogHash );\r\n\r\n    // --- Initialization ---\r\n    /**\r\n     * @dev Public initializer called ONLY ONCE by Proxy constructor via delegatecall.\r\n     *      Delegates *entirely* to the inherited _initializeOwner function.\r\n     * @param deployer The address to become the initial owner and admin.\r\n     */\r\n    function initialize(address deployer) external {\r\n        // This function's SOLE purpose is to be the target of the proxy's\r\n        // initialization delegatecall. It calls the internal function which\r\n        // handles setting owner, role admins, and granting ADMIN_ROLE.\r\n        _initializeOwner(deployer);\r\n    }\r\n\r\n    // --- Batch Creation Functions (Use Inherited Role Checks) ---\r\n    function createRawMaterial( /* ... args ... */\r\n        bytes32 _description, uint _quantity, address _intendedManufacturer,\r\n        int256 _latitude, int256 _longitude\r\n    ) external returns (address batchAddress) {\r\n        _checkSenderRole(SUPPLIER_ROLE); // Check msg.sender via inherited function\r\n\r\n        if (_intendedManufacturer == address(0)) revert Errors.SC_InvalidAddress(CTX_INTENDED_MANUFACTURER);\r\n        if (_quantity == 0) revert Errors.SC_ArgumentError(ARG_QUANTITY_POSITIVE);\r\n        // Use internalHasRole for checks on others\r\n        if (!_internalHasRole(MANUFACTURER_ROLE, _intendedManufacturer)) {\r\n             revert Errors.SC_RoleCheckFailed(_intendedManufacturer, MANUFACTURER_ROLE, REASON_MANUFACTURER_ROLE_MISSING);\r\n         }\r\n\r\n        // Deployment logic...\r\n        RawMaterial batch = new RawMaterial(address(this), _description, _quantity, msg.sender, _intendedManufacturer);\r\n        batchAddress = address(batch);\r\n        if (batchAddress == address(0)) revert Errors.SC_BatchCreationFailed(TYPE_RAW_MATERIAL);\r\n\r\n        // State Update & Logging...\r\n        batchType[batchAddress] = TYPE_RAW_MATERIAL;\r\n        bytes32 dataHash = keccak256(abi.encode(_description, _quantity, _intendedManufacturer));\r\n        _logTransaction(batchAddress, msg.sender, _intendedManufacturer, LOG_RM_CREATED, _latitude, _longitude, dataHash);\r\n        emit BatchCreated(TYPE_RAW_MATERIAL, batchAddress, msg.sender, block.timestamp);\r\n    }\r\n\r\n    function createMedicine( /* ... args ... */\r\n        bytes32 _description, uint _quantity, address[] calldata _rawMaterialBatchIds,\r\n        uint _expiryDate, int256 _latitude, int256 _longitude\r\n    ) external returns (address batchAddress) {\r\n        _checkSenderRole(MANUFACTURER_ROLE); // Check msg.sender\r\n\r\n        if (_rawMaterialBatchIds.length == 0) revert Errors.SC_ArgumentError(ARG_RM_ARRAY_EMPTY);\r\n        if (_quantity == 0) revert Errors.SC_ArgumentError(ARG_QUANTITY_POSITIVE);\r\n        if (_expiryDate <= block.timestamp) revert Errors.SC_ArgumentError(ARG_EXPIRY_FUTURE);\r\n\r\n        // Raw Material Input Validation... (Using _internalHasRole if needed)\r\n        for (uint i = 0; i < _rawMaterialBatchIds.length; i++) {\r\n            // ... existing checks ...\r\n            // Example: Check if batch type is correct\r\n             address rmAddr = _rawMaterialBatchIds[i];\r\n             if (rmAddr == address(0)) revert Errors.SC_InvalidAddress(CTX_RM_BATCH_ID_ARRAY);\r\n             if(batchType[rmAddr] != TYPE_RAW_MATERIAL) revert Errors.SC_RawMaterialValidationFailed(rmAddr, REASON_RM_NOT_RM_TYPE);\r\n             try RawMaterial(rmAddr).getDetails() returns ( bytes32, uint, address, address intendedM, uint, RawMaterial.Status status, address, uint ) {\r\n                 if (status != RawMaterial.Status.Received) revert Errors.SC_RawMaterialValidationFailed(rmAddr, REASON_RM_NOT_RECEIVED);\r\n                 if (intendedM != msg.sender) revert Errors.SC_RawMaterialValidationFailed(rmAddr, REASON_RM_WRONG_MANUFACTURER);\r\n             } catch (bytes memory lowLevelData) { revert Errors.SC_ExternalCallFailed(rmAddr, ACTION_GET_RM_DETAILS, lowLevelData); }\r\n        }\r\n\r\n\r\n        // Deployment logic...\r\n        Medicine batch = new Medicine(address(this), _description, _quantity, _rawMaterialBatchIds, msg.sender, _expiryDate);\r\n        batchAddress = address(batch);\r\n        if (batchAddress == address(0)) revert Errors.SC_BatchCreationFailed(TYPE_MEDICINE);\r\n\r\n\r\n        // State Update & Logging...\r\n        batchType[batchAddress] = TYPE_MEDICINE;\r\n        bytes32 dataHash = keccak256(abi.encode(_description, _quantity, _rawMaterialBatchIds, _expiryDate));\r\n        _logTransaction(batchAddress, msg.sender, address(0), LOG_MED_CREATED, _latitude, _longitude, dataHash);\r\n        emit BatchCreated(TYPE_MEDICINE, batchAddress, msg.sender, block.timestamp);\r\n    }\r\n\r\n    // --- Batch Lifecycle Functions (Use Inherited Role Checks) ---\r\n    function initiateTransfer( /* ... args ... */\r\n        address _batchAddress, address _transporter, address _receiver,\r\n        int256 _latitude, int256 _longitude\r\n    ) external {\r\n        address sender = msg.sender; // Original caller\r\n        // Argument Validation...\r\n        if (_batchAddress == address(0)) revert Errors.SC_InvalidAddress(CTX_BATCH_ADDRESS);\r\n        if (_transporter == address(0)) revert Errors.SC_InvalidAddress(CTX_TRANSPORTER);\r\n        if (_receiver == address(0)) revert Errors.SC_InvalidAddress(CTX_RECEIVER);\r\n\r\n\r\n        // Role/Type Validation (Use internalHasRole for checks on OTHERS)\r\n        if (!_internalHasRole(TRANSPORTER_ROLE, _transporter)) {\r\n            revert Errors.SC_RoleCheckFailed(_transporter, TRANSPORTER_ROLE, REASON_TRANSPORTER_ROLE_MISSING);\r\n        }\r\n        // ... rest of validation and logic using sender and _internalHasRole ...\r\n        // (Keep original logic, just ensure role checks use base contract helpers)\r\n        bytes32 _type = batchType[_batchAddress];\r\n        if (_type == bytes32(0)) revert Errors.SC_BatchTypeUnknownOrActionFailed(_batchAddress, ACTION_INITIATE_TRANSFER);\r\n\r\n        bytes32 eventDataHash = keccak256(abi.encode(_transporter, _receiver));\r\n        bytes32 logCode;\r\n\r\n        if (_type == TYPE_RAW_MATERIAL) {\r\n            RawMaterial rm = RawMaterial(_batchAddress);\r\n            if (rm.supplier() != sender) revert Errors.SC_UnauthorizedActor(sender, REASON_NOT_SUPPLIER); // Check sender directly\r\n            if (rm.intendedManufacturer() != _receiver) revert Errors.SC_ReceiverMismatch(_batchAddress, rm.intendedManufacturer(), _receiver);\r\n            if (!_internalHasRole(MANUFACTURER_ROLE, _receiver)) revert Errors.SC_RoleCheckFailed(_receiver, MANUFACTURER_ROLE, REASON_MANUFACTURER_ROLE_MISSING); // Check receiver role\r\n\r\n            try rm.setInTransit(_transporter) { logCode = LOG_RM_TRANSFER; }\r\n            catch (bytes memory lowLevelData) { revert Errors.SC_ExternalCallFailed(_batchAddress, ACTION_INITIATE_TRANSFER, lowLevelData); }\r\n        } else { // TYPE_MEDICINE\r\n            Medicine med = Medicine(_batchAddress);\r\n            if (med.currentOwner() != sender) revert Errors.SC_UnauthorizedActor(sender, REASON_NOT_OWNER); // Check sender directly\r\n\r\n            Medicine.Status currentStatus = med.status();\r\n            Medicine.Status nextTransitStatus;\r\n            if (currentStatus == Medicine.Status.Created) {\r\n                _checkSenderRole(MANUFACTURER_ROLE); // Check sender role\r\n                if (_internalHasRole(WHOLESALER_ROLE, _receiver)) { nextTransitStatus = Medicine.Status.InTransitToW; }\r\n                else if (_internalHasRole(DISTRIBUTOR_ROLE, _receiver)) { nextTransitStatus = Medicine.Status.InTransitToD; }\r\n                else { revert Errors.SC_InvalidReceiverRole(_receiver, bytes32(0)); } // Check receiver roles\r\n            } else if (currentStatus == Medicine.Status.AtWholesaler) {\r\n                 _checkSenderRole(WHOLESALER_ROLE); // Check sender role\r\n                 if (!_internalHasRole(DISTRIBUTOR_ROLE, _receiver)) revert Errors.SC_RoleCheckFailed(_receiver, DISTRIBUTOR_ROLE, REASON_RECEIVER_ROLE_INVALID); // Check receiver role\r\n                 nextTransitStatus = Medicine.Status.InTransitToD;\r\n            } else if (currentStatus == Medicine.Status.AtDistributor) {\r\n                  _checkSenderRole(DISTRIBUTOR_ROLE); // Check sender role\r\n                  if (!_internalHasRole(CUSTOMER_ROLE, _receiver)) revert Errors.SC_RoleCheckFailed(_receiver, CUSTOMER_ROLE, REASON_RECEIVER_ROLE_INVALID); // Check receiver role\r\n                 nextTransitStatus = Medicine.Status.InTransitToC;\r\n            } else { revert Errors.SC_InvalidStateForAction(_batchAddress, uint8(currentStatus), ACTION_INITIATE_TRANSFER); }\r\n\r\n            try med.setInTransit(nextTransitStatus, _transporter, _receiver) { logCode = LOG_MED_TRANSFER; }\r\n            catch (bytes memory lowLevelData) { revert Errors.SC_ExternalCallFailed(_batchAddress, ACTION_INITIATE_TRANSFER, lowLevelData); }\r\n        }\r\n         // Logging & Event\r\n        _logTransaction(_batchAddress, sender, _transporter, logCode, _latitude, _longitude, eventDataHash);\r\n        emit TransferInitiated(_batchAddress, sender, _transporter, _receiver, block.timestamp);\r\n\r\n    }\r\n\r\n    function receivePackage( /* ... args ... */\r\n         address _batchAddress, int256 _latitude, int256 _longitude\r\n    ) external {\r\n        address sender = msg.sender; // Original caller (the receiver)\r\n        // Argument/Type Validation...\r\n        if (_batchAddress == address(0)) revert Errors.SC_InvalidAddress(CTX_BATCH_ADDRESS);\r\n        bytes32 _type = batchType[_batchAddress];\r\n        if (_type == bytes32(0)) revert Errors.SC_BatchTypeUnknownOrActionFailed(_batchAddress, ACTION_RECEIVE_PACKAGE);\r\n\r\n        // ... rest of validation and logic using sender and _checkSenderRole ...\r\n        // (Keep original logic, ensure role checks use base contract helpers)\r\n        bytes32 eventDataHash = keccak256(abi.encode(\"RECEIVE\", sender));\r\n        bytes32 logCode;\r\n        address previousHolder = address(0);\r\n        address transporter = address(0);\r\n\r\n        if (_type == TYPE_RAW_MATERIAL) {\r\n            RawMaterial rm = RawMaterial(_batchAddress);\r\n            if (rm.intendedManufacturer() != sender) revert Errors.SC_ReceiverMismatch(_batchAddress, rm.intendedManufacturer(), sender);\r\n            _checkSenderRole(MANUFACTURER_ROLE); // Check receiver (sender) role\r\n\r\n            previousHolder = rm.supplier();\r\n            transporter = rm.currentTransporter();\r\n\r\n            try rm.setReceived() { logCode = LOG_RM_RECEIVED; }\r\n            catch (bytes memory lowLevelData) { revert Errors.SC_ExternalCallFailed(_batchAddress, ACTION_RECEIVE_PACKAGE, lowLevelData); }\r\n        } else { // TYPE_MEDICINE\r\n            Medicine med = Medicine(_batchAddress);\r\n             if (med.currentDestination() != sender) revert Errors.SC_ReceiverMismatch(_batchAddress, med.currentDestination(), sender);\r\n\r\n            previousHolder = med.currentOwner();\r\n            transporter = med.currentTransporter();\r\n            Medicine.Status currentStatus = med.status();\r\n            Medicine.Status nextStatus;\r\n            bytes32 requiredReceiverRole; // Check sender against this role\r\n\r\n            if (currentStatus == Medicine.Status.InTransitToW) { nextStatus = Medicine.Status.AtWholesaler; requiredReceiverRole = WHOLESALER_ROLE; }\r\n            else if (currentStatus == Medicine.Status.InTransitToD) { nextStatus = Medicine.Status.AtDistributor; requiredReceiverRole = DISTRIBUTOR_ROLE; }\r\n            else if (currentStatus == Medicine.Status.InTransitToC) { nextStatus = Medicine.Status.AtCustomer; requiredReceiverRole = CUSTOMER_ROLE; }\r\n            else { revert Errors.SC_InvalidStateForAction(_batchAddress, uint8(currentStatus), ACTION_RECEIVE_PACKAGE); }\r\n\r\n            _checkSenderRole(requiredReceiverRole); // Check receiver (sender) role\r\n\r\n            try med.setReceived(nextStatus, sender) { logCode = LOG_MED_RECEIVED; }\r\n            catch (bytes memory lowLevelData) { revert Errors.SC_ExternalCallFailed(_batchAddress, ACTION_RECEIVE_PACKAGE, lowLevelData); }\r\n        }\r\n         // Logging & Event\r\n        _logTransaction(_batchAddress, sender, transporter, logCode, _latitude, _longitude, eventDataHash);\r\n        emit PackageReceived(_batchAddress, sender, previousHolder, block.timestamp);\r\n\r\n    }\r\n\r\n    function finalizeMedicineBatch( /* ... args ... */\r\n        address _batchAddress, int256 _latitude, int256 _longitude\r\n    ) external {\r\n        _checkSenderRole(CUSTOMER_ROLE); // Check msg.sender role\r\n\r\n        if (_batchAddress == address(0)) revert Errors.SC_InvalidAddress(CTX_BATCH_ADDRESS);\r\n        if (batchType[_batchAddress] != TYPE_MEDICINE) revert Errors.SC_BatchTypeUnknownOrActionFailed(_batchAddress, ACTION_FINALIZE_BATCH);\r\n\r\n        Medicine med = Medicine(_batchAddress);\r\n        if (med.currentOwner() != msg.sender) revert Errors.SC_UnauthorizedActor(msg.sender, REASON_NOT_OWNER);\r\n\r\n        // Action\r\n        try med.setConsumedOrSold() {\r\n             bytes32 dataHash = keccak256(abi.encode(\"FINALIZED\", msg.sender));\r\n             _logTransaction(_batchAddress, msg.sender, address(0), LOG_MED_FINALIZED, _latitude, _longitude, dataHash);\r\n             emit BatchFinalized(_batchAddress, msg.sender, block.timestamp);\r\n        } catch (bytes memory lowLevelData) { revert Errors.SC_ExternalCallFailed(_batchAddress, ACTION_FINALIZE_BATCH, lowLevelData); }\r\n    }\r\n\r\n    function markBatchDestroyed( /* ... args ... */\r\n        address _batchAddress, bytes32 _reasonCode, int256 _latitude, int256 _longitude\r\n    ) external {\r\n        address sender = msg.sender;\r\n        if (_batchAddress == address(0)) revert Errors.SC_InvalidAddress(CTX_BATCH_ADDRESS);\r\n        bytes32 _type = batchType[_batchAddress];\r\n        if (_type == bytes32(0)) revert Errors.SC_BatchTypeUnknownOrActionFailed(_batchAddress, ACTION_DESTROY_BATCH);\r\n\r\n        // Authorization (Check if sender is Admin OR appropriate batch owner/supplier)\r\n        bool isAdmin = _internalHasRole(ADMIN_ROLE, sender); // Use internal check\r\n        bytes32 dataHash = keccak256(abi.encode(\"DESTROYED\", _reasonCode));\r\n        bytes32 logCode;\r\n\r\n        if (_type == TYPE_RAW_MATERIAL) {\r\n            RawMaterial rm = RawMaterial(_batchAddress);\r\n            if (!isAdmin && rm.supplier() != sender) { // Check if not admin AND not supplier\r\n                revert Errors.SC_UnauthorizedActor(sender, REASON_NOT_ADMIN_OR_SUPPLIER);\r\n            }\r\n            try rm.setDestroyed(_reasonCode) { logCode = LOG_RM_DESTROYED; }\r\n            catch (bytes memory lowLevelData) { revert Errors.SC_ExternalCallFailed(_batchAddress, ACTION_DESTROY_BATCH, lowLevelData); }\r\n        } else { // TYPE_MEDICINE\r\n            Medicine med = Medicine(_batchAddress);\r\n            if (!isAdmin && med.currentOwner() != sender) { // Check if not admin AND not current owner\r\n                revert Errors.SC_UnauthorizedActor(sender, REASON_NOT_ADMIN_OR_OWNER);\r\n            }\r\n            try med.setDestroyed(_reasonCode) { logCode = LOG_MED_DESTROYED; }\r\n            catch (bytes memory lowLevelData) { revert Errors.SC_ExternalCallFailed(_batchAddress, ACTION_DESTROY_BATCH, lowLevelData); }\r\n        }\r\n        // Logging & Event\r\n        _logTransaction(_batchAddress, sender, address(0), logCode, _latitude, _longitude, dataHash);\r\n        emit BatchDestroyed(_batchAddress, sender, _reasonCode, block.timestamp);\r\n    }\r\n\r\n    // --- Role Management Wrappers (Public Interface) ---\r\n    // These simply delegate to the internal functions inherited from AccessControlWithOwner.\r\n    // Authorization checks happen inside those internal functions using msg.sender.\r\n\r\n    function grantRole(bytes32 role, address account) external {\r\n        _grantRole(role, account, msg.sender); // Delegate with sender context\r\n    }\r\n\r\n    function revokeRole(bytes32 role, address account) external {\r\n        _revokeRole(role, account, msg.sender); // Delegate with sender context\r\n    }\r\n\r\n    function setRoleAdmin(bytes32 role, bytes32 adminRole) external {\r\n        _setRoleAdmin(role, adminRole, msg.sender); // Delegate with sender context\r\n    }\r\n\r\n    function transferOwnership(address newOwner) external {\r\n        _transferOwnership(newOwner, msg.sender); // Delegate with sender context\r\n    }\r\n\r\n    // --- Public Access Control View Functions ---\r\n    // Expose role information publicly by calling inherited internal views.\r\n\r\n    /** @notice Returns true if `account` has been granted `role`. */\r\n    function hasRole(bytes32 role, address account) external view returns (bool) {\r\n        return _internalHasRole(role, account); // Delegate to internal view\r\n    }\r\n\r\n    /** @notice Returns the admin role that controls `role`. */\r\n    function getRoleAdmin(bytes32 role) external view returns (bytes32) {\r\n        return _getRoleAdmin(role); // Delegate to internal view\r\n    }\r\n\r\n    // --- Internal Logging Function (Same as before) ---\r\n    function _logTransaction( /* ... args ... */\r\n        address _batchAddress, address _actor, address _involvedParty, bytes32 _eventCode,\r\n        int256 _latitude, int256 _longitude, bytes32 _dataHash\r\n    ) internal {\r\n         bytes32 previousHash = lastLogHashForBatch[_batchAddress];\r\n         TxnLog[] storage logs = batchLogs[_batchAddress];\r\n         uint currentIndex = logs.length;\r\n         bytes32 currentLogHash = keccak256(abi.encodePacked( // Use packed for hash efficiency\r\n             currentIndex, _actor, _involvedParty, _eventCode,\r\n             _latitude, _longitude, block.timestamp, _dataHash, previousHash\r\n         ));\r\n         logs.push(TxnLog(\r\n             currentIndex, _actor, _involvedParty, _eventCode,\r\n             _latitude, _longitude, block.timestamp, _dataHash, previousHash\r\n         ));\r\n         lastLogHashForBatch[_batchAddress] = currentLogHash;\r\n         emit LogEntryCreated(_batchAddress, currentIndex, _actor, _eventCode, block.timestamp, currentLogHash);\r\n    }\r\n\r\n    // --- Internal View Functions for Batch Details (Same as before) ---\r\n    // These are called by the Proxy's public view functions via staticcall.\r\n    function getRawMaterialDetailsInternal(address _batchAddress) external view returns ( /* ... fields ... */\r\n        bytes32 description, uint quantity, address supplier, address intendedManufacturer,\r\n        uint creationTime, RawMaterial.Status status, address currentTransporter, uint lastUpdateTime\r\n    ) {\r\n        // Use low-level call with try/catch for robustness\r\n        (bool success, bytes memory data) = _batchAddress.staticcall(abi.encodeWithSelector(RawMaterial.getDetails.selector));\r\n        if(!success) {\r\n             revert Errors.SC_ExternalCallFailed(_batchAddress, ACTION_GET_RM_DETAILS, data);\r\n        }\r\n        // Decode manually or assume RawMaterial returns the tuple directly if ABI matches\r\n        (description, quantity, supplier, intendedManufacturer, creationTime, status, currentTransporter, lastUpdateTime) =\r\n             abi.decode(data, (bytes32, uint, address, address, uint, RawMaterial.Status, address, uint));\r\n         // return (description, quantity, supplier, intendedManufacturer, creationTime, status, currentTransporter, lastUpdateTime); // implicit return\r\n    }\r\n\r\n     function getMedicineDetailsInternal(address _batchAddress) external view returns ( /* ... fields ... */\r\n        bytes32 description, uint quantity, address[] memory rawMaterialBatchIds, address manufacturer,\r\n        uint creationTime, uint expiryDate, Medicine.Status status, address currentOwner,\r\n        address currentTransporter, address currentDestination, uint lastUpdateTime\r\n     ) {\r\n        (bool success, bytes memory data) = _batchAddress.staticcall(abi.encodeWithSelector(Medicine.getDetails.selector));\r\n         if(!success) {\r\n             revert Errors.SC_ExternalCallFailed(_batchAddress, ACTION_GET_MED_DETAILS, data);\r\n         }\r\n         (description, quantity, rawMaterialBatchIds, manufacturer, creationTime, expiryDate, status, currentOwner, currentTransporter, currentDestination, lastUpdateTime) =\r\n              abi.decode(data, (bytes32, uint, address[], address, uint, uint, Medicine.Status, address, address, address, uint));\r\n         // return (...); // implicit return\r\n     }\r\n\r\n    function getTransactionHistoryInternal(address _batchAddress) external view returns (TxnLog[] memory) {\r\n        // Existence check should happen in the proxy view function before calling this\r\n        return batchLogs[_batchAddress];\r\n    }\r\n\r\n     /** @dev Gets role identifier hash from string. Reverts on unknown role. */\r\n     function getRoleIdentifier(string calldata _roleName) external pure returns (bytes32) {\r\n        bytes32 roleHash = keccak256(abi.encodePacked(_roleName));\r\n        // Explicitly check against *all* known public roles\r\n        if (roleHash == ADMIN_ROLE || roleHash == SUPPLIER_ROLE || roleHash == TRANSPORTER_ROLE ||\r\n            roleHash == MANUFACTURER_ROLE || roleHash == WHOLESALER_ROLE || roleHash == DISTRIBUTOR_ROLE ||\r\n            roleHash == CUSTOMER_ROLE)\r\n        {\r\n            return roleHash;\r\n        }\r\n        revert Errors.SC_ArgumentError(ARG_UNKNOWN_ROLE_NAME);\r\n    }\r\n    \r\n    // Note: The public `owner` variable is inherited directly from AccessControlWithOwner\r\n}",
  "sourcePath": "C:\\Users\\rabra\\OneDrive\\Desktop\\new drug auth\\contracts\\logic\\SupplyChainLogic.sol",
  "compiler": {
    "name": "solc",
    "version": "0.8.20+commit.a1b79de6.Emscripten.clang"
  },
  "schemaVersion": "3.4.16",
  "updatedAt": "2025-04-30T05:20:20.665Z",
  "networkType": "ethereum",
  "devdoc": {
    "details": "Implements supply chain actions and inherits AccessControlWithOwner for state/logic.      Meant to be called via delegatecall from SupplyChainProxy.      Initialization is handled by the inherited _initializeOwner function.",
    "kind": "dev",
    "methods": {
      "getRoleIdentifier(string)": {
        "details": "Gets role identifier hash from string. Reverts on unknown role. "
      },
      "initialize(address)": {
        "details": "Public initializer called ONLY ONCE by Proxy constructor via delegatecall.      Delegates *entirely* to the inherited _initializeOwner function.",
        "params": {
          "deployer": "The address to become the initial owner and admin."
        }
      }
    },
    "title": "SupplyChainLogic (Redesigned for Robustness)",
    "version": 1
  },
  "userdoc": {
    "kind": "user",
    "methods": {
      "getRoleAdmin(bytes32)": {
        "notice": "Returns the admin role that controls `role`. "
      },
      "hasRole(bytes32,address)": {
        "notice": "Returns true if `account` has been granted `role`. "
      }
    },
    "version": 1
  }
}